:0618080000008C310C2CE5
:101810007E148C317E10090020008C310F2C653035
:101820008400003085000B30903101208C31A830CD
:101830008400003085002B30903101208C317E10E7
:1018400020009B31952BF4007408073E8600870129
:101850008101740A860087013F30810520000D0D4B
:101860000D0D01398F31F6278C31F100740A860095
:101870008701F10D01087106FD3971068100200014
:101880006B19432C442CE62C0E0D0E0D01398F31B3
:10189000F6278C31F100740886008701F10DF10DF7
:1018A00001087106FB397106810020000E0E890CBB
:1018B000890C01398F31F6278C31F10074088600CC
:1018C0008701F10D01087106FD39710681002000C4
:1018D0000E0CF100F10C710C01398F31F6278C31AF
:1018E000F200740886008701F20CF20C01087206FF
:1018F0007F397206810020000C0E890C01398F316E
:10190000F6278C31F100740886008701F10DF10D86
:10191000F10D01087106F7397106810020000E0EE5
:10192000890C01398F31F6278C31F100740886005B
:10193000870101087106FE397106810020000E0E34
:1019400001398F31F6278C31F10074088600870148
:10195000F10EF10DF10D01087106BF39710681001C
:1019600020000E0C01398F31F6278C31F1007408FC
:1019700086008701F10E01087106EF3971068100BA
:1019800020000C0E01398F31F6278C31F1007408DC
:1019900086008701F10EF10D01087106DF3971062D
:1019A0008100740A860087010110740A860087018D
:1019B0008112740A860087010111740A860087016A
:1019C0008111740A8600870101128B2D6B1DE92C91
:1019D000EA2C8B2D0E0D0E0D01398F31F6278C312F
:1019E000F100740886008701F10DF10D0108710600
:1019F000FB397106810020000E0E890C890C01391B
:101A00008F31F6278C31F100740886008701F10DC3
:101A100001087106FD39710681007408860087018E
:101A2000811320000C0E890C01398F31F6278C317F
:101A3000F100740886008701F10DF10DF10D010828
:101A40007106F7397106810074088600870101105C
:101A5000740886008701011374088600870101124B
:101A6000740886008701811220000E0CF100F10C31
:101A7000710C01398F31F6278C31F200740A86001F
:101A8000870101087206FE397206810020000E0EE1
:101A9000890C01398F31F6278C31F100740A8600E8
:101AA0008701F10EF10D01087106DF397106810021
:101AB00020000E0C01398F31F6278C31F100740AA9
:101AC00086008701F10DF10D01087106FB397106E1
:101AD000810020000C0E01398F31F6278C31F10086
:101AE000740A86008701F10DF10DF10D01087106F0
:101AF000F7397106810020000E0E01398F31F6276B
:101B00008C31F100740A86008701F10E010871061C
:101B1000EF39710681002000EB1D8F2D902DCF2D08
:101B2000740886008701003001190130F300740841
:101B300086008701010C0139F100740886008701D5
:101B4000F10DF10D01087106FB3971068100740871
:101B500086008701730801398110031D8114740800
:101B600086008701003081190130F3007408860077
:101B7000870101080139F100740886008701F10D21
:101B8000F10DF10D01087106F73971068100740835
:101B900086008701730801390110031D01140D0E21
:101BA000890C890C01398F31F6278C31003A0319E1
:101BB000DA2DDB2DE12D7408033E860087018101BB
:101BC000FD2D20000D0E01398F31F6278C31003AA2
:101BD0000319EB2DEC2DF52DFF30F1007408033EB9
:101BE0008600870171088100FD2D8030F1007408A6
:101BF000033E860087017108810020000D0E890CCC
:101C000001398F31F6278C31003A0319082E092E3D
:101C10000F2E7408043E8600870181012C2E2000BF
:101C20000E0C890C01398F31F6278C31003A0319DB
:101C30001A2E1B2E242EFF30F1007408043E86005D
:101C40008701710881002C2E8030F1007408043E59
:101C500086008701710881000830F1007408023E97
:101C600086008701710881008030F1007408053E0C
:101C700086008701710881008030F1007408063EFB
:101C80008600870171088100592F7408033E860081
:101C900087010108031D4D2E4E2E612E7408043E4F
:101CA0008600870180300106031D572E582E612EB5
:101CB0007408023E860087010108F0390638810069
:101CC0001F2F7408033E860087010108031D692E3B
:101CD0006A2E7C2E7408043E860087010108031DCD
:101CE000722E732E7C2E7408023E86008701010836
:101CF000F039073881001F2F7408033E86008701E2
:101D000080300106031D852E862E962E7408043E13
:101D1000860087010108031D8E2E8F2E962E7408D3
:101D2000023E86008701F03081051F2F7408033EB4
:101D300086008701010A031D9E2E9F2EB12E740876
:101D4000043E860087010108031DA72EA82EB12E90
:101D50007408023E860087010108F03901388100CD
:101D60001F2F7408033E86008701010A031DB92E48
:101D7000BA2ECD2E7408043E8600870180300106FD
:101D8000031DC32EC42ECD2E7408023E860087018B
:101D90000108F039023881001F2F7408033E8600C5
:101DA0008701010A031DD52ED62EE82E7408043EA5
:101DB00086008701010A031DDE2EDF2EE82E74083F
:101DC000023E860087010108F039033881001F2F89
:101DD0007408033E8600870180300106031DF12E42
:101DE000F22E042F7408043E86008701010A031DA9
:101DF000FA2EFB2E042F7408023E8600870101088C
:101E0000F039043881001F2F7408033E86008701D3
:101E10000108031D0C2F0D2F1F2F7408043E860090
:101E20008701010A031D152F162F1F2F7408023E6C
:101E3000860087010108F039053881001F2F8030A6
:101E4000F1007408033E860087017108810080302C
:101E5000F1007408043E86008701710881006E2F2E
:101E60007408033E860087010108F1007408053EEE
:101E700086008701710881007408043E860087018E
:101E80000108F1007408063E860087017108810090
:101E90008030F1007408033E8600870171088100DC
:101EA0008030F1007408043E8600870171088100CB
:101EB0006E2F20006B080339F100F2017208003A1E
:101EC0000319632F6E2F7108003A03196E2F013A20
:101ED0000319452E033A0319302F6E2F08002000F6
:101EE0000D0D0D0D01398F31F6278F31003A031991
:101EF0007A2F7B2FF52F20000E0C01398F31F6271A
:101F00008F31003A0319852F862FF52F0B110530DD
:101F100020009500F301F401DE2F0B1D902F912F6F
:101F2000DE2F0130F3070030F43D00307402FA3048
:101F300003197302031C9D2F9E2FDA2FAC2F6B0801
:101F4000FC390138EB00C12F6B08FC390238EB007B
:101F5000C12FFC30EB05C12F20006B080339F100C5
:101F6000F2017208003A0319B62FC12F7108003A26
:101F700003199F2F013A0319A42F033A0319A92F1C
:101F8000C12FF301F40120000D0D0D0D01398F312A
:101F9000F6278F31003A0319CE2FCF2FDA2F2000EA
:101FA0000E0C01398F31F6278F31003A031DD92FDE
:101FB000DA2FC32F0B1105302000950020000D0DE6
:101FC0000D0D01398F31F6278F31003A0319E92FB2
:101FD000EA2FF52F20000E0C01398F31F6278F31B3
:101FE000003A031DF42FF52F8D2F0800F000700824
:0E1FF0000319FB2FFD2F0130FE2F00300800DB
:10200200640080010131890B02280034F500203080
:10201200F1007108F6007008F1000130F135890B0A
:102022000F287508F2000130F235FF3E031D152816
:1020320072357107F3000130F335FF3E031D1D2891
:102042007335F4007408F607760886008701811359
:102052007008031D2D282E2837287535B83E8600B6
:1020620087017608C03F0030C13F3F287535653E85
:10207200860087017608C03F0030C13F760886009F
:10208200870101137608043E8600870101170800C4
:102092002000400E890C0339003A031951285228B6
:1020A2009728C2282100B11708302000DD005D0802
:1020B200EE00C2289131C4219031C2289031C32050
:1020C2009031C228D2302100AF000030B00031146C
:1020D200B201B20AB117C2289D314A259031C228F5
:1020E2009631B2269031C2284408D13E2100AF0079
:1020F2000030B00068282100B11720004208DD003E
:102102004408D13E860087015D088100C228023062
:10211200D0000030D1000030D2000030D3000030B7
:10212200D400D5009B31CF239031C2284108DD0075
:10213200DE015E08003A03199F28C2285D08003AB2
:1021420003196D28013A03197128023A03197128FB
:10215200063A03195328033A03195B28013A031973
:1021620088280F3A03196328013A03195F28033AB2
:1021720003197528013A03197C28073A0319C22862
:10218200C22808002100B1170E302000D800993073
:10219200D700D9015708860058088700810101300D
:1021A200D7070030D83D0130D6005608D907590864
:1021B2000319DC28DD28CB280030F000F1002030A4
:1021C200F2000030F30020309231E72290313D00DE
:1021D2000E172000DA015A08C03E860087018101ED
:1021E2005A08BE3E8600870181010130D60056089A
:1021F200DA0702305A02031CFF280029EC280030BB
:10220200F000F1000130F2000030F300D1309231E1
:10221200E72290313D000E1328302000E500003007
:10222200E6002030D6005608ED006D08E900FF39BF
:10223200031D0030EA004208D60056082100D200F1
:102242005208031D252926292C2910302000D600EA
:102252005608EE00412901302000D0000030D100A4
:10226200D230D2000030D3000130D4000030D5008B
:102272009B31CF23903120302000D6005608EE004B
:102282000800F700700803194729482951297735B2
:10229200653E86008701403FF800413FF900592919
:1022A2007735B83E86008701403FF800413FF9008C
:1022B20078087904031D5E295F296229F001F10182
:1022C200C3297108F3000030F40078088600790809
:1022D200870042317308C03F7408C13F7808013E4D
:1022E200F3000030793DF40073088600740887001B
:1022F200720881004030F300780886007908870070
:1023020073088105780886007908870081157808A6
:10231200860079088700811770080319912992298C
:10232200A9297735653E86008701403FF300413F8A
:10233200F40004307306F50000307406F6007735B9
:10234200653E860087017508C03F7608C13FBF29F8
:102352007735B83E86008701403FF300413FF400E5
:1023620004307306F50000307406F6007735B83E87
:10237200860087017508C03F7608C13F7908F100E1
:102382007808F0000800803020004006031DCA29AA
:10239200CB29482AC030F00070082100B100342A4D
:1023A200B6302100AF009830B0001230B2000030D9
:1023B200B300482A4208031DDF29E0290F2A4208F8
:1023C200F000F101F035F10DD23070078400983041
:1023D200713D8500003F2100AF00013FB000300891
:1023E200F1002F08F0000230700784007108031812
:1023F200710A85000008F2007208B2003008F1008C
:102402002F08F00003307007840071080318710A66
:1024120085000008F2007208B300482A2100B101C9
:10242200482A033042020318172A182A0F2A4208A0
:10243200F000F101F035F10DC830700784009830DA
:10244200713D8500003F2100AF00013FB0002F0821
:102452008400300885000008F000F1017008B20025
:102462007108B300482A20004308F000F101710806
:10247200003A03193D2A0F2A7008013A0319D1299B
:10248200033A0319DB29013A0319122A0F2A080019
:102492003D000E122100B11B4F2A502A952AAA1F75
:1024A200532A542A642A0230F5007508CD004308E5
:1024B200031D5C2A5D2A602A9C31EA2492312100A4
:1024C200C501C601E62A20006908013EF500003078
:1024D2006A3DF6007508860076088700083081009C
:1024E2004030F5000030F600690886006A0887006F
:1024F20042317508C03F7608C13F690886006A0804
:1025020087000C308100690886006A0887008117FD
:102512006508860066088700043081006508860029
:10252200660887008117E62A2000C01F992A9A2A86
:10253200B22A2100CD01CD0A4408031DA12AA22AF4
:10254200A52A9C31EA2492312100C501C60120004E
:102552006C08031DAD2AAE2AE62A9E3199269231D5
:10256200E62A0230F50075082100CD002000690836
:10257200013EF50000306A3DF600750886007608D7
:102582008700083081004030F5000030F60069080D
:1025920086006A08870042317508C03F7608C13F4D
:1025A200690886006A08870004308100690886008D
:1025B2006A08870081172100C501C60120006C0846
:1025C200031DE42AE52AE62AAE2A0800F800780864
:1025D200F4007408F90072087304031DF12AF22A48
:1025E200F32A8A2B7008F4007908860087017408A0
:1025F20081007008F40072087907F5007508FF3E43
:1026020086008701740881000030730203300319C9
:10261200720203180D2B0E2B0F2B8A2B7008F4005D
:10262200790A86008701740881007008F40079082D
:10263200023E86008701740881007008F400720867
:102642007907F5007508FE3E86008701740881004F
:102652007008F40072087907F5007508FD3E8600DF
:102662008701740881000030730207300319720277
:1026720003183C2B3D2B3E2B8A2B7008F400790863
:10268200033E86008701740881007008F400720816
:102692007907F5007508FC3E860087017408810001
:1026A200003073020930031972020318592B5A2B96
:1026B2005B2B8A2B7909F4007A09F500F40A0319D5
:1026C200F50A03307405F60000307505F700760848
:1026D200F4007408F9077608F2027708F33BFC303D
:1026E200F205FF30F305842B7008F40079088600A8
:1026F2008701740881000130F2020030F33B01309F
:10270200F4007408F90772087304031D892B8A2BDD
:10271200752B0800210012113D00930190019801D0
:102722000E30F2009930F100F30171088600720850
:10273200870081010130F1070030F23D0130F000E5
:102742007008F30773080319A72BA82B962B1630D2
:102752003D0091009F3097007B309200F401740895
:10276200F0000130F035FF3E031DB32B7035203EE3
:10277200860087010030C03F0030C13FC23FC33FE7
:102782000130F0007008F40708307402031CCA2BF1
:10279200CB2BB02B3D000E1796010E120E13F73005
:1027A200F000700890052100B101AA01AB01AC0153
:1027B2003D009019DD2BDE2BD02B0130F00070088C
:1027C2002100C6000130F0007008C500C401C30139
:1027D200CA01F4017435653E860087010030C03FAE
:1027E200C13F7435B83E860087010030C03FC13F0B
:1027F2007408C03E8600870181017408BE3E8600CF
:10280200870181010130F0007008F4070230740280
:10281200031C0C2C0D2CEB2B28302000E500003083
:10282200E60016303D00980000302000A300403042
:10283200A2000830A1000430F0007008A000A01728
:102842002100D2010030B7000030B6000030B500E0
:102852000030B400C2012000EE0108002000400850
:102862001F39013A0319362C372C382CD32C440843
:1028720003193C2C3D2C3E2CD32C06304106031D63
:10288200432C442C792C662C21005203031D4A2C24
:102892004B2C792C8C30AF009830B0000930B2004C
:1028A2000030B300C030F0007008B100792C003065
:1028B2002100AF009830B0005630B2000030B300B3
:1028C200C030F0007008B100792C4308F000F1012B
:1028D2007108003A03196E2C792C7008213A0319F9
:1028E200452C033A0319582C013A0319792C792CF7
:1028F2002000400E890C0339013A0319812C822CE5
:10290200B72CD32CD0302100AF000030B000013002
:10291200B2000030B300C130F0007008B100D32C17
:102922008030F00070082100B10020004308F00060
:1029320070082100D000D32CCF302100AF0000302E
:10294200B0000130B2000030B3008130F0007008F6
:10295200B100D32C8030F00070082100B1002000BB
:102962004208F00070082100CF00D32C4108F0008B
:10297200F1017108003A0319BF2CD32C7008013AF7
:102982000319D32C033A0319832C013A03199D2C02
:102992000A3A0319D32C033A0319912C013A031969
:1029A200AB2CD32C080020006D0886008701413F24
:1029B200F5007508F200F301730821002C02031DD3
:1029C200E42C72082B020318E72CE82CEC2C2B08C1
:1029D200F2007208F5007508F200F3017208AB020A
:1029E2007308AC3BF401082D7408483E8600870149
:1029F2000108F20028088600870172088100013070
:102A0200F2007208A8070130F2007208F407750894
:102A12007402031C0D2D0E2DF52C2B082C0403190A
:102A2200132D142D4D2D20006908013EF2000030B7
:102A32006A3DF3007208860073088700083081003F
:102A42004830F2000030F300690886006A08870007
:102A520042317208C03F7308C13F6D08860087018A
:102A6200011B342D352D412D690886006A08870027
:102A720048308100690886006A08870081177D2D29
:102A8200690886006A0887000830810069088600A4
:102A92006A08870081177D2D20006908013EF20037
:102AA20000306A3DF3007208860073088700083020
:102AB20081004030F2000030F300690886006A08A5
:102AC200870042317208C03F7308C13F690886001F
:102AD2006A08870004308100690886006A08870056
:102AE20081172100AA1320006C08031D792D7A2D6D
:102AF2007D2D9E3199269431080020006E08031D19
:102B0200832D842D962D3D008E0192011630910069
:102B12009F3097007B3092008F2D8E158E1D922D47
:102B2200932D8E2D2000EE01EE0A6E03031D9A2DC9
:102B32009B2DA92D3D008E1A9F2DA02DA92D900110
:102B420092011214121602302000E2006208EE0016
:102B52003D00101DAD2DAE2DBB2D121DB12DB22D80
:102B6200BB2DFB302000E20062083D0090059A3147
:102B7200BC2295313D008E1CBF2DC02DC32D2000DF
:102B82001211B12E101CC62DC72DD82D121CCA2D04
:102B9200CB2DD82D93318B23953104302000E200C8
:102BA2006208EE00FE30E20062083D009005101E51
:102BB200DB2DDC2DE32D121EDF2DE02DE32D9A31CE
:102BC2009F2295313D00101FE72DE82D152E121F73
:102BD200EB2DEC2DFC2D73302000D0000030D10005
:102BE2000030D2000030D3000130D4000030D500D4
:102BF2009B31CF239531BF302000E20062083D00B7
:102C020090059A31662295312100470803190A2E50
:102C12000B2E0D2E0130C7024708031D112E122E56
:102C2200152E9E31992695313D00901E192E1A2E91
:102C3200212E921E1D2E1E2E212E9B3103239531F5
:102C42003D00901C252E262E3C2E921C292E2A2E2B
:102C52003C2EFF302000D0007F30D1000030D20067
:102C62000030D3000130D4000030D5009B31CF2397
:102C720095313D009301043020006E020318422E6C
:102C8200432E452E1211B12E3D00921D492E4A2E81
:102C9200AF2E2000E4013D00901D502E512EAF2E8C
:102CA2000F082000E2006208EF006F0CE200E20C65
:102CB200620C0F39E30063082100C900F7302000DD
:102CC200E20062083D00900520006F19692E6A2E0D
:102CD2007B2E21004908BE3E86008701010801398A
:102CE2002000E2000130E20601086206FE396206B7
:102CF20081008B2E21004908C03E86008701010811
:102D020001392000E2000130E20601086206FE39C4
:102D12006206810021004908031D902E912E952EF6
:102D22009C3194249531A42E72302000D0000030C2
:102D3200D1006F30D2000030D3000030D400D50073
:102D42009B31CF23953101302000E2006208E40775
:102D520004306402031CAE2EAF2E4C2E2000121142
:102D6200080020004203031DB72EB82ECE2E4008C5
:102D72001F39003A031DBE2EBF2ECE2E2100B117E1
:102D8200033020004106031DC72EC82ECC2E210081
:102D9200CB01CB0ACE2E2100CB0120004208031D1D
:102DA200D32ED42EFF2F40081F39023A031DDA2EEC
:102DB200DB2EFF2F44080F39003A0319E12EE22ED1
:102DC200FF2F44080F39D600023056020318EA2EAC
:102DD200EB2EFF2F20306E06031DF02EF12EFF2F5B
:102DE2002100B1172000C41BF72EF82E0C2F440827
:102DF2000F390907B83E86008701403FDB00413F9B
:102E0200DC0044080F39BE3E860087010108D60067
:102E12005608DA001F2F44080F390907653E86005D
:102E22008701403FDB00413FDC0044080F39C03ED0
:102E3200860087010108D6005608DA005A18222FA8
:102E4200232F2E2FFB30D600FF30D7005B0856050C
:102E5200DB005C085705DC00342F04305B04DB0028
:102E620000305C04DC00C41B372F382F432F44088A
:102E72000F390907B83E860087015B08C03F5C082E
:102E8200C13F4D2F44080F390907653E860087016F
:102E92005B08C03F5C08C13F03304106031D522F4F
:102EA200532F772F5B0886005C088700811F5A2FFB
:102EB2005B2F6C2FC41B5E2F5F2F662F44080F39C8
:102EC200BE3E8600870181146C2F44080F39C03E34
:102ED2008600870181145B0886005C088700011563
:102EE2005B0886005C0887008117FF2F04305B06B1
:102EF200DB0000305C06DC005B0886005C088700B3
:102F0200811F842F852FA22F7F30D6005B08860079
:102F12005C088700560881055B0886005C0887000C
:102F220001170530D0000030D1005C08D3005B08E7
:102F3200D2000230D4000030D5009B31CF2396312D
:102F4200A72F5B0886005C08870001170430200069
:102F52005B06DB0000305C06DC00DA18B12FB22F12
:102F6200BA2F5B0886005C088700811FB92FBA2F31
:102F7200E32FC41BBD2FBE2FC52F44080F39BE3E01
:102F8200860087018110CB2F44080F39C03E86008E
:102F9200870181103B30D6005B0886005C08870001
:102FA200560881050530D0000030D1005C08D300FE
:102FB2005B08D2000230D4000030D5009B31CF2311
:102FC2009631EB2F3B30D6005B0886005C08870009
:102FD20056088105200044080F39983ED600D701D3
:102FE2000E30D73D5608D8005708D900FE30D6001B
:102FF20058088600590887005608810508000534DC
:10300200013409340534A134013415340034253433
:103012000134353400344534013475340134953487
:10302200103405340934193401342934103481340C
:103032000234053401342534073446343B34013438
:103042007534043495340134653414340934393414
:10305200813442346534003495340134813401348E
:103062002634FF3400344634FF340034093430341B
:10307200093431340934323409343534753408347E
:10308200953404348134023406340034FF34093474
:10309200203495340134813402340A342134263404
:1030A2009534083491340234C03424340334503417
:1030B20000344F3400344B3400344B340034453444
:1030C20000344E34003420340034433400344F345E
:1030D20000344E34003454340034523400344F340B
:1030E20000344C3400344C3400344534003452340F
:1030F20000340934023422340034013401340034FF
:10310200C03432340934043400340034013403341A
:1031120000340034003409342134113401340034D1
:1031220001342234563400340734053481340334F4
:10313200403400340A341A340334483400344F34EF
:1031420000345234003449340034203400344334DF
:1031520000344F3400342E3400342C3400344C34D8
:103162000034543400344434003412340134003412
:10317200023400340034003408340D340F349234F5
:103182000034003401340134023403340134CE34C7
:1031920098349C34983456349834043403340934C3
:0631A20004347A34983475
:1034A200FC302000EB056B11EB1108002100BC0180
:1034B200BD011A30FD007D08F70001309A31DE228D
:1034C2009A319A3151229A31080001302100B40711
:1034D2000030B53D0030B63D0030B73D4A08031D0F
:1034E200732A742A812A0130F0007008C207420848
:1034F200031D7C2A7D2A812AFF30F0007008C20059
:103502000800F2008B2AFC3021009900903027003D
:103512009B009E2A7208F000F1017108003A03191B
:10352200932A9E2A7008003A0319842A013A031941
:103532009E2A033A03199E2A9E2A08003D0012156C
:10354200EF302000D60056083D0090058E14210071
:10355200CA01CA0AC20175302000D0000030D10071
:103562000030D2000030D3000030D400D5009B31AF
:10357200CF239A3108002100CA0174302000D00004
:103582000030D1000030D2000030D3000030D4002F
:10359200D5009B31CF239A313D008E101211D72ACC
:1035A200FB302000D60056083D0090051019DA2A9B
:1035B200DB2AD12A2100C2010800FC00771DE22A81
:1035C200E32AE82AF0017C08903107209A31F71C9F
:1035D200EB2AEC2AF22AF001F00A7C08903107204B
:1035E2009A317C08983EF800F9010E30F93D7808CE
:1035F200FA007908FB007A0886007B0887007708C2
:10360200810008003D00181C072B082B292B2000E5
:103612006D088600870180300106031D112B122BD5
:10362200272B650886006608870084300106031D83
:103632001B2B1C2B272B0C30F0006D0886008701FA
:10364200700881006D088600870181173D001810FF
:10365200DF30F000700890050800F8007108F600ED
:103662007008F5007808F4007408F9004F2B75080B
:103672008600760887000108F4007408F70001301C
:10368200F5070030F63D7708F400790886008701D7
:10369200740881000130F4007408F9070130F20265
:1036A2000030F33B720A031D5A2B730A031D5A2B77
:1036B2005B2B382B0800023021004D06031D622BC4
:1036C200632B672B9431D4249B31942BCD01480872
:1036D200031D6C2B6D2B932B20006908013EF60015
:1036E20000306A3DF70076088600770887000830C8
:1036F20081004030F6000030F700690886006A0851
:10370200870042317608C03F7708C13F69088600CA
:103712006A0887000C308100690886006A08870001
:103722008117942BC801080000309A3182229B3104
:1037320093318B239B31303021008C00F0308D008F
:10374200FF308E009513303024008C0070308D00D5
:1037520023008C018D018E01073021009504951103
:103762001512951215178B1705302000950095310B
:103772007E259B31203020006E020318C12BC22B04
:10378200C32BB82B3D008E1CC72BC82BC92BB82BC3
:103792009C310B249B31B82B8C310C2CE22B013049
:1037A2009A3182229B310A2C02309A3182229B3139
:1037B2000A2C9A3157229B310A2C94312F249B31A7
:1037C2000A2C20005108003A0319EB2B7F3A031907
:1037D200052C0A2C5008013A0319DA2B033A031973
:1037E2000A2C013A0319DE2B063A03190A2C773AFE
:1037F20003190A2C013A03190A2C073A0319D52B8B
:10380200013A0319D02B0A2C5008FF3A03190A2C4B
:103812000A2C0800203020006E020318112C122CF2
:10382200132C482C3D008E1C172C182C192C482CBC
:1038320021003C083D0403191F2C202C282C3C0895
:1038420086003D088700811B272C282C482CA0309D
:103852008C3123249C31F001F00AA030FA007A085E
:10386200F1000830FB007B08F20001309131422167
:103872009C3171082100BD007008BC008F316F2798
:103882009C319D31B6259C319E3126269C31080003
:103892002100CE012000EC012100C401C301C801B6
:1038A200CD017F302000DF006508860066088700B2
:1038B2005F08810504306506E50000306606E60013
:1038C2007F30DF0065088600660887005F08810593
:1038D20004306506E50000306606E6007F30DF0052
:1038E200690886006A0887005F0881052100B10126
:1038F200B201B301AA01AB01AC01903149209C3164
:1039020003302000D0000030D1000030D20000305F
:10391200D3000030D400D5009B31CF239C319231AB
:1039220049229C3108002D302000E000600821006F
:10393200C70020006F08FD39031DA02CA12CDD2C2F
:103942006F363F39E0000130E035FF3E031DA52C04
:103952006035203EE1006108ED006D08E900FF39A5
:10396200031D0030EA0004306906E90000306A06EF
:10397200EA006D0886008701010C890C0F390D3AA7
:10398200031DC42CC52CD92C6D08023E860087016C
:10399200403FF000413FF1000830F2000030F300F8
:1039A20040309B312E239C319C3149249C31E92C9F
:1039B2009B315C239C31E92CFD306F05E000043023
:1039C2006006031DE52CE62CE92C9F3186279C31ED
:1039D20008002100C401C30102304D06031DF22C70
:1039E200F32C192D20006908013EF30000306A3DD6
:1039F200F40073088600740887000830810048309C
:103A0200F3000030F400690886006A08870042313A
:103A12007308C03F7408C13F690886006A088700BE
:103A220048308100690886006A0887008117492D9D
:103A3200330820004702031D222D210032082000F6
:103A420046020318252D262D2D2D47082100B300EF
:103A5200200046082100B2009F310F279C314830D8
:103A6200F3000030F4002000650886006608870035
:103A720042317308C03F7408C13F6508860066087A
:103A82008700483081006508860066088700811734
:103A920008002000C801C901932D2100B1174B0372
:103AA200031D542D552DA72D2000C814A72D21002C
:103AB200B117A72D2100B117200044080F39003A91
:103AC2000319642D652DA72DC41B682D692D742D36
:103AD20044080F390907B83E86008701403FF200CB
:103AE200413FF3007E2D44080F390907653E8600E9
:103AF2008701403FF200413FF300720886007308DD
:103B02008700811F852D862DA72D720886007308D8
:103B12008700011D8D2D8E2DA72D0130F00070081C
:103B2200C800A72D40081F39F000F1017108003AC2
:103B320003199C2DA72D7008003A03194E2D013A46
:103B42000319582D033A03195B2DA72D2100B11F2C
:103B5200AB2DAC2DB52D4830AF000030B000311484
:103B62000230F0007008B200080020000D0D0D0DAB
:103B720001398F31F6279D31003A0319C12DC22D2B
:103B8200252E20000C0E01398F31F6279D31003A87
:103B92000319CC2DCD2D252E0B11053020009500BB
:103BA200F101F2010E2E0B1DD72DD82D0E2E013054
:103BB200F1070030F23D00307202FA30031971024F
:103BC200031CE42DE52D0A2E031020006B1D0314A7
:103BD2000318EC2DEF2D20006B15F12D20006B1139
:103BE200F101F20120000D0D0D0D01398F31F62783
:103BF2009D31003A0319FE2DFF2D0A2E20000C0ED6
:103C020001398F31F6279D31003A031D092E0A2E04
:103C1200F32D0B1105302000950020000D0D0D0D28
:103C220001398F31F6279D31003A0319192E1A2EC8
:103C3200252E20000C0E01398F31F6279D31003AD6
:103C4200031D242E252ED42D080020000D0D0D0D50
:103C520001398F31F6279E31003A0319312E322E67
:103C6200982E20000D0E890C01398F31F6279E31D6
:103C7200003A03193D2E3E2E982E0B1105302000DE
:103C82009500F101F201802E0B1D482E492E802E47
:103C92000130F1070030F23D00307202FA300319B0
:103CA2007102031C552E562E7C2E03102000EB1D94
:103CB200031403185D2E602E2000EB15622E2000E7
:103CC200EB11F101F20120000D0D0D0D01398F31C3
:103CD200F6279E31003A03196F2E702E7C2E20009B
:103CE2000D0E890C01398F31F6279E31003A031DE2
:103CF2007B2E7C2E642E0B110530200095002000B7
:103D02000D0D0D0D01398F31F6279E31003A031941
:103D12008B2E8C2E982E20000D0E890C01398F319E
:103D2200F6279E31003A031D972E982E452E080045
:103D320021004608031D9E2E9F2E0E2F0130F000FB
:103D42007008C6004508031DA72EA82E0E2F0130AD
:103D5200F0007008C50002304D06031DB12EB22ED0
:103D6200C52E200065088600660887004131810162
:103D7200650886006608870048308100650886006D
:103D82006608870081170E2F4D03031DC92ECA2E08
:103D92000E2FC8010830F00020006D0A860087014E
:103DA200700881004030F0000030F1006D08023EE2
:103DB200860087017008C03F7108C13F0430F000DF
:103DC2006D0886008701700881006D0886008701F2
:103DD20081172100C801C80A20006908013EF000CD
:103DE20000306A3DF10070088600710887000830D3
:103DF20081004030F0000030F100690886006A0856
:103E0200870042317008C03F7108C13F69088600CF
:103E12006A088700803081000E2F08000830F00009
:103E22007008F20000302100330208300319320218
:103E320003181C2F1D2F322F3208F0007008F200D9
:103E42004E08031D252F262F292FCE01CE0A322FF1
:103E52004E03031D2D2F2E2F322F0230F00070083B
:103E6200CE007208F000F1017008B2027108B33B93
:103E720020006508013EF0000030663DF100700848
:103E8200860071088700720881004830F0007008CF
:103E92002100CC0031184E2F4F2F802F652F2F0875
:103EA2008400300885000008F0004C088600870175
:103EB200700881000130AF070030B03D0130F000E2
:103EC2007008CC070130F2027208031D692F6A2FB5
:103ED200502F852F2F088400300885000008F0003D
:103EE2004C0886008701700881000130AF0700305E
:103EF200B03D0130F0007008CC070130F2027208C8
:103F0200031D842F852F6B2F080020006508860073
:103F1200660887000030011B0130F5000430650699
:103F2200E50000306606E60008306E06031D9A2F93
:103F32009B2FAF2F42087F393D00960016080319C8
:103F4200A32FA42FAA2F1030F30073082000EE0035
:103F5200AF2F0430F30073082000EE0021004D0360
:103F6200031DB42FB52FF92F4830F3000030F400B1
:103F72002000650886006608870042317308C03F4A
:103F82007408C13F9F310F279F31023021004E0636
:103F9200031DCC2FCD2FDA2F20006508860066087E
:103FA2008700043081006508860066088700811753
:103FB200FF2F7508031DDE2FDF2FEC2F2000650871
:103FC200860066088700483081006508860066081A
:103FD20087008117FF2F200065088600660887008A
:103FE2000830810065088600660887008117FF2F68
:0E3FF200AA1FFC2FFD2FFE2FAA13CD010800E1
:020000040001F9
:04000E00A40FCF1F4D
:00000001FF
