:041808008C310C2CE7
:101810007E148C317E10090020008C310F2CFC01CD
:10182000FD01A73084000030850039309A31FE2256
:101830008C31203084000130850040309A31FE2206
:101840008C31A03084000130850040309A31FE2276
:101850007E1020009C31A12C2000D801D90158080D
:10186000770786005908783D870081010130D80745
:101870000030D93D00305902073003195802031CCB
:101880002F2C77088600870142310108F03908388B
:1018900081000D0E890C01399B3104238C3120000D
:1018A000DA000E0C890C01399B3104238C312000A5
:1018B000DB000D0E890C890C01399B3104238C311E
:1018C0002000DC000D0E01399B3104238C312000F7
:1018D000DD000D0D0D0D01399B3104238C31F90014
:1018E000770886008701413101087906FE397906BB
:1018F000810021004919842D20000E0D0E0D0139A3
:101900009B3104238C31F900770886007808870022
:1019100001087906FE397906810020000E0E890C37
:10192000890C01399B3104238C31F900770886003A
:1019300078088700F90D01087906FD3979068100DC
:1019400020000E0CF900F90C790C01399B310423AD
:101950008C31FA007708860078088700FA0DFA0DB6
:1019600001087A06FB397A06810020000C0E890CEA
:1019700001399B3104238C31F900770886007808FF
:101980008700F90DF90DF90D01087906F739790687
:10199000810020000E0E890C01399B3104238C310B
:1019A000F9007708860078088700F90E01087906A3
:1019B000EF397906810020000E0E01399B31042396
:1019C0008C31F9007708860078088700F90EF90D48
:1019D00001087906DF397906810020000E0C0139F3
:1019E0009B3104238C31F900770886007808870042
:1019F000F90EF90DF90D01087906BF397906810054
:101A000020000C0E01399B3104238C31F90077083A
:101A1000860078088700F90CF90C010879067F39EF
:101A200079068100210049080339003A031D1A2E66
:101A300020005A080319272D5C080319272D770861
:101A40008600870142310108F0390738192E5A08FB
:101A50000319352D5D080319352D77088600870198
:101A600042310108F0390138192E5B080319432D62
:101A70005C080319432D770886008701423101086D
:101A8000F0390538192E5B080319512D5D0803192B
:101A9000512D77088600870142310108F03903385B
:101AA000192E5A0803195B2D7708860087014231E9
:101AB000F03081051A2E5D080319662D770886001F
:101AC000870142310108F0390238192E5B080319E9
:101AD000712D77088600870142310108F0390438FA
:101AE000192E5C0803197C2D770886008701423186
:101AF0000108F0390638192E77088600870142312F
:101B00000108F0390838192E491D1A2E20000E0D33
:101B10000E0D01399B3104238C31F90077088600C2
:101B20007808870001087906FE39790681002000CF
:101B30000E0E890C890C01399B3104238C31F9007C
:101B40007708860078088700F90D01087906FD39C5
:101B50007906810020000E0CF900F90C790C01398E
:101B60009B3104238C31FA007708860078088700BF
:101B7000FA0DFA0D01087A06FB397A068100200079
:101B80000E0C01399B3104238C31F9007708860053
:101B900087014131F90D01087906FD397906810087
:101BA00020000C0E01399B3104238C31F900770899
:101BB000860087014131F90DF90D01087906FB39DD
:101BC0007906810020000E0E890C01399B31042317
:101BD0008C31F9007708860087014131F90EF90D43
:101BE00001087906DF397906810020000C0E890C86
:101BF00001399B3104238C31F90077088600870175
:101C00004131F90E01087906EF397906810020008B
:101C10000E0E01399B3104238C31F90077088600C0
:101C200087014131F90DF90DF90D01087906F739F0
:101C30007906810077088600870143318030810072
:101C400077088600870144318030810021004908EF
:101C50000339013A031D512E20005C080319362E6A
:101C6000770886008701433181013F2E5D08031903
:101C70003F2E7708860087014331FF3081005A08E4
:101C80000319482E77088600870144318101512EBF
:101C90005B080319512E7708860087014431FF3015
:101CA0008100770886008701453180308100770800
:101CB0008600870146318030810021004919812E3C
:101CC00020000D0D0D0D01399B3104238C31003A9C
:101CD0000319812E20000E0C01399B3104238C3115
:101CE000003A0319812E7808F4007708F3000C30CD
:101CF0009B3118238C31F500F601F60A8F3142270B
:101D00008C31770886008701453180308100770863
:101D100086008701463180308100FB2E20005A0862
:101D200003199D2E5C0803199D2E770886008701F4
:101D300042310108F0390738F92E5A080319AB2E41
:101D40005D080319AB2E7708860087014231010830
:101D5000F0390138F92E5B080319B92E5C08031914
:101D6000B92E77088600870142310108F03905381D
:101D7000F92E5B080319C72E5D080319C72E7708D3
:101D80008600870142310108F0390338F92E5A08DC
:101D90000319D12E7708860087014231F030810582
:101DA000082F5D080319DC2E770886008701423171
:101DB0000108F0390238F92E5B080319E72E77087D
:101DC0008600870142310108F0390438F92E5C0899
:101DD0000319F22E77088600870142310108F03995
:101DE0000638F92E77088600870142310108F0395C
:101DF00008388100082F210049080339003A0319E7
:101E0000082F013A03198E2E033A0319082F082FC1
:101E1000210049080339023A031D080020005C082C
:101E2000031D202F5D08031D172F8030182FFF3052
:101E3000D2000030D3005308D1005208D000222F26
:101E4000D001D10177088600870145315008810013
:101E50005A08031D392F5B08031D302F8030312FA6
:101E6000FF30D6000030D7005708D5005608D40000
:101E70003B2FD401D50177088600870146315408ED
:101E800081000800CF2F7308860074088700760849
:101E900001390110031D011408007308860074083D
:101EA0008700760801398110031D8114080073082A
:101EB000860074088700760801390111031D011599
:101EC00008007308860074088700760801398111BC
:101ED000031D8115080073088600740887007608C2
:101EE00001390112031D01160800730886007408E9
:101EF0008700760801398112031D811608007308D6
:101F0000860074088700760801390113031D011744
:101F10000800730886007408870076080139811369
:101F2000031D811708007308860087014131760878
:101F300001390110031D0114080073088600870190
:101F40004131760801398110031D8114080073089E
:101F5000860087014131760801390111031D011501
:101F60000800730886008701413176080139811124
:101F7000031D81150800730886008701413176082A
:101F800001390112031D011608007308860087013C
:101F90004131760801398112031D81160800750848
:101FA000013A0319432F033A03194D2F013A03193C
:101FB000572F073A0319612F013A03196B2F033A80
:101FC0000319752F013A03197F2F0F3A0319892F2F
:101FD000013A0319932F033A03199D2F013A03196C
:101FE000A72F073A0319B12F013A0319BB2F033A60
:0E1FF0000319C52FFB2F0800FC01FD0108009E
:10200000F8010130F202720A03192E2870088600C6
:10201000710887000108F8060130F0070030F13D33
:10202000F701F81B1A287808F300F4017335F5005E
:10203000740D24287808F300F401F335F40D07300B
:102040007306F50000307406F6007508F8000130DC
:10205000F7070830770203180128112878080800CC
:1020600020000D0D0D0D01399B3104239031003AF4
:102070000319080020000C0E01399B310423903114
:10208000003A031908000B11053020009500F101FA
:10209000F20120000D0D0D0D01399B31042390310B
:1020A000003A0319080020000C0E01399B3104236B
:1020B0009031003A031908000B1D49280130F1073F
:1020C0000030F23D00307202FA3003197102031C35
:1020D0008A2803102100491D0314031C72282100C3
:1020E0004915742821004911F101F20180282000CE
:1020F0000C0E01399B3104239031003A03198A28D0
:1021000020000D0D0D0D01399B3104239031003A53
:10211000031D77280B110530200095004928210068
:10212000CC01CB0102305606031DBC2845088600B1
:10213000460887004131083081004830F300003004
:10214000F400FF307305F5007F307405F600450894
:1021500086004608870042317508C03F7608C13FB7
:1021600045088600460887004830810045088600FB
:102170004608870081170800320820004702031D27
:10218000C52821003108200046020318CE28470840
:102190002100B200200046082100B1009E319A269D
:1021A0004830F3000030F400FF307305F5007F3055
:1021B0007405F60021003708860038088700423190
:1021C0007508C03F7608C13F370886003808870089
:1021D00048308100370886003808870081170800DA
:1021E0002000E801530854040319FF285208860010
:1021F000013087000103031DFF280130E800540867
:10220000D60068085302D500031CD60300305602DE
:102210000F30031955020318132968085302E5000B
:102220000030543B16290E30E5000030E60065080A
:10223000E700E9016708690203182F296908573E7A
:102240008600870168085207D50055086907840091
:1022500001308500000881000130E9071A2967086C
:10226000EA000E306A0203184B296A08573E8600BE
:1022700087010130D5000230D6006A085507840076
:102280000030563D8500000881000130EA070E301D
:102290006A02031C35295730D0000030D1009D312F
:1022A000852508002000400E890C0339003A031DE3
:1022B000080093292100B0170830D9000800923196
:1022C000872208009131B7210800DF302100AE00DD
:1022D0000030AF0030140130B100B01708009F315A
:1022E000A32708009631CA2608004408DA3E2100D8
:1022F000AE00003069292100B01720004408DA3E02
:102300008600870142088100080002302100E000B9
:102310000030E1000030E200E3000030E400E500BE
:102320009C31D62408004108003A03196F29013A6C
:1023300003197229023A03197229063A03195A2914
:10234000033A03195F29013A031985290F3A031942
:102350006529013A03196229033A03197529013ADB
:1023600003197B29073A0319B629B6290800210069
:10237000B01799302000ED00EE016D0886000E3098
:10238000870081010130ED070130EE076E08031967
:10239000BD292030F0000030F100F2002030F300C1
:1023A0000030F4009B31372391313D000E1720009F
:1023B000EF016F08C33E8600870181016F08C13EAF
:1023C0008600870181010130EF0702306F02031C94
:1023D000D929DA30F0000030F100F2000230F300C9
:1023E0000030F4009B31372391313D000E1328302B
:1023F0002100B7000030B8002030D8005808C500D0
:10240000C601200042082100DF005F08031D0B2ADF
:102410001030D90008000130E0000030E100DF306A
:10242000E2000030E3000130E4000030E5009C31C0
:10243000D62420302100D90008002100370886006A
:1024400038088700010E890C890C0139F700043027
:102450003706B70000303806B80008305906031DAB
:102460003E2A200042087F393D00960016080319D5
:102470003B2A10303C2A04302100D9005603031DAA
:10248000832A4830F3000030F400FF307305F50074
:102490007F307405F600370886003808870042311F
:1024A0007508C03F7608C13F9E319A2692310230AE
:1024B00021005706031D682A370886003808870060
:1024C000043081003708860038088700811708002B
:1024D0007708031D772A37088600380887004830B8
:1024E0008100370886003808870081170800370800
:1024F00086003808870008308100370886003808D1
:10250000870081170800A91BA913D6010800803095
:1025100020004006031D0800C0302100B000E52A5D
:10252000DD302100AE009830AF001230B100003035
:10253000B20008004208031DC12A4208F000F10160
:10254000F035F10DF930700784001830713D803896
:102550008500003F2100AE00013FAF0002302E0792
:1025600084002F080318013E85000008B1000330E5
:102570002E0784002F080318013E85000008B200D2
:1025800008002100B0010800033042020318C12AEC
:102590004208F000F101F035F10DEF3070078400D2
:1025A0001830713D80388500003F2100AE00013FAA
:1025B000AF002E0884002F0885000008F000F1010C
:1025C0007008B1007108B200080020004308013A09
:1025D0000319902A033A03199A2A013A0319C42AC3
:1025E000C12A080020000D0D0D0D01399B31042377
:1025F0009231003A0319080020000E0C01399B317A
:1026000004239231003A031908000B110530200011
:102610009500F101F20120000D0D0D0D01399B31E6
:1026200004239231003A0319080020000E0C0139EE
:102630009B3104239231003A031908000B1D0B2B28
:102640000130F1070030F23D00307202FA30031918
:1026500071020318382B5B2B4908FC390138332BE6
:102660004908FC390238C900452BFC30C905452B07
:10267000210049080339003A03192C2B013A0319A8
:10268000302B033A0319352B452BF101F201512B65
:1026900020000E0C01399B3104239231003A0319BA
:1026A0005B2B20000D0D0D0D01399B310423923160
:1026B000003A031D482B0B110530200095000B2B11
:1026C0003D000E122100B01B9D2BA91F722B023062
:1026D000D6004B08031D6E2B90318F202100CD01B9
:1026E000CE010800450886004608870041310830C1
:1026F00081004030F7000030F800450886004608A9
:10270000870042317708C03F7808C13F45088600FE
:10271000460887000C30810045088600460887007F
:102720008117370886003808870004308100370891
:10273000860038088700811708002000C01FB22BD0
:1027400001302100D6004C08031DA92B90318F20A9
:1027500093312100CD01CE014F08031D08009F31A8
:102760004727080002302100D600450886004608A9
:1027700087004131083081004030F7000030F80018
:10278000450886004608870042317708C03F780830
:10279000C13F45088600460887000430810045088F
:1027A0008600460887008117AA2BF80070080319D5
:1027B000E12B7835B73E86008701403FF900413F65
:1027C000E82B7835BB3E86008701403FF900413F4A
:1027D000FA0079087A04031DF02BF001F1010800DA
:1027E000FF307105F4007F307205F500790886002E
:1027F0007A08870042317408C03F7508C13F7908E4
:1028000086007A08870041317308810079088600C4
:102810007A08870040308105790886007A088700A9
:102820008115790886007A088700811770080319D6
:10283000302C7835B73E86008701403FF400413F99
:10284000F50004307406F60000307506F7007835A0
:10285000B73E860087017608C03F7708C13F462C07
:102860007835BB3E86008701403FF400413FF500CC
:1028700004307406F60000307506F7007835BB3E6C
:10288000860087017608C03F7708C13F7A08F100CB
:102890007908F0000800210012113D009301900119
:1028A00098019930F100F201710886000E3087001E
:1028B00081010130F1070130F20772080319542C2D
:1028C00016303D0091009F3097007B309200F3015D
:1028D0007308F0000230F035890B6B2C7008203E35
:1028E000860087010030C03F0030C13FC23FC33F78
:1028F0000130F30708307302031C682C3D000E17EB
:1029000096010E120E13F73090052100B001A901B7
:10291000AA01AB013D009019832C01302100CE00AB
:102920000130CD00CC01CB01D301F3017335B73EAB
:10293000860087010030C03FC13F7335BB3E860033
:1029400087010030C03FC13F7308C33E8600870146
:1029500081017308C13E8600870181010130F307C0
:1029600002307302031C962C28302100B70000307F
:10297000B80016303D00980000302000A300403021
:10298000A2000830A1000430A000A0172100DF0140
:102990000030B6000030B5000030B4000030B300A5
:1029A000CA01D90108002100580A860087010108E0
:1029B000F7007708F200F30173082B02031DE22CE5
:1029C00072082A020318E62C2A08F7007708F2009A
:1029D000F3017208AA027308AB3BF601770876028E
:1029E0000318032D27088600280887007608483E2C
:1029F00084008501000881000130A7070030A83D50
:102A00000130F607EE2C2A082B0403193E2D450849
:102A10008600460887004131083081004830F200C6
:102A20000030F300FF307205F4007F307305F500CD
:102A3000450886004608870042317408C03F750883
:102A4000C13F580886008701011B322D45088600CA
:102A50004608870048308100450886004608870000
:102A60008117080045088600460887000830810065
:102A7000450886004608870081170800450886003B
:102A8000460887004131083081004030F2000030B4
:102A9000F300450886004608870042317208C03FAF
:102AA0007308C13F4508860046088700043081004E
:102AB00045088600460887008117A9134F08031DA3
:102AC00008009F3147270800200040081F39013ABD
:102AD000031D0800023044020318080006304106B6
:102AE0000319A32DAE2D21005F03031DAE2D200081
:102AF0004408031D872D90302100AE009830AF00B0
:102B00000930B1000030B200C030B000AE2D440337
:102B1000031DAE2DAB302100AE0098307F2D440850
:102B2000031D992D00302100AE009830AF004A30CF
:102B3000812D4403031DAE2DC8302100AE00983016
:102B4000AF001530812D4308213A0319732D033A44
:102B500003198F2D013A0319AE2DAE2D2000400E22
:102B6000890C0339013A031D0800E12D9E31ED2641
:102B70000800DD302100AE000030AF000130B100B0
:102B80000030B200C130B000080080302100B00039
:102B9000200043082100DD000800DC302100AE00E9
:102BA0000030AF000130B1000030B2008130B00021
:102BB000080080302100B000200042082100DC0025
:102BC00008004108013A0319F52D033A0319B92DFC
:102BD000013A0319CD2D0A3A0319B62D033A031908
:102BE000C52D013A0319D92DF52D080021005908EA
:102BF000031D0A2E3D008E019201163091009F3078
:102C000097007B3092008E19072E8E15032E01300F
:102C10002100D9005903031D172E3D008E1A172ECF
:102C2000900192011214121602302100D9003D00C9
:102C30001019121D202EFB3090059B3192239531E7
:102C40003D008E1C262E2000121108001018121CA8
:102C5000322E94314B24953104302100D900FE30BE
:102C60003D009005101A121E382E9B314A239531D3
:102C70003D00101F5E2E121F4C2E73302100E0000D
:102C80000030E1000030E200E3000130E4000030F9
:102C9000E5009C31D6249531BF303D0090059B3135
:102CA00025239531210050080319582E0130D002F8
:102CB0005008031D5E2E9F31472795313D00901A25
:102CC000921E652E9B31CC2395313D009018921CAD
:102CD0007A2EFF302100E0007F30E1000030E2007A
:102CE000E3000130E4000030E5009C31D62495314A
:102CF0003D0093010430210059020318822E200068
:102D0000121108003D00921DC72E2100ED01C42EB6
:102D10000F082100DE005E0CEC00EC0C6C0C0F398F
:102D2000D200F7303D00900521005E199A2E52081E
:102D3000C13E9C2E5208C33E86008701010801391E
:102D4000EC000130EC0601086C06FE396C068100CF
:102D50005208031DAF2E9E3101269531BD2E7230D3
:102D6000E0000030E100DE30E2000030E30000303F
:102D7000E400E5009C31D624953101302100ED07B7
:102D800004306D020318C72E3D009019882E2000D4
:102D90001211080020004203031DE02E40081F39D5
:102DA000003A031DE02E2100B01703302000410639
:102DB000031DDE2E01302100D400E02E2100D401BD
:102DC00020004208031D080040081F39023A031D75
:102DD000080044080F39003A0319080044080F3965
:102DE000ED0002306D020318080020302100590662
:102DF000031D0800B0172000C41B132F44080F390F
:102E0000ED000130ED35890B022F6D08BB3E8600C9
:102E10008701403F2100E800413FE90020004408CD
:102E20000F39C13E272F44080F39ED000130ED3531
:102E3000890B172F6D08B73E86008701403F2100A0
:102E4000E800413FE900200044080F39C33E8600F6
:102E5000870101082100E70067183E2FFB302000A2
:102E6000ED00FF30EE002100680820006D05210014
:102E7000E800690820006E052100432F0430680433
:102E8000E80000306904E9002000C41B582F440802
:102E90000F39ED000130ED35890B4B2F6D08BB3E2E
:102EA0008600870121006808C03F6908C13F682F7C
:102EB00044080F39ED000130ED35890B5C2F6D08AA
:102EC000B73E8600870121006808C03F6908C13FFE
:102ED000033020004106031D8D2F21006808860065
:102EE00069088700811F812F2000C41B7B2F4408A5
:102EF0000F39C13E7E2F44080F39C33E860087013B
:102F00008114210068088600690887000115680897
:102F100086006908870081170800043021006806D0
:102F2000E80000306906E900680886006908870043
:102F3000811FB52F68088600690887007F308105EA
:102F4000680886006908870001170530E000003036
:102F5000E1006908E3006808E2000230E4000030A4
:102F6000E5009C31D6249631BA2F6808860069089E
:102F700087000117043021006806E8000030690668
:102F8000E900E718C92F6808860069088700811FD3
:102F9000ED2F2000C41BD02F44080F39C13ED32F82
:102FA00044080F39C33E860087018110210068085C
:102FB0008600690887003B3081050530E00000305D
:102FC000E1006908E3006808E2000230E400003034
:102FD000E5009C31D6249631F32F680886006908F5
:102FE00087003B308105200044080F39983E2100BE
:102FF000E600660886000E308700FE308105080076
:103000000534013409340534A13401341534003455
:1030100025340134353400344534013475340134F9
:1030200095340E34053409341934013429340E34FE
:10303000813402349534023481340134053401344E
:103040002534073446343B34013475340434953424
:1030500001346534143409343934813442346534EC
:10306000003495340134813401342634FF34003483
:103070004634FF34003409343034093431340934EF
:103080003234093435347534083495340434813499
:103090000234C034343403344D34003469340034E1
:1030A00063340034723400346F34003463340034D9
:1030B000683400346934003470340034203400340F
:1030C00054340034653400346334003468340034DC
:1030D0006E3400346F3400346C3400346F34003498
:1030E00067340034793400342034003449340034F7
:1030F0006E340034633400342E3400340934023426
:1031000034340034023401340034C03432340934ED
:103110000434003400340134033400340034003407
:1031200009342134113401340034013422344A3456
:10313000003407340534813403344034003401341E
:10314000093404340134003400340334FF34FF34D0
:103150000034093421341134013400340134223470
:1031600015340034163403345334003453340034EB
:103170002034003447340034613400346D3400347A
:103180006534003470340034613400346434003405
:1031900006340034FF3409340134A13401341534C9
:1031A00000342634FF340034753408349534143434
:1031B00009340134B1340234C034123401340034DF
:1031C00002340034003400340834D83404346C340D
:1031D000E734013400340134023400340134F5346E
:1031E00098344A349834B23498340434033409346B
:0631F00004347E34983423
:1035DC002300951108009A31EE220800FC302100DE
:1035EC00C905491108007108FC007008FD000800AD
:1035FC00640080010131890BFF2A0034F00070084F
:10360C00031D0A2B01300800003008002100BF0107
:10361C00C0011A30F60001309B3179239B319A316D
:10362C00F4220800F2000130F0000230F1007208C0
:10363C00700786000030713D8700010808000130DA
:10364C002100B3070030B43DB53DB63D5308031D12
:10365C0008000130CA074A08031D0800FF30CA00E1
:10366C0008007008F5000130F3020030F43B730AD7
:10367C000319740A0319080075088600870171087C
:10368C0081000130F507392B3D001215EF30900504
:10369C008E1401302100D300CA017530E0000030D7
:1036AC00E1000030E200E3000030E400E5009C3172
:1036BC00D62408000B0D0B0D0139F2008B132300DF
:1036CC001513710892007008910015140000000089
:1036DC00720C031C8B1303188B1723001408F100B6
:1036EC001308F0000800F800761D812BF001780813
:1036FC009D310E259B31F61C882BF001F00A7808C1
:10370C009D310E257808983EF700770886000E301C
:10371C0087007608810008002100D3017430E00096
:10372C000030E1000030E200E3000030E400E5008E
:10373C009C31D6249B313D008E101211101DA92BEB
:10374C00FB309005A42B2100CA010800F2009A312D
:10375C00F1229B31B82BFC302100990090302700CE
:10376C009B0008007208F000F1017108003A03197F
:10377C00C02BCB2B7008003A0319B12B013A03195B
:10378C00CB2B033A0319CB2BCB2B08003D00181C79
:10379C00EA2B210058088600870180300106031DA2
:1037AC00E82B370886003808870084300106031D93
:1037BC00E82B5808860087010C30810058088600D9
:1037CC00870181173D001810DF3090050800730841
:1037DC00FA007208F9007108F8007008F70001305F
:1037EC00F4020030F53B740A0319750A031908003A
:1037FC00790886007A0887000108F6000130F9077D
:10380C000030FA3D7708860078088700760881003A
:10381C000130F7070030F83DF52B02302100560639
:10382C00031D1B2C9431D3240800D6015108031D11
:10383C003F2C45088600460887004131083081003E
:10384C004030F8000030F900450886004608870033
:10385C0042317808C03F7908C13F450886004608C8
:10386C0087000C30810045088600460887008117C8
:10387C000800D10108007008860001308700013073
:10388C008100F50175087007F100710A860001309E
:10389C0087000130F2000230F300750872078400D3
:1038AC000030733D8500000881000130F5070E30B3
:1038BC007502031C482C0F30F40070087407860046
:1038CC000130870081010130F407153074020318B0
:1038DC000800632C203021005902031C08003D0015
:1038EC008E18080021003F0840040319832C3F0860
:1038FC00860040088700811B0800A030F7000030CC
:10390C00F8008C312C249C31F001F00AA030F1002D
:10391C000030F2000730F30001309331D5239C3195
:10392C0071082100C0007008BF009231F2229C3156
:10393C0090313020080000309B31AC239C31943105
:10394C004B249C319E314D269C31303021008C0013
:10395C00F0308D00FF308E009513303024008C0039
:10396C0070308D0023008C018D018E0107302100F9
:10397C00950495111512951215178B17053020000B
:10398C0095009531F6259C31203021005902031CFD
:10399C00C72C3D008E18C72C9C3170249C31C72C31
:1039AC00E52C01309B31AC23080002309B31AC2359
:1039BC0008009B310C230800953164250800210078
:1039CC006108003A0319EE2C7F3A0319082D0D2DCE
:1039DC006008013A0319DF2C033A03190D2D013A43
:1039EC000319E22C063A03190D2D773A03190D2D04
:1039FC00013A03190D2D073A0319DB2C013A03196F
:103A0C00D72C0D2D6008FF3A03190D2D0D2D080034
:103A1C00F4002030F5007008F1000130F135890B0D
:103A2C00142D7408F2000230F235890B1A2D72082D
:103A3C007107F3000230F335890B212D7308F5075C
:103A4C0075088600870181137008031D362D7435A7
:103A5C00BB3E860087017508C03F0030C13F3E2D3C
:103A6C007435B73E860087017508C03F0030C13FF2
:103A7C0075088600870101137508043E86008701CE
:103A8C00011708002030F7000B0D0B0D0139F60063
:103A9C0023001513151595160130F702770A031933
:103AAC00822D71089200700891000130F0070030EF
:103ABC00F13D7208860073088700403FF400413FD7
:103ACC00F5007508940072088600730887000108D9
:103ADC0093000230F2070030F33D7708031995127A
:103AEC008B137D0896007C0896009514760C031CAD
:103AFC008B1303188B17522D151115080800013064
:103B0C00F0000230F10020005108F3005008F200E0
:103B1C000E30F4000030F5009B31ED239D31013067
:103B2C00240080000030F0000230F1000F30F20071
:103B3C00903100209D3124008F000B0D0B0D0139AD
:103B4C00FB008B135530F000AA30F1009A31F922AA
:103B5C009D318030F0001F30F1000030F200023057
:103B6C00F3009D3148259D318F31FC277B0C031CC4
:103B7C008B1303188B1708002100D701CF01CC0140
:103B8C00CB01D101D60137088600380887007F3079
:103B9C00810504303706B70000303806B800370806
:103BAC008600380887007F30810504303706B7005F
:103BBC0000303806B80045088600460887007F307C
:103BCC008105B001B101B201A901AA01AB0191318A
:103BDC0052219D3103302100E0000030E100003023
:103BEC00E200E3000030E400E5009C31D6249D3176
:103BFC009331602308002D302100D0005E08FD3980
:103C0C00031D432E5E08EA000130EA36890B0B2EA9
:103C1C006A083F39EB000230EB35890B122E6B082A
:103C2C00203ED8005808C500C60104304506C50022
:103C3C0000304606C600580886008701010C890C26
:103C4C000F390D3A031D402E4030F0000030F100CA
:103C5C005808023E86008701403FF200413FF300C6
:103C6C000830F4000030F5009B31ED239E319D317E
:103C7C00C22508009C3113240800FD305E05EA00C3
:103C8C0004306A06031D080092311D220800003022
:103C9C00F900FA01FB0179087A07860002308700E7
:103CAC007A08803EF0001F307B3DF1009B31602391
:103CBC009E31700881000130FA070030FB3D003066
:103CCC007B02103003197A02031C512E24000003CE
:103CDC00031D7D2E0030F0000230F1000F30F20099
:103CEC00903100209E3124000F060319080001308A
:103CFC0081000230820003308300043084000530E0
:103D0C0085000630860007308700083088000A30AE
:103D1C0089000B308A000E308B000D308C000C307B
:103D2C008D0009308E0008000830F20000302100B0
:103D3C0032020830031931020318B02E3108F20098
:103D4C005708031DAB2E0130AF2E5703031DB02EA9
:103D5C000230D7007208F000F1017008B10271084E
:103D6C00B23B370886003808870041317208810061
:103D7C004830D500301CD42EE92E5508860087011A
:103D8C002E0884002F088500000881000130AE0742
:103D9C000030AF3D0130D5070130F2027208031933
:103DAC000800C32E5508860087012E0884002F08B2
:103DBC008500000881000130AE070030AF3D0130B6
:103DCC00D5070130F202720803190800D82E200022
:103DDC004208EB004408EC006C08031D142F023061
:103DEC006B06031D142F2100470848040319042FE8
:103DFC004708860048088700811B0800F001A030A6
:103E0C00F1000130F2004030F30001309331D52342
:103E1C0071082100C8007008C70008006C03031D5E
:103E2C0008006B03031D080009304106031D342FE5
:103E3C0020302100A7000130A8004030AA0000303B
:103E4C00AB00AC01AD01A91720302000D2004030EE
:103E5C00D3000030D4009031F02008004103031D42
:103E6C0008002030F0009C31412420302100AE00AD
:103E7C000130AF004030B1000030B200C130B000B2
:103E8C00080021004E08031D08000130CE004D082B
:103E9C00031D08000130CD0002305606031D682FAB
:103EAC0037088600380887004131810137088600C1
:103EBC0038088700483081003708860038088700AA
:103ECC00811708005603031D0800D101580A86000B
:103EDC008701083081004030F0000030F1005808B4
:103EEC00023E860087017008C03F7108C13F580828
:103EFC0086008701043081005808860087018117ED
:103F0C000130D10045088600460887004131083051
:103F1C0081004030F0000030F10045088600460872
:103F2C00870042317008C03F7108C13F45088600C8
:103F3C00460887008030810008002000C801C901B4
:103F4C00E92F2100B0175403031DF52F2000C814CE
:103F5C00F52F2100B017F52F2100B01720004408D1
:103F6C000F39003A0319F52FC41BCB2F44080F3916
:103F7C00F0000130F035890BC02F7008BB3E860075
:103F8C008701403FF100413FD92F44080F39F00021
:103F9C000130F035890BCF2F7008B73E86008701B2
:103FAC00403FF100413FF200710886007208870023
:103FBC00811FF52F7108860072088700011DF52FEF
:103FCC000130C800F52F40081F39003A0319A72FFC
:103FDC00013A0319AF2F033A0319B22FF52F210021
:103FEC00B01F08004830AE000030AF003014023073
:043FFC00B100080008
:020000040001F9
:08000000FF3FFF3FFF3FFF3F00
:04000E00A40FCF1F4D
:00000001FF
