:041808008C310C2CE7
:101810007E148C317E10090020008C310F2CFC01CD
:10182000FD01A73084000030850037309B31D02384
:101830008C31203084000130850040309B31D02332
:101840008C31A03084000130850040309B31D023A2
:101850008C31203084000230850040309B31D02311
:101860008C31A03084000230850040309B31D02381
:101870007E1020009D31E32D7908F1007808F000FA
:101880000030F200F3000730F4000030F5009C3126
:1018900026248C3120000D0E890C01399B31D62372
:1018A0008C312000DC000E0C890C01399B31D623D1
:1018B0008C312000DD000D0E890C890C01399B3123
:1018C000D6238C312000DE000D0E01399B31D6234A
:1018D0008C312000DF00DB015B08923134228C3137
:1018E000003A0319A02C0030210047190130F00004
:1018F00020005B089C31A5248C312000DA005A08B6
:101900000319A02C0F305A020318A02C5A08FE3ECF
:10191000840098300318013E85000008D0005A0862
:10192000EF3E840098300318013E85000008D10086
:101930005008780786000030793D870051088104FF
:1019400001302000DB0709305B02031C6C2C780897
:101950008600870142310108F03908388100780893
:101960008600870143318030810078088600870136
:10197000443180308100780886008701453180300D
:101980008100780886008701463180308100962DDD
:1019900020005E080319D22C7808860087014331A5
:1019A0008101DB2C5F080319DB2C78088600870196
:1019B0004331FF3081005C080319E42C780886006D
:1019C00087014431810108005D0803190800780887
:1019D000860087014431FF308100080020005C0848
:1019E0000319FE2C5E080319FE2C78088600870177
:1019F00042310108F0390738810008005C080319FA
:101A00000D2D5F0803190D2D7808860087014231DE
:101A10000108F0390138810008005D0803191C2D08
:101A20005E0803191C2D78088600870142310108E1
:101A3000F0390538810008005D0803192B2D5F0877
:101A400003192B2D78088600870142310108F039EF
:101A50000338810008005C080319352D78088600DA
:101A600087014231F030810508005F080319412DDC
:101A700078088600870142310108F0390238810078
:101A800008005D0803194D2D780886008701423152
:101A90000108F0390438810008005E080319592D47
:101AA00078088600870142310108F0390638810044
:101AB000080078088600870142310108F0390838AB
:101AC0008100080020005E08031D742D5F08031DBF
:101AD0006B2D80306C2DFF30D4000030D5005508C0
:101AE000D3005408D200762DD201D30178088600A5
:101AF00087014531520881005C08031D8D2D5D086A
:101B0000031D842D8030852DFF30D8000030D90092
:101B10005908D7005808D6008F2DD601D70178086C
:101B200086008701463156088100080021004708D9
:101B30000339003A0319C82C013A0319EE2C033A71
:101B40000319622DA32D080020004203031DBA2DA6
:101B500040081F39003A031DBA2D2100B017033089
:101B600020004106031DB82D01302100D200BA2DFE
:101B70002100D20120004208031D080040081F393F
:101B8000023A031D080044080F39003A03190800FF
:101B900044080F39F9000230790203180800203098
:101BA00021005706031D0800B0172000C41BEB2DB1
:101BB00044080F39F9000130F935890BDC2D79081B
:101BC000BB3E86008701403FD800413FD900440812
:101BD0000F39C13EFD2D44080F39F9000130F935A8
:101BE000890BEF2D7908B73E86008701403FD8006A
:101BF000413FD90044080F39C33E860087010108E0
:101C0000D70057180D2EFB30F900FF30FA005808A6
:101C10007905D80059087A05122E04305804D800E6
:101C200000305904D900C41B252E44080F39F9008F
:101C30000130F935890B192E7908BB3E86008701E2
:101C40005808C03F5908C13F342E44080F39F900E5
:101C50000130F935890B292E7908B73E86008701B6
:101C60005808C03F5908C13F03304106031D552E97
:101C70005808860059088700811F4A2EC41B442E2D
:101C800044080F39C13E472E44080F39C33E860031
:101C900087018114580886005908870001155808E3
:101CA0008600590887008117080004305806D800BC
:101CB00000305906D9005808860059088700811F4E
:101CC0007C2E58088600590887007F308105580807
:101CD00086005908870001170530D0000030D10078
:101CE0005908D3005808D2000230D4000030D50083
:101CF0009E3118268D31812E58088600590887009C
:101D00000117043020005806D80000305906D900C9
:101D1000D718902E5808860059088700811FB22EC8
:101D2000C41B962E44080F39C13E992E44080F3922
:101D3000C33E860087018110580886005908870035
:101D40003B3081050530D0000030D1005908D30068
:101D50005808D2000230D4000030D5009E31182639
:101D60008D31B82E58088600590887003B30810510
:101D7000200044080F39983ED600560886000E30E1
:101D80008700FE308105080021005708031DD82E6A
:101D90003D008E019201163091009F3097007B30FC
:101DA00092008E19D52E8E15D12E01302100D7002C
:101DB0005703031DE52E3D008E1AE52E900192017A
:101DC0001214121602302100D7003D001019121D06
:101DD000EE2EFB3090059C318A248E313D008E1C06
:101DE000F42E2000121108001018121C002F95313B
:101DF0009F258E3104302100D700FE303D00900534
:101E0000101A121E062F9C310F248E313D00101F18
:101E10002C2F121F1A2F73302000D0000030D10059
:101E20000030D200D3000130D4000030D5009E3104
:101E300018268E31BF303D0090059B31FD238E3139
:101E400021004E080319262F0130CE024E08031D33
:101E50002C2F9031BD208E313D00901A921E332FD1
:101E60009C31E1248E313D009018921C482FFF30A8
:101E70002000D0007F30D1000030D200D3000130EC
:101E8000D4000030D5009E3118268E313D009301DC
:101E90000430210057020318502F200012110800AF
:101EA0003D00921D962F2100E501932F0F08210080
:101EB000DC005C0CE400E40C640C0F39D000F7305B
:101EC0003D00900521005C19682F5008C13E6A2F23
:101ED0005008C33E8600870101080139E400013043
:101EE000E40601086406FE39640681005008031DFB
:101EF0007D2F90311E208E318C2F72302000D0002B
:101F00000030D100DC30D2000030D3000030D400EB
:101F1000D5009E3118268E3101302100E5070430AE
:101F200065020318962F3D009019562F20001211BC
:101F300008002000400E890C0339003A031D0800F8
:101F4000D92F2100B0170830D700080093315F2344
:101F500008009231F6220800DD302100AE0000308A
:101F6000AF0030140130B100B017080091311921D1
:101F700008008D31A42508004408D83E2100AE0099
:101F80000030B02F2100B01720004408D83E860052
:101F900087014208810008000230D0000030D100E3
:101FA0000030D200D3000030D400D5009E31182676
:101FB00008004108003A0319B62F013A0319B92F56
:101FC000023A0319B92F063A0319A12F033A03194C
:101FD000A62F013A0319CC2F0F3A0319AC2F013A5F
:101FE0000319A92F033A0319BC2F013A0319C22F71
:101FF000073A0319FC2FFC2F08009B31C32308006C
:1020040070088600023087008101F20172087007AF
:10201400F100710A8600023087007208203E8400B5
:1020240085010130853D000881000130F207403010
:1020340072020318080008282D302100CE005C0825
:10204400FD39031D60285C08E2000130E236890B8B
:10205400282862083F39E3000230E335890B2F2832
:102064006308203ED6005608C500C6010430450664
:10207400C50000304606C600560886008701010CDC
:10208400890C0F390D3A031D5D284030F0000030F3
:10209400F1005608023E86008701403FF200413FAE
:1020A400F3000830F4000030F5009D310225903132
:1020B4009F31002708009D3154250800FD305C0540
:1020C400E20004306206031D080095312325080050
:1020D4000830F200003021003202083003193102C6
:1020E400031880283108F2005508031D7B280130AD
:1020F4007F285503031D80280230D5007208F000A4
:10210400F1017008B1027108B23B37088600380843
:1021140087004131720881004830D300301CA42864
:10212400B9285308860087012E0884002F088500EB
:10213400000881000130AE070030AF3D0130D30705
:102144000130F2027208031908009328530886002C
:1021540087012E0884002F088500000881000130C3
:10216400AE070030AF3D0130D3070130F2027208F0
:1021740003190800A82821004C08031D0800013099
:10218400CC004B08031D08000130CB00023054067C
:10219400031DDE2837088600380887004131810195
:1021A40037088600380887004830810037088600E1
:1021B40038088700811708005403031D0800CF0165
:1021C400560A86008701083081004030F000003054
:1021D400F1005608023E860087017008C03F71086E
:1021E400C13F5608860087010430810056088600E6
:1021F400870181170130CF00450886004608870013
:102204004131083081004030F0000030F1004508D1
:1022140086004608870042317008C03F7108C13FFC
:1022240045088600460887008030810008002000A9
:10223400C801C9015F292100B0175203031D6B298E
:102244002000C8146B292100B0176B292100B01796
:10225400200044080F39003A03196B29C41B412993
:1022640044080F39F0000130F035890B3629700825
:10227400BB3E86008701403FF100413F4F2944089F
:102284000F39F0000130F035890B45297008B73E4D
:1022940086008701403FF100413FF200710886004B
:1022A40072088700811F6B297108860072088700F5
:1022B400011D6B290130C8006B2940081F39003A01
:1022C40003191D29013A03192529033A0319282959
:1022D4006B292100B01F08004830AE000030AF0069
:1022E40030140230B100080020000D0D0D0D01392D
:1022F4009B31D6239131003A0319080020000C0EBB
:1023040001399B31D6239131003A031908000B118E
:10231400053020009500F101F20120000D0D0D0D96
:1023240001399B31D6239131003A0319080020006A
:102334000C0E01399B31D6239131003A0319080060
:102344000B1D8F290130F1070030F23D003072027D
:10235400FA3003197102031CD02903102100471D10
:102364000314031CB82921004715BA292100471179
:10237400F101F201C62920000C0E01399B31D6234C
:102384009131003A0319D02920000D0D0D0D0139AA
:102394009B31D6239131003A031DBD290B11053021
:1023A400200095008F292830F0000130F100200032
:1023B4005008F200F3010930F4000030F5009D31BB
:1023C400022591313830F0000130F100200051082D
:1023D400F200F3010930F4000030F5009D310225CC
:1023E400913101302200A0002030F0000130F100D2
:1023F4003F30F2009D31822591312200A1009D31B0
:10240400282591310B0D0B0D0139FB008B13553031
:10241400F000AA30F1009B31C62391318030F000E6
:102424001F30F1009C31702491319B31DE239131B6
:10243400003A031D172A8030F0001F30F100A0304D
:10244400F2009E318A2691319B31DE239131003A8C
:10245400031D262A9B31C0237B0C031C8B130318FA
:102464008B170800F200772A20000E0D0E0D01399B
:102474009B31D623080020000E0E890C890C0139EB
:102484009B31D623080020000E0CF100F10C710CD6
:1024940001399B31D623080020000C0E890C013928
:1024A4009B31D623080020000E0E890C01399B3184
:1024B400D623080020000E0E01399B31D6230800D4
:1024C40020000E0C01399B31D623080020000C0E8D
:1024D40001399B31D623080020000D0D0D0D013963
:1024E4009B31D6230800003008007208003A031913
:1024F400362A013A03193D2A033A0319452A013AB7
:1025040003194E2A073A0319552A013A03195C2A7A
:10251400033A0319622A013A0319682A0F3A031984
:102524006E2A752A08002100CA01C9010230540626
:10253400031DC22A45088600460887004131083039
:1025440081004830F3000030F400FF307305F500DB
:102554007F307405F600450886004608870042313E
:102564007508C03F7608C13F4508860046088700C5
:102574004830810045088600460887008117080016
:10258400320820004702031DCB2A21003108200015
:1025940046020318D42A47082100B2002000460846
:1025A4002100B10090316A204830F3000030F4007B
:1025B400FF307305F5007F307405F60021003708FD
:1025C40086003808870042317508C03F7608C13F4D
:1025D40037088600380887004830810037088600AD
:1025E40038088700811708002100B0179930F900D6
:1025F400FA01790886000E30870081010130F9075D
:102604000130FA077A080319FB2A2030F000003061
:10261400F1000030F200F3002030F4000030F50047
:102624009C31262492313D000E17FB017B08C33EEA
:102634008600870181017B08C13E860087018101F4
:102644000130FB0702307B02031C182BD830F0004A
:102654000030F1000030F200F3000230F4000030EA
:10266400F5009C31262492313D000E1328302100C0
:10267400B7000030B8002030D6005608C500C601A7
:10268400200042082100DD005D08031D4C2B1030A2
:10269400D700080001302000D0000030D100DD3028
:1026A400D2000030D3000130D4000030D5009E3178
:1026B400182620302100D700080080302000400672
:1026C400031D0800C0302100B000BD2BDD30210007
:1026D400AE009830AF001230B1000030B2000800F4
:1026E4004208031D992B4208F000F101F035F10D69
:1026F4001730700784001930713D80388500003F21
:102704002100AE00013FAF0002302E0784002F08E5
:102714000318013E85000008B10003302E07840031
:102724002F080318013E85000008B20008002100AC
:10273400B0010800033042020318992B4208F0004C
:10274400F101F035F10D0D30700784001930713D41
:1027540080388500003F2100AE00013FAF002E0805
:1027640084002F0885000008F000F1017008B10012
:102774007108B200080020004308013A0319682BCD
:10278400033A0319722B013A03199C2B992B080065
:1027940020000D0D0D0D01399B31D6239331003AE4
:1027A4000319080020000E0C01399B31D623933104
:1027B400003A031908000B11053020009500F101BF
:1027C400F20120000D0D0D0D01399B31D6239331FB
:1027D400003A0319080020000E0C01399B31D6235E
:1027E4009331003A031908000B1DE32B0130F10764
:1027F4000030F23D00307202FA30031971020318FE
:10280400102C332C4708FC3901380B2C4708FC39B1
:102814000238C7001D2CFC30C7051D2C21004708B9
:102824000339003A0319042C013A0319082C033A1A
:1028340003190D2C1D2CF101F201292C20000E0C82
:1028440001399B31D6239331003A0319332C2000EC
:102854000D0D0D0D01399B31D6239331003A031D23
:10286400202C0B11053020009500E32B3D000E12A7
:102874002100B01B752CA91F4A2C0230D400490832
:10288400031D462C923195222100CB01CC01080076
:1028940045088600460887004131083081004030F1
:1028A400F7000030F80045088600460887004231EA
:1028B4007708C03F7808C13F45088600460887006E
:1028C4000C308100450886004608870081173708C8
:1028D40086003808870004308100370886003808ED
:1028E4008700811708002000C01F8A2C01302100B6
:1028F400D4004A08031D812C923195229431210081
:10290400CB01CC014D08031D08009031BD20080007
:1029140002302100D4004508860046088700413172
:10292400083081004030F7000030F8004508860088
:102934004608870042317708C03F7808C13F450800
:102944008600460887000430810045088600460852
:1029540087008117822CF80070080319B92C783588
:10296400B73E86008701403FF900413FC02C7835CF
:10297400BB3E86008701403FF900413FFA007908D9
:102984007A04031DC82CF001F1010800FF30710521
:10299400F4007F307205F500790886007A08870014
:1029A40042317408C03F7508C13F790886007A082F
:1029B4008700413173088100790886007A0887000E
:1029C40040308105790886007A08870081157908E6
:1029D40086007A088700811770080319082D783556
:1029E400B73E86008701403FF400413FF5000430C4
:1029F4007406F60000307506F7007835B73E860099
:102A040087017608C03F7708C13F1E2D7835BB3E4D
:102A140086008701403FF400413FF500043074060E
:102A2400F60000307506F7007835BB3E8600870156
:102A34007608C03F7708C13F7A08F1007908F000B2
:102A4400080021003708860038088700010E890C29
:102A5400890C0139DE0004303706B700003038062F
:102A6400B80008305706031D442D200042087F3962
:102A74003D00960016080319412D1030422D0430F4
:102A84002100D7005403031D8C2D48302000EC0096
:102A94000030ED00FF306C05EE007F306D05EF0077
:102AA40021003708860038088700423120006E086C
:102AB400C03F6F08C13F90316A2095310230210038
:102AC4005506031D712D3708860038088700043029
:102AD40081003708860038088700811708005E08DF
:102AE400031D802D37088600380887004830810090
:102AF40037088600380887008117080037088600E1
:102B040038088700083081003708860038088700B5
:102B140081170800A91F9D2D2C082D0403199B2D36
:102B24000530A73E86008701413F8A00403F0A00E6
:102B340095312100A913D4010800210012113D0090
:102B44009301900198019930F100F2017108860017
:102B54000E30870081010130F1070130F20772085D
:102B64000319A82D16303D0091009F3097007B304B
:102B74009200F3017308F0000230F035890BBF2D89
:102B84007008203E860087010030C03F0030C13FFE
:102B9400C23FC33F0130F30708307302031CBC2D4E
:102BA4003D000E1796010E120E13F730900521000A
:102BB400B001A901AA01AB013D009019D72D013044
:102BC4002100CC000130CB00CA01C901D101F301BD
:102BD4007335B73E860087010030C03FC13F73356F
:102BE400BB3E860087010030C03FC13F7308C33E2F
:102BF4008600870181017308C13E86008701810137
:102C04000130F30702307302031CEA2D283021003F
:102C1400B7000030B80016303D00980000302000A6
:102C2400A3004030A2000830A1000430A000A01787
:102C34002100DD010030B6000030B5000030B400E2
:102C44000030B300C801D7010800200040081F3934
:102C5400013A031D0800023044020318080006303C
:102C640041060319662E712E21005D03031D712E8A
:102C740020004408031D4A2E90302100AE009830F5
:102C8400AF000930B1000030B200C030B000712E86
:102C94004403031D712EAB302100AE009830422E48
:102CA4004408031D5C2E00302100AE009830AF00B4
:102CB4004A30442E4403031D712EC8302100AE0057
:102CC4009830AF001530442E4308213A0319362EAC
:102CD400033A0319522E013A0319712E712E200062
:102CE400400E890C0339013A031D0800A42E9E31BD
:102CF400C5260800DB302100AE000030AF000130F3
:102D0400B1000030B200C130B000080080302100B2
:102D1400B000200043082100DB000800DA30210065
:102D2400AE000030AF000130B1000030B20081309D
:102D3400B000080080302100B000200042082100CB
:102D4400DA0008004108013A0319792E033A0319FD
:102D54007C2E013A0319902E0A3A0319792E033A6C
:102D64000319882E013A03199C2EB82E0800FB0182
:102D74007B08803EF0001F3003182030F1009C31A6
:102D84003E2496317108FA007008F9007B08203E51
:102D9400860087010130873D790881000130FB07F7
:102DA40040307B02031CBA2E22002003031DE72EB1
:102DB4002030F0000130F1003F30F2009D318225D7
:102DC400963122002106031908000130A8000230C0
:102DD400A9000330AA000430AB000530AC00063073
:102DE400AD000730AE000830AF000930B00001304C
:102DF400B8000230B9000330BA000D30BB000E3009
:102E0400BC000C30BD000A30BE000B30BF000930DE
:102E1400C0002230F0000130F1000030F200F30075
:102E24000630F4000030F5009C3126249631313010
:102E3400F0000130F1000030F200F3000730F4003C
:102E44000030F5009C31262496314130F0000130E9
:102E5400F1000030F200F3000730F4000030F50018
:102E64009C31262496314830F0000130F1000030C6
:102E7400F200F3001830F4000030F5009C312624F1
:102E8400963101302200A0002030F0000130F10022
:102E94003F30F2009D3182252200A100080021006C
:102EA400560A860087010108DF005F082000EC0055
:102EB400ED016D0821002B02031D642F20006C0816
:102EC40021002A020318682F2A08DF005F08200067
:102ED400EC00ED016C082100AA0220006D0821001D
:102EE400AB3BDE015F085E020318892F27088600CA
:102EF400280887005E08483E840085010008810098
:102F04000130A7070030A83D0130DE07742F2A08DE
:102F14002B040319C82F4508860046088700413151
:102F24000830810048302000EC000030ED00FF3014
:102F34006C05EE007F306D05EF002100450886002A
:102F440046088700423120006E08C03F6F08C13F29
:102F54002100560886008701011BBC2F4508860006
:102F640046088700483081004508860046088700E7
:102F7400811708004508860046088700083081004C
:102F84004508860046088700811708004508860022
:102F94004608870041310830810040302000EC00B1
:102FA4000030ED00210045088600460887004231C4
:102FB40020006C08C03F6D08C13F21004508860011
:102FC40046088700043081004508860046088700CB
:102FD40081172C082D040319F82F0530A73E86000D
:102FE4008701413F8A00403F0A0097312100A9131D
:102FF4004D08031D08009031BD200800053401343C
:1030040009340534A1340134153400342534013431
:1030140035340034453401347534013495340E3478
:10302400053409341934013429340E34813402341A
:1030340095340234813401340534013425340734A1
:1030440046343B34013475340434953401346534E6
:1030540014340934393481344234653400349534B9
:103064000134813401342634FF3400344634FF34CF
:1030740000340934303409343134093432340934F5
:103084003534753408349534043481340234C0340E
:10309400343403344D34003469340034633400343C
:1030A400723400346F3400346334003468340034D0
:1030B400693400347034003420340034543400341F
:1030C4006534003463340034683400346E340034BE
:1030D4006F3400346C3400346F340034673400349B
:1030E4007934003420340034493400346E340034EC
:1030F400633400342E34003409340234343400345C
:10310400023401340034C034323409340434003419
:1031140000340134033400340034003409342134DD
:10312400113401340034013422344A340034073475
:103134000534813403344034003401340934043414
:103144000134003400340334FF34FF3400340934D0
:103154002134113401340034013422341534003460
:1031640016340334533400345334003420340034DC
:1031740047340034613400346D3400346534003431
:103184007034003461340034643400340634003460
:10319400FF3409340134A1340134153400342634A5
:1031A400FF34003475340834953440340934013420
:1031B400B1340234C03412340134003402340034E3
:1031C400003400340834D83404346C34E734013423
:1031D4000034013402340034013400340134023444
:1031E400043408341034203440348034013402343C
:1031F40004340834103420340034003400340034EF
:103204000034003400340034003401340134013417
:10321400013401340134133499344A349834B234C7
:0E322400983404340334093404347E3498346E
:10378000FC01FD0108002300951108007108FC00F0
:103790007008FD000800FC302100C7054711080033
:1037A000640080010131890BD12B0034F0007008D6
:1037B000031DDC2B01300800003008000130F00050
:1037C0002300951C1518E52BF00170080800203027
:1037D0002000D2004030D3000030D4009F313F277A
:1037E00008002100BF01C0011A30F60001309C31F1
:1037F00057249B319B31CB23080001302100B307B4
:103800000030B43DB53DB63D5108031D0800013000
:10381000C8074808031D0800FF30C80008003D0025
:103820001215EF3090058E1401302100D100C8012F
:1038300075302000D0000030D1000030D200D3001D
:103840000030D400D5009E31182608007108F7001A
:103850007008F6000130F4020030F53B740A0319D9
:10386000750A031908007608860077088700720831
:1038700081000130F6070030F73D2A2C0B0D0B0DAF
:103880000139F2008B1323001513710892007008A0
:103890009100151400000000720C031C8B13031818
:1038A0008B1723001408F1001308F0000800F8003B
:1038B000761D5F2CF00178089E3150269C31F61C55
:1038C000662CF001F00A78089E3150267808983E60
:1038D000F700770886000E30870076088100080020
:1038E0000B0D0B0D0139F2008B132300151371081A
:1038F000920070089100151615157D0896007C0839
:1039000096009514720C031C8B1303188B1715115A
:10391000150808002100D10174302000D0000030CB
:10392000D1000030D200D3000030D400D5009E3149
:1039300018269C313D008E101211101DA22CFB3058
:1039400090059D2C2100C8010800F3007008031D9C
:10395000B52C2830F1000130F200730871078600A1
:103960000030723D8700010808003830F100013056
:10397000F2007308710786000030723D870001086D
:103980000800F2008F31FD279C31CD2CFC30210046
:103990009900903027009B0008007208F000F101A8
:1039A0007108003A0319D52CE02C7008003A03196D
:1039B000C62C013A0319E02C033A0319E02CE02C41
:1039C00008003D00181CFF2C2100560886008701C6
:1039D00080300106031DFD2C37088600380887005B
:1039E00084300106031DFD2C5608860087010C302B
:1039F000810056088600870181173D001810DF30CE
:103A0000900508007308FA007208F9007108F800C0
:103A10007008F7000130F4020030F53B740A031916
:103A2000750A03190800790886007A0887000108DA
:103A3000F6000130F9070030FA3D77088600780873
:103A40008700760881000130F7070030F83D0A2D25
:103A5000F2017235A03E860001308700FF30C03F82
:103A60003F30C13F0130F20720307202031C292D84
:103A7000F3017308203E860087010130873D003046
:103A80000104F0003F30F1007335A03E86000130A4
:103A900087007008C03F7108C13F0130F307403014
:103AA000730203180800392D023021005406031D4B
:103AB0005C2D973151270800D4014F08031D802D3C
:103AC00045088600460887004131083081004030B3
:103AD000E0000030E10045088600460887004231DA
:103AE0006008C03F6108C13F45088600460887005E
:103AF0000C308100450886004608870081170800C1
:103B0000CF010800F8010130F202720A0319B02D4A
:103B100070088600710887000108F8060130F00778
:103B20000030F13DF701F81B9C2D7808F300F401FB
:103B30007335F500740DA62D7808F300F401F33504
:103B4000F40D07307306F50000307406F6007508B2
:103B5000F8000130F707083077020318832D932D02
:103B600078080800203021005702031C08003D009F
:103B70008E18080021003F0840040319C52D3F0896
:103B8000860040088700811B0800A030F800003044
:103B9000F9008C313C249D31F001F00AA030F10095
:103BA0000030F2000730F30001309431AD249D3134
:103BB00071082100C0007008BF009331CA239D31F5
:103BC00091317621080000309C31C1249D3195311E
:103BD0009F259D319631B9269D31303021008C00D2
:103BE000F0308D00FF308E009513303024008C00B3
:103BF00070308D0023008C018D018E010730210073
:103C0000950495111512951215178B170530200084
:103C100095008E31C4269D31203021005702031CAF
:103C2000092E3D008E18092E9D31B2259D31092E99
:103C3000272E01309C31C124080002309C31C12460
:103C400008009B31F1230800963127260800200048
:103C50005108003A0319302E7F3A03194A2E4F2E8D
:103C60005008013A0319212E033A03194F2E013A45
:103C70000319242E063A03194F2E773A03194F2EB3
:103C8000013A03194F2E073A03191D2E013A031961
:103C9000192E4F2E5008FF3A03194F2E4F2E0800B1
:103CA000F4002030F5007008F1000130F135890B87
:103CB000562E7408F2000230F235890B5C2E720821
:103CC0007107F3000230F335890B632E7308F50793
:103CD00075088600870181137008031D782E7435DE
:103CE000BB3E860087017508C03F0030C13F802E73
:103CF0007435B73E860087017508C03F0030C13F6C
:103D000075088600870101137508043E8600870147
:103D1000011708002030F6000B0D0B0D0139F500DE
:103D200023001513151595160130F602760A0319AE
:103D3000C22E71089200700891000130F007003027
:103D4000F13D7208860001308700403FF300413F9B
:103D5000F40074089400720886000130870001089E
:103D600093000230F2077608031995128B137D0831
:103D700096007C0896009514750C031C8B13031891
:103D80008B17942E151115080800200042084408CE
:103D9000F8007803031D080009304106031DDF2EDB
:103DA00020302100A7000230A8004030AA000030D7
:103DB000AB00E730AC001B30AD00A9170800410391
:103DC000031D08002030F0000230F1000030F20046
:103DD000F3004030F4000030F5009C3126249E3181
:103DE0002030F0009031022020302100AE0002305F
:103DF000AF004030B1000030B200C130B000080068
:103E00002100D501CD01CA01C901CF01D401370874
:103E10008600380887007F30810504303706B700F8
:103E200000303806B80037088600380887007F3031
:103E3000810504303706B70000303806B800450861
:103E40008600460887007F308105B001B101B201CC
:103E5000A901AA01AB018F3199279F3103302000BE
:103E6000D0000030D1000030D200D3000030D400A8
:103E7000D5009E3118269F31943138240800013036
:103E80002000E90000305402413003195302031CA2
:103E90000800EA016A08573E860087016A0852074F
:103EA000D50069085507D6005608083E8400023040
:103EB0008500000881000130EA0709306A02031C0E
:103EC0004A2FEB016B08603E860087016B085207A2
:103ED000D50069085507D6005608183E8400023000
:103EE0008500000881000130EB0709306B02031CDC
:103EF000622F5730D0006030D1009131D5210800B9
:020000040001F9
:08000000FF3FFF3FFF3FFF3F00
:04000E00A40FCF1F4D
:00000001FF
