:041808008C310C2CE7
:101810007E148C317E10090020008C310F2CFC01CD
:10182000FD01A73084000030850039309A318222D2
:101830008C31203084000130850040309A31822282
:101840008C31A03084000130850040309A318222F2
:101850007E102000903101287708860078088700E4
:1018600081017708860087014131810120000D0D3B
:101870000D0D01399A3188228C31F90077088600E4
:101880008701413101087906FE397906810021007E
:101890004919A22D7808F4007708F30000309A3136
:1018A0009C228C31F50020000E0D0E0D01399A316D
:1018B00088228C31F60095313C258C317808F40073
:1018C0007708F30001309A319C228C31F50020001A
:1018D0000E0E890C890C01399A3188228C31F60060
:1018E00095313C258C317808F4007708F3000230FC
:1018F0009A319C228C31F50020000E0CF900F90C75
:10190000790C01399A3188228C31F60095313C25C9
:101910008C317808F4007708F30003309A319C2268
:101920008C31F50020000C0E890C01399A31882287
:101930008C31F60095313C258C317808F40077081D
:10194000F30004309A319C228C31F50020000E0EF9
:10195000890C01399A3188228C31F60095313C2569
:101960008C317808F4007708F30005309A319C2216
:101970008C31F50020000E0E01399A3188228C310D
:10198000F60095313C258C317808F4007708F30097
:1019900006309A319C228C31F50020000E0C013962
:1019A0009A3188228C31F60095313C258C317808AB
:1019B000F4007708F30007309A319C228C31F5004F
:1019C00020000C0E01399A3188228C31F6009531B5
:1019D0003C258C3120000D0E890C01399A3188226A
:1019E0008C31003A0319072D20000D0E890C890C4B
:1019F00001399A3188228C31003A0319072D770872
:101A00008600870142310108F0390738A02D2000F7
:101A10000D0E890C01399A3188228C31003A031954
:101A2000222D20000D0E01399A3188228C31003A86
:101A30000319222D77088600870142310108F03909
:101A40000138A02D20000E0C890C01399A31882212
:101A50008C31003A03193F2D20000D0E890C890CA2
:101A600001399A3188228C31003A03193F2D7708C9
:101A70008600870142310108F0390538A02D200089
:101A80000E0C890C01399A3188228C31003A0319E5
:101A90005A2D20000D0E01399A3188228C31003ADE
:101AA00003195A2D77088600870142310108F03961
:101AB0000338A02D20000D0E890C01399A3188229F
:101AC0008C31003A03196B2D77088600870142316B
:101AD000F0308105442E20000D0E01399A31882204
:101AE0008C31003A03197C2D77088600870142313A
:101AF0000108F0390238A02D20000E0C890C0139A4
:101B00009A3188228C31003A03198E2D770886008D
:101B1000870142310108F0390438A02D20000D0E54
:101B2000890C890C01399A3188228C31003A0319C9
:101B3000442E77088600870142310108F0390638C3
:101B40008100442E491D442E7808F4007708F300E4
:101B500000309A319C228C31F50020000E0D0E0DC4
:101B600001399A3188228C31F60095313C258C312F
:101B70007808F4007708F30001309A319C228C3108
:101B8000F50020000E0E890C890C01399A3188224B
:101B90008C31F60095313C258C317808F4007708BB
:101BA000F30002309A319C228C31F50020000E0C9B
:101BB000F900F90C790C01399A3188228C31F60040
:101BC00095313C258C317808F4007708F300083013
:101BD0009A319C228C31F50020000E0C01399A318B
:101BE00088228C31F60095313C258C317808F40040
:101BF0007708F30009309A319C228C31F5002000DF
:101C00000C0E01399A3188228C31F60095313C2531
:101C10008C317808F4007708F3000A309A319C225E
:101C20008C31F50020000E0E890C01399A31882282
:101C30008C31F60095313C258C317808F40077081A
:101C4000F3000B309A319C228C31F50020000C0EF1
:101C5000890C01399A3188228C31F60095313C2566
:101C60008C317808F4007708F3000C309A319C220C
:101C70008C31F50020000E0E01399A3188228C310A
:101C8000F60095313C258C31770886008701433179
:101C90008030810020000D0E890C890C01399A31A9
:101CA00088228C31003A03195B2E77088600870161
:101CB000433181016A2E20000D0E01399A318822AC
:101CC0008C31003A03196A2E770886008701433168
:101CD000FF30810077088600870144318030810021
:101CE00020000D0E890C01399A3188228C31003A7E
:101CF0000319802E77088600870144318101902ED8
:101D000020000E0C890C01399A3188228C31003A5E
:101D10000319902E7708860087014431FF30810037
:101D2000770886008701453180308100770886007A
:101D3000870146318030810021004919C02E2000E2
:101D40000D0D0D0D01399A3188228C31003A03199D
:101D5000C02E20000E0C01399A3188228C31003AB5
:101D60000319C02E7808F4007708F3000C309A317C
:101D70009C228C31F500F601F60A95313C258C3118
:101D8000770886008701453180308100770886001A
:101D90008701463180308100AE2F770886008701A9
:101DA00043310108031DE42E770886008701443182
:101DB00080300106031DE42E77088600870142313A
:101DC0000108F03906387F2F7708860087014331F4
:101DD0000108031DFA2E77088600870144310108A7
:101DE000031DFA2E77088600870142310108F03979
:101DF00007387F2F7708860087014331803001063E
:101E0000031D102F77088600870144310108031D48
:101E1000102F7708860087014231F0308105802F2E
:101E20007708860087014331010A031D262F7708B2
:101E30008600870144310108031D262F770886009C
:101E4000870142310108F03901387F2F7708860079
:101E500087014331010A031D3D2F77088600870162
:101E6000443180300106031D3D2F7708860087012D
:101E700042310108F03902387F2F77088600870148
:101E80004331010A031D532F77088600870144312F
:101E9000010A031D532F770886008701423101088C
:101EA000F03903387F2F770886008701433180306F
:101EB0000106031D6A2F7708860087014431010A55
:101EC000031D6A2F77088600870142310108F03927
:101ED00004387F2F77088600870143310108031DEE
:101EE000802F7708860087014431010A031D802F67
:101EF00077088600870142310108F03905388100F2
:101F0000770886008701433180308100770886009A
:101F100087014431803081000800770886008701FE
:101F20004531770884008501033100088100770876
:101F30008600870146317708840085010431000856
:101F4000810077088600870143318030810077085F
:101F50008600870144318030810008002100490853
:101F60000339003A0319BB2F013A0319CD2E033A66
:101F700003198D2FBB2F08002100D701CF01CC0101
:101F8000CB01D101D60137088600380887007F30A1
:101F9000810504303706B70000303806B80037082E
:101FA0008600380887007F30810504303706B70087
:101FB00000303806B80045088600460887007F30A4
:101FC0008105B001B101B201A901AA01AB019031B3
:101FD00098208F3103302100E0000030E100003014
:101FE000E200E3000030E400E5009C3155248F312D
:101FF0009231A62208007108FC007008FD0008005C
:1020020000309B31302390319331912390319D31B7
:102012008D259031303021008C00F0308D00FF3062
:102022008E009513303024008C0070308D00230018
:102032008C018D018E010730210095049511151236
:10204200951215178B170530200095009531F6254E
:102052009031203021005902031C27283D008E18A0
:1020620027289C312424903127282000E801530896
:1020720054040319452852088600013087000103E1
:10208200031D45280130E8005408D60068085302B1
:10209200D500031CD603003056020F300319550237
:1020A2000318592868085302E5000030543B5C28A5
:1020B2000E30E5000030E6006508E700E901670838
:1020C2006902031875286908573E86008701680867
:1020D2005207D500550869078400013085000008C1
:1020E20081000130E90760286708EA000E306A02C1
:1020F200031891286A08573E860087010130D500EF
:102102000230D6006A08550784000030563D85002B
:10211200000881000130EA070E306A02031C7B28A6
:102122005730D0000030D1009D3104250800200036
:10213200400E890C0339003A031D0800D9282100FA
:10214200B0170830D90008009131CD210800903134
:10215200FD200800DF302100AE000030AF00301457
:102162000130B100B01708009E31E3260800963115
:10217200CA2608004408DA3E2100AE000030AF282B
:102182002100B01720004408DA3E86008701420889
:102192008100080002302100E0000030E100003040
:1021A200E200E3000030E400E5009C315524080021
:1021B2004108003A0319B528013A0319B828023A2E
:1021C2000319B828063A0319A028033A0319A528C7
:1021D200013A0319CB280F3A0319AB28013A031924
:1021E200A828033A0319BB28013A0319C128073A60
:1021F2000319FC28FC2808002100B01799302000A0
:10220200ED00EE016D0886000E308700810101307D
:10221200ED070130EE076E08031903292030F000A4
:102222000030F100F2002030F3000030F4009A3167
:10223200BB2290313D000E172000EF016F08C33E14
:102242008600870181016F08C13E860087018101F6
:102252000130EF0702306F02031C1F29DA30F00051
:102262000030F100F2000230F3000030F4009A3145
:10227200BB2290313D000E1328302100B700003000
:10228200B8002030D8005808C500C6012000420816
:102292002100DF005F08031D51291030D90008001A
:1022A2000130E0000030E100DF30E2000030E30006
:1022B2000130E4000030E5009C315524203021003B
:1022C200D900080021003708860038088700010E6F
:1022D200890C890C0139F70004303706B700003049
:1022E2003806B80008305906031D84292000420828
:1022F2007F393D0096001608031981291030822982
:1023020004302100D9005603031DC9294830F300C7
:102312000030F400FF307305F5007F307405F600DD
:10232200370886003808870042317508C03F7608B2
:10233200C13F9D31DA259131023021005706031D3C
:10234200AE29370886003808870004308100370834
:10235200860038088700811708007708031DBD2909
:102362003708860038088700483081003708860021
:102372003808870081170800370886003808870068
:102382000830810037088600380887008117080066
:10239200A91BA913D6010800803020004006031DA6
:1023A2000800C0302100B0002B2A08302100AE0006
:1023B2009930AF001230B1000030B200080042087C
:1023C200031D072A4208F000F101F035F10D243017
:1023D200700784001930713D80388500003F21006C
:1023E200AE00013FAF0002302E0784002F08031811
:1023F200013E85000008B10003302E0784002F083B
:102402000318013E85000008B20008002100B00157
:102412000800033042020318072A4208F000F101C3
:10242200F035F10D1A30700784001930713D803893
:102432008500003F2100AE00013FAF002E0884005E
:102442002F0885000008F000F1017008B100710842
:10245200B200080020004308013A0319D629033AC2
:102462000319E029013A03190A2A072A0800200061
:102472000D0D0D0D01399A3188229231003A03195E
:10248200080020000E0C01399A3188229231003A5C
:10249200031908000B11053020009500F101F2012B
:1024A20020000D0D0D0D01399A3188229231003A2A
:1024B2000319080020000E0C01399A31882292314A
:1024C200003A031908000B1D512A0130F1070030B0
:1024D200F23D00307202FA300319710203187E2AAB
:1024E200A12A4908FC390138792A4908FC390238FD
:1024F200C9008B2AFC30C9058B2A210049080339FF
:10250200003A0319722A013A0319762A033A031987
:102512007B2A8B2AF101F201972A20000E0C013945
:102522009A3188229231003A0319A12A20000D0D16
:102532000D0D01399A3188229231003A031D8E2AFB
:102542000B11053020009500512A3D000E1221008A
:10255200B01BE32AA91FB82A0230D6004B08031D7C
:10256200B42A9F319F272100CD01CE0108004508E2
:102572008600460887004131083081004030F7006C
:102582000030F80045088600460887004231770887
:10259200C03F7808C13F45088600460887000C30D6
:1025A20081004508860046088700811737088600A3
:1025B2003808870004308100370886003808870011
:1025C200811708002000C01FF82A01302100D60020
:1025D2004C08031DEF2A9F319F2792312100CD0124
:1025E200CE014F08031D08009E31872608000230E5
:1025F2002100D60045088600460887004131083090
:1026020081004030F7000030F80045088600460897
:10261200870042317708C03F7808C13F45088600ED
:102622004608870004308100450886004608870076
:102632008117F02AF80070080319272B7835B73E66
:1026420086008701403FF900413F2E2B7835BB3E83
:1026520086008701403FF900413FFA0079087A0479
:10266200031D362BF001F1010800FF307105F40063
:102672007F307205F500790886007A0887004231BA
:102682007408C03F7508C13F790886007A08870040
:10269200413173088100790886007A08870040304A
:1026A2008105790886007A088700811579088600F5
:1026B2007A088700811770080319762B7835B73EA0
:1026C20086008701403FF400413FF5000430740664
:1026D200F60000307506F7007835B73E86008701B0
:1026E2007608C03F7708C13F8C2B7835BB3E860009
:1026F2008701403FF400413FF50004307406F600C4
:1027020000307506F7007835BB3E860087017608F3
:10271200C03F7708C13F7A08F1007908F00008004D
:10272200210012113D009301900198019930F100AE
:10273200F201710886000E30870081010130F10735
:102742000130F207720803199A2B16303D009100EE
:102752009F3097007B309200F3017308F000023043
:10276200F035890BB12B7008203E860087010030BE
:10277200C03F0030C13FC23FC33F0130F3070830C2
:102782007302031CAE2B3D000E1796010E120E13A0
:10279200F73090052100B001A901AA01AB013D006B
:1027A2009019C92B01302100CE000130CD00CC019F
:1027B200CB01D301F3017335B73E860087010030A8
:1027C200C03FC13F7335BB3E860087010030C03F2A
:1027D200C13F7308C33E8600870181017308C13E71
:1027E2008600870181010130F30702307302031C66
:1027F200DC2B28302100B7000030B80016303D0035
:10280200980000302000A3004030A2000830A10050
:102812000430A000A0172100DF010030B600003014
:10282200B5000030B4000030B300CA01D90108007D
:102832002100580A860087010108F7007708F20094
:10284200F30173082B02031D282C72082A020318B5
:102852002C2C2A08F7007708F200F3017208AA026A
:102862007308AB3BF601770876020318492C270858
:102872008600280887007608483E84008501000803
:1028820081000130A7070030A83D0130F607342C43
:102892002A082B040319842C450886004608870061
:1028A2004131083081004830F2000030F300FF303F
:1028B2007205F4007F307305F5004508860046086E
:1028C200870042317408C03F7508C13F580886002E
:1028D2008701011B782C450886004608870048308E
:1028E20081004508860046088700811708004508D0
:1028F20086004608870008308100450886004608A1
:102902008700811708004508860046088700413184
:10291200083081004030F2000030F30045088600A4
:102922004608870042317208C03F7308C13F45081C
:102932008600460887000430810045088600460864
:1029420087008117A9134F08031D08009E318726AF
:102952000800200040081F39013A031D0800023018
:10296200440203180800063041060319E92CF42C2E
:1029720021005F03031DF42C20004408031DCD2C0D
:10298200D0302100AE009830AF000930B1000030E5
:10299200B200C030B000F42C4403031DF42CEB3021
:1029A2002100AE009830C52C4408031DDF2C0030F6
:1029B2002100AE009830AF004A30C72C4403031DFB
:1029C200F42C4A302100AE009830AF004030C72CC2
:1029D2004308213A0319B92C033A0319D52C013AB9
:1029E2000319F42CF42C2000400E890C0339013A0F
:1029F200031D0800272D9E312D260800DD30210001
:102A0200AE000030AF000130B1000030B200C13082
:102A1200B000080080302100B000200043082100EF
:102A2200DD000800DC302100AE000030AF000130D4
:102A3200B1000030B2008130B000080080302100C7
:102A4200B000200042082100DC0008004108013AE1
:102A520003193B2D033A0319FF2C013A0319132DD5
:102A62000A3A0319FC2C033A03190B2D013A0319F4
:102A72001F2D3B2D0800C92D73088600740887009E
:102A8200760801390110031D01140800730886003D
:102A920074088700760801398110031D811408002B
:102AA2007308860074088700760801390111031D36
:102AB200011508007308860074088700760801393A
:102AC2008111031D811508007308860074088700B0
:102AD200760801390112031D0116080073088600E9
:102AE20074088700760801398112031D81160800D7
:102AF2007308860074088700760801390113031DE4
:102B020001170800730886007408870076080139E7
:102B12008113031D81170800730886008701413164
:102B2200760801390110031D01140800730886009C
:102B320087014131760801398110031D8114080093
:102B42007308860087014131760801390111031D9E
:102B520001150800730886008701413176080139A2
:102B62008111031D81150800730886008701413118
:102B7200760801390112031D011608007308860048
:102B820087014131760801398112031D811608003F
:102B92007508013A03193D2D033A0319472D013AED
:102BA2000319512D073A03195B2D013A0319652DBB
:102BB200033A03196F2D013A0319792D0F3A0319BC
:102BC200832D013A03198D2D033A0319972D013AEA
:102BD2000319A12D073A0319AB2D013A0319B52D9B
:102BE200033A0319BF2DF52D080021005908031DD2
:102BF2000A2E3D008E019201163091009F309700FF
:102C02007B3092008E19072E8E15032E0130210083
:102C1200D9005903031D172E3D008E1A172E90015D
:102C220092011214121602302100D9003D0010192F
:102C3200121D202EFB3090059B31162395313D004D
:102C42008E1C262E2000121108001018121C322E83
:102C520093319123953104302100D900FE303D009B
:102C62009005101A121E382E9A31CE2295313D004F
:102C7200101F5E2E121F4C2E73302100E000003018
:102C8200E1000030E200E3000130E4000030E50042
:102C92009C3155249531BF303D0090059A31A922CF
:102CA2009531210050080319582E0130D0025008E6
:102CB200031D5E2E9E31872695313D00901A921E8D
:102CC200652E9B31502395313D009018921C7A2E2F
:102CD200FF302100E0007F30E1000030E200E3003D
:102CE2000130E4000030E5009C31552495313D006F
:102CF20093010430210059020318822E2000121180
:102D020008003D00921DC72E2100ED01C42E0F08C0
:102D12002100DE005E0CEC00EC0C6C0C0F39D200D2
:102D2200F7303D00900521005E199A2E5208C13EEF
:102D32009C2E5208C33E8600870101080139EC002F
:102D42000130EC0601086C06FE396C06810052085F
:102D5200031DAF2E9D3141259531BD2E7230E0000D
:102D62000030E100DE30E2000030E3000030E40039
:102D7200E5009C315524953101302100ED070430E6
:102D82006D020318C72E3D009019882E20001211E3
:102D9200080020004203031DE02E40081F39003ABC
:102DA200031DE02E2100B017033020004106031D51
:102DB200DE2E01302100D400E02E2100D4012000BB
:102DC2004208031D080040081F39023A031D08008B
:102DD20044080F39003A0319080044080F39ED007E
:102DE20002306D0203180800203021005906031D2D
:102DF2000800B0172000C41B132F44080F39ED0040
:102E02000130ED35890B022F6D08BB3E860087012C
:102E1200403F2100E800413FE900200044080F390B
:102E2200C13E272F44080F39ED000130ED35890BE3
:102E3200172F6D08B73E86008701403F2100E8004A
:102E4200413FE900200044080F39C33E8600870154
:102E520001082100E70067183E2FFB302000ED003B
:102E6200FF30EE002100680820006D052100E80017
:102E7200690820006E052100432F04306804E80031
:102E820000306904E9002000C41B582F44080F39A0
:102E9200ED000130ED35890B4B2F6D08BB3E8600EE
:102EA200870121006808C03F6908C13F682F4408B4
:102EB2000F39ED000130ED35890B5C2F6D08B73EFF
:102EC2008600870121006808C03F6908C13F0330BE
:102ED20020004106031D8D2F210068088600690825
:102EE2008700811F812F2000C41B7B2F44080F39CC
:102EF200C13E7E2F44080F39C33E860087018114EC
:102F020021006808860069088700011568088600A4
:102F12006908870081170800043021006806E8006C
:102F220000306906E9006808860069088700811F89
:102F3200B52F68088600690887007F308105680818
:102F420086006908870001170530E0000030E100C3
:102F52006908E3006808E2000230E4000030E5009E
:102F62009C3155249631BA2F68088600690887007B
:102F72000117043021006806E80000306906E90004
:102F8200E718C92F6808860069088700811FED2F9E
:102F92002000C41BD02F44080F39C13ED32F440850
:102FA2000F39C33E86008701811021006808860020
:102FB200690887003B3081050530E0000030E10000
:102FC2006908E3006808E2000230E4000030E5002E
:102FD2009C3155249631F32F6808860069088700D2
:102FE2003B308105200044080F39983E2100E6005D
:102FF200660886000E308700FE3081050800053421
:10300200013409340534A134013415340034253433
:103012000134353400344534013475340134953487
:103022000E34053409341934013429340E34813410
:1030320002349534023481340134053401342534A8
:10304200073446343B340134753404349534013446
:1030520065341434093439348134423465340034EB
:1030620095340134813401342634FF34003446343B
:10307200FF34003409343034093431340934323401
:1030820009343534753408349534043481340234C7
:10309200C03406340034FF3409340134A13401341D
:1030A200853401347534083495344034B1340334F2
:1030B200C0340034003400340034003400340034AE
:1030C200003400340034003400340034003400345E
:1030D200003400340034003400340034003400344E
:1030E200003400340034003400340034003400343E
:1030F200003400340034003400340034003400342E
:10310200003400340034003400340034003400341D
:103112000034343403344D340034693400346334BD
:103122000034723400346F34003463340034683451
:1031320000346934003470340034203400345434A0
:1031420000346534003463340034683400346E343F
:1031520000346F3400346C3400346F34003467341C
:1031620000347934003420340034493400346E346D
:103172000034633400342E340034093402343434DD
:103182000034023401340034C0343234093404349B
:103192000034003401340334003400340034093480
:1031A2002134113401340034013422344A340034DD
:1031B2000734053481340334403400340134093493
:1031C20004340134003400340334FF34FF34003457
:1031D20009342134113401340034013422344034AE
:1031E200003416340334533400345334003420345E
:1031F200003447340034613400346D3400346534B3
:1032020000347034003461340034643400341234D5
:103212000134003402340034003400340834D83429
:1032220004346C34E73401340034013402340034A1
:103232000134203499348A349834F2349834043482
:0A324200033409340434BE34983418
:1034E8002300951108009A3174220800FC01FD019F
:1034F8000800FC302100C90549110800640080015A
:103508000131890B832A0034F0007008031D8E2ACC
:1035180001300800003008002100BF01C0011A3046
:10352800F60001309A31FD229A319A317D22080045
:10353800F2000130F0000230F100720870078600D6
:103548000030713D87000108080001302100B307F1
:103558000030B43DB53DB63D5308031D08000130A9
:10356800CA074A08031D0800FF30CA00080070088F
:10357800F5000130F3020030F43B730A0319740AB2
:103588000319080075088600870171088100013059
:10359800F507BD2A3D001215EF3090058E14013055
:1035A8002100D300CA017530E0000030E10000308E
:1035B800E200E3000030E400E5009C3155240800F7
:1035C8000B0D0B0D0139F2008B1323001513710835
:1035D800920070089100151400000000720C031C82
:1035E8008B1303188B1723001408F1001308F0003D
:1035F8000800F800761D052BF00178089C318D2411
:103608009A31F61C0C2BF001F00A78089C318D24B5
:103618007808983EF700770886000E30870076080D
:10362800810008002100D3017430E0000030E1007F
:103638000030E200E3000030E400E5009C3155244E
:103648009B313D008E101211101D2D2BFB30900563
:10365800282B2100CA010800F2009A3177229B31F9
:103668003C2BFC3021009900903027009B0008007B
:103678007208F000F1017108003A0319442B4F2B2E
:103688007008003A0319352B013A03194F2B033AF6
:1036980003194F2B4F2B08003D00181C6E2B2100DF
:1036A80058088600870180300106031D6C2B3708F7
:1036B80086003808870084300106031D6C2B5808E3
:1036C800860087010C308100580886008701811721
:1036D8003D001810DF30900508007308FA007208E2
:1036E800F9007108F8007008F7000130F4020030A2
:1036F800F53B740A0319750A03190800790886004E
:103708007A0887000108F6000130F9070030FA3D11
:103718007708860078088700760881000130F70767
:103728000030F83D792B023021005606031D9F2BEF
:10373800943119240800D6015108031DC32B4508EC
:103748008600460887004131083081004030F80083
:103758000030F9004508860046088700423178089D
:10376800C03F7908C13F45088600460887000C30ED
:103778008100450886004608870081170800D101A6
:103788000800700886000130870001308100F501CB
:1037980075087007F100710A860001308700013052
:1037A800F2000230F3007508720784000030733DA0
:1037B8008500000881000130F5070E307502031CF2
:1037C800CC2B0F30F4007008740786000130870096
:1037D80081010130F4074030740203180800E72B18
:1037E800F8010130F202720A0319222C70088600CF
:1037F800710887000108F8060130F0070030F13D34
:10380800F701F81B0E2C7808F300F4017335F50066
:10381800740D182C7808F300F401F335F40D073013
:103828007306F50000307406F6007508F8000130DC
:10383800F707083077020318F52B052C78080800DD
:10384800203021005902031C08003D008E18080092
:1038580021003F0840040319372C3F088600400820
:103868008700811B0800A030F7000030F8008C3179
:103878002C249C31F001F00AA030F1000030F20055
:103888000730F300013093311B239C31710821006C
:10389800C0007008BF00923138229C319F31402708
:1038A8000800642C01309B313023080002309B3122
:1038B800302308009A31902208009431AA24080085
:1038C80021006108003A03196D2C7F3A0319872CEF
:1038D8008C2C6008013A03195E2C033A03198C2CCE
:1038E800013A0319612C063A03198C2C773A03190B
:1038F8008C2C013A03198C2C073A03195A2C013ADB
:103908000319562C8C2C6008FF3A03198C2C8C2C2C
:103918000800F4002030F5007008F1000130F1359E
:10392800890B932C7408F2000230F235890B992C1C
:1039380072087107F3000230F335890BA02C730865
:10394800F50775088600870181137008031DB52CDB
:103958007435BB3E860087017508C03F0030C13F03
:10396800BD2C7435B73E860087017508C03F00300E
:10397800C13F75088600870101137508043E86005B
:103988008701011708002030F7000B0D0B0D0139D6
:10399800F60023001513151595160130F702770A5E
:1039A8000319012D71089200700891000130F00789
:1039B8000030F13D7208860073088700403FF4002C
:1039C800413FF50075089400720886007308870067
:1039D800010893000230F2070030F33D770803191D
:1039E80095128B137D0896007C0896009514760C2A
:1039F800031C8B1303188B17D12C151115080800FD
:103A08000130F0000230F10020005108F3005008A6
:103A1800F2000E30F4000030F5009B3171239D3127
:103A28000130240080000030F0000230F1000F3037
:103A3800F2009B31F4239D3124008F000B0D0B0DF8
:103A48000139FB008B135530F000AA30F1008F319B
:103A5800FB279D318030F0001F30F1000030F2006C
:103A68000230F3009C31C7249D319A317A227B0CB5
:103A7800031C8B1303188B1708002D302100D0006E
:103A88005E08FD39031D832D5E08EA000130EA3621
:103A9800890B4B2D6A083F39EB000230EB35890B57
:103AA800522D6B08203ED8005808C500C6010430C6
:103AB8004506C50000304606C6005808860087013E
:103AC800010C890C0F390D3A031D802D4030F00090
:103AD8000030F1005808023E86008701403FF2009E
:103AE800413FF3000830F4000030F5009B317123AA
:103AF8009D318F31BC2708009B3197230800FD308A
:103B08005E05EA0004306A06031D0800913163214E
:103B180008000030F900FA01FB0179087A078600ED
:103B2800023087007A08803EF0001F307B3DF100AC
:103B38009A31E4229D31700881000130FA07003083
:103B4800FB3D00307B02103003197A02031C912DD3
:103B580024000003031DBD2D0030F0000230F100E9
:103B68000F30F2009B31F4239D3124000F06031916
:103B780008000130810002308200033083000430E5
:103B8800840005308500063086000730870008303D
:103B980088000A3089000B308A000E308B000D3007
:103BA8008C000C308D0009308E0008000830F200BF
:103BB8000030210032020830031931020318F02DB9
:103BC8003108F2005708031DEB2D0130EF2D570384
:103BD800031DF02D0230D7007208F000F1017008C3
:103BE800B1027108B23B37088600380887004131B6
:103BF800720881004830D500301C142E292E550833
:103C0800860087012E0884002F088500000881009F
:103C18000130AE070030AF3D0130D5070130F20268
:103C2800720803190800032E5508860087012E081C
:103C380084002F088500000881000130AE0700309D
:103C4800AF3D0130D5070130F202720803190800B0
:103C5800182E20004208EB004408EC006C08031DF5
:103C6800542E02306B06031D542E210047084804C9
:103C78000319442E4708860048088700811B08005E
:103C8800F001A030F1000130F2004030F3000130C3
:103C980093311B2371082100C8007008C700080071
:103CA8006C03031D08006B03031D0800093041065F
:103CB800031D742E20302100A7000130A8004030D9
:103CC800AA000030AB00AC01AD01A91720302000DC
:103CD800D2004030D3000030D400903136200800A4
:103CE8004103031D08002030F0009B31C52320301C
:103CF8002100AE000130AF004030B1000030B2000A
:103D0800C130B000080021004E08031D0800013032
:103D1800CE004D08031D08000130CD0002305606C4
:103D2800031DA82E37088600380887004131810115
:103D38003708860038088700483081003708860031
:103D480038088700811708005603031D0800D101B1
:103D5800580A86008701083081004030F0000030A2
:103D6800F1005808023E860087017008C03F7108BC
:103D7800C13F580886008701043081005808860032
:103D8800870181170130D100450886004608870061
:103D98004131083081004030F0000030F100450822
:103DA80086004608870042317008C03F7108C13F4D
:103DB80045088600460887008030810008002000FA
:103DC800C801C901292F2100B0175403031D352F3D
:103DD8002000C814352F2100B017352F2100B01747
:103DE800200044080F39003A0319352FC41B0B2F44
:103DF80044080F39F0000130F035890B002F7008A6
:103E0800BB3E86008701403FF100413F192F44081F
:103E18000F39F0000130F035890B0F2F7008B73ECD
:103E280086008701403FF100413FF200710886009B
:103E380072088700811F352F710886007208870075
:103E4800011D352F0130C800352F40081F39003AB1
:103E58000319E72E013A0319EF2E033A0319F22E3C
:103E6800352F2100B01F08004830AE000030AF00E9
:103E780030140230B100080020000D0D0D0D01397D
:103E88009A3188229F31003A0319080020000C0E4D
:103E980001399A3188229F31003A031908000B1121
:103EA800053020009500F101F20120000D0D0D0DE7
:103EB80001399A3188229F31003A031908002000FD
:103EC8000C0E01399A3188229F31003A03190800F3
:103ED8000B1D592F0130F1070030F23D00307202FE
:103EE800FA3003197102031C9A2F03102100491D8F
:103EF8000314031C822F21004915842F2100491126
:103F0800F101F201902F20000C0E01399A3188221C
:103F18009F31003A03199A2F20000D0D0D0D01391C
:103F28009A3188229F31003A031D872F0B110530E3
:103F380020009500592F2100CC01CB0102305606F4
:103F4800031DCC2F450886004608870041310830FC
:103F580081004830F3000030F400FF307305F500AD
:103F68007F307405F6004508860046088700423110
:103F78007508C03F7608C13F450886004608870097
:103F880048308100450886004608870081170800E8
:103F9800320820004702031DD52F210031082000D8
:103FA80046020318DE2F47082100B2002000460809
:103FB8002100B1009D31DA254830F3000030F400CB
:103FC800FF307305F5007F307405F60021003708CF
:103FD80086003808870042317508C03F7608C13F1F
:103FE800370886003808870048308100370886007F
:083FF80038088700811708005A
:020000040001F9
:08000000FF3FFF3FFF3FFF3F00
:04000E00A40FCF1F4D
:00000001FF
