:041808008C310C2CE7
:101810007E148C317E10090020008C310F2CFC01CD
:10182000FD01A73084000030850037309B31D02384
:101830008C31203084000130850040309B31D02332
:101840008C31A03084000130850040309B31D023A2
:101850008C31203084000230850040309B31D02311
:101860008C31A03084000230850040309B31D02381
:101870007E1020009D31EB2D7908F1007808F000F2
:101880000030F200F3000730F4000030F5009C3126
:101890002E248C3120000D0E890C01399B31D6236A
:1018A0008C312000DC000E0C890C01399B31D623D1
:1018B0008C312000DD000D0E890C890C01399B3123
:1018C000D6238C312000DE000D0E01399B31D6234A
:1018D0008C312000DF00DB015B08923125228C3146
:1018E000003A0319A02C0030210047190130F00004
:1018F00020005B089C31AD248C312000DA005A08AE
:101900000319A02C0F305A020318A02C5A08FE3ECF
:10191000840098300318013E85000008D0005A0862
:10192000EF3E840098300318013E85000008D10086
:101930005008780786000030793D870051088104FF
:1019400001302000DB0709305B02031C6C2C780897
:101950008600870142310108F03908388100780893
:101960008600870143318030810078088600870136
:10197000443180308100780886008701453180300D
:101980008100780886008701463180308100962DDD
:1019900020005E080319D22C7808860087014331A5
:1019A0008101DB2C5F080319DB2C78088600870196
:1019B0004331FF3081005C080319E42C780886006D
:1019C00087014431810108005D0803190800780887
:1019D000860087014431FF308100080020005C0848
:1019E0000319FE2C5E080319FE2C78088600870177
:1019F00042310108F0390738810008005C080319FA
:101A00000D2D5F0803190D2D7808860087014231DE
:101A10000108F0390138810008005D0803191C2D08
:101A20005E0803191C2D78088600870142310108E1
:101A3000F0390538810008005D0803192B2D5F0877
:101A400003192B2D78088600870142310108F039EF
:101A50000338810008005C080319352D78088600DA
:101A600087014231F030810508005F080319412DDC
:101A700078088600870142310108F0390238810078
:101A800008005D0803194D2D780886008701423152
:101A90000108F0390438810008005E080319592D47
:101AA00078088600870142310108F0390638810044
:101AB000080078088600870142310108F0390838AB
:101AC0008100080020005E08031D742D5F08031DBF
:101AD0006B2D80306C2DFF30D4000030D5005508C0
:101AE000D3005408D200762DD201D30178088600A5
:101AF00087014531520881005C08031D8D2D5D086A
:101B0000031D842D8030852DFF30D8000030D90092
:101B10005908D7005808D6008F2DD601D70178086C
:101B200086008701463156088100080021004708D9
:101B30000339003A0319C82C013A0319EE2C033A71
:101B40000319622DA32D080020004203031DBA2DA6
:101B500040081F39003A031DBA2D2100B017033089
:101B600020004106031DB82D01302100D200BA2DFE
:101B70002100D20120004208031D080040081F393F
:101B8000023A031D080044080F39003A03190800FF
:101B900044080F39D70002305702031808002030DC
:101BA00021005706031D0800B0172000C41BEB2DB1
:101BB00044080F39D7000130D735890BDC2D570881
:101BC000BB3E86008701403FDB00413FDC0044080C
:101BD0000F39C13EFD2D44080F39D7000130D735EC
:101BE000890BEF2D5708B73E86008701403FDB0089
:101BF000413FDC0044080F39C33E860087010108DD
:101C0000DA005A180D2EFB30D700FF30D8005B08E1
:101C10005705DB005C085805122E04305B04DB001E
:101C200000305C04DC00C41B252E44080F39D700AB
:101C30000130D735890B192E5708BB3E8600870126
:101C40005B08C03F5C08C13F342E44080F39D70001
:101C50000130D735890B292E5708B73E86008701FA
:101C60005B08C03F5C08C13F03304106031D552E91
:101C70005B0886005C088700811F4A2EC41B442E27
:101C800044080F39C13E472E44080F39C33E860031
:101C9000870181145B0886005C08870001155B08DA
:101CA00086005C0887008117080004305B06DB00B3
:101CB00000305C06DC005B0886005C088700811F42
:101CC0007C2E5B0886005C0887007F3081055B08FE
:101CD00086005C08870001170530D1000030D20073
:101CE0005C08D4005B08D3000230D5000030D60079
:101CF0009E3120268D31812E5B0886005C0887008E
:101D00000117043020005B06DB0000305C06DC00BD
:101D1000DA18902E5B0886005C088700811FB22EBF
:101D2000C41B962E44080F39C13E992E44080F3922
:101D3000C33E8600870181105B0886005C0887002F
:101D40003B3081050530D1000030D2005C08D40062
:101D50005B08D3000230D5000030D6009E3120262B
:101D60008D31B82E5B0886005C0887003B3081050A
:101D7000200044080F39983ED900590886000E30DB
:101D80008700FE308105080021005708031DD82E6A
:101D90003D008E019201163091009F3097007B30FC
:101DA00092008E19D52E8E15D12E01302100D7002C
:101DB0005703031DE52E3D008E1AE52E900192017A
:101DC0001214121602302100D7003D001019121D06
:101DD000EE2EFB3090059C3192248E313D008E1CFE
:101DE000F42E2000121108001018121C002F95313B
:101DF00097258E3104302100D700FE303D0090053C
:101E0000101A121E062F9C3117248E313D00101F10
:101E10002C2F121F1A2F73302000D1000030D20057
:101E20000030D300D4000130D5000030D6009E3100
:101E300020268E31BF303D0090059B31F1238E313D
:101E400021004E080319262F0130CE024E08031D33
:101E50002C2F9031AD208E313D00901A921E332FE1
:101E60009C31E9248E313D009018921C482FFF30A0
:101E70002000D1007F30D2000030D300D4000130E8
:101E8000D5000030D6009E3120268E313D009301D2
:101E90000430210057020318502F200012110800AF
:101EA0003D00921D962F2100E301932F0F08210082
:101EB000DC005C0CE200E20C620C0F39D000F73061
:101EC0003D00900521005C19682F5008C13E6A2F23
:101ED0005008C33E8600870101080139E200013045
:101EE000E20601086206FE39620681005008031D01
:101EF0007D2F90310E208E318C2F72302000D1003A
:101F00000030D200DC30D3000030D4000030D500E7
:101F1000D6009E3120268E3101302100E3070430A7
:101F200063020318962F3D009019562F20001211BE
:101F300008002000400E890C0339003A031D0800F8
:101F4000D92F2100B0170830D70008009231E722BE
:101F50000800933152230800DD302100AE0000302C
:101F6000AF0030140130B100B017080091310921E1
:101F700008008D31A42508004408D83E2100AE0099
:101F80000030B02F2100B01720004408D83E860052
:101F900087014208810008000230D1000030D200E1
:101FA0000030D300D4000030D500D6009E3120266A
:101FB00008004108003A0319B62F013A0319B92F56
:101FC000023A0319B92F063A0319A12F033A03194C
:101FD000A62F013A0319CC2F0F3A0319AC2F013A5F
:101FE0000319A92F033A0319BC2F013A0319C22F71
:101FF000073A0319FC2FFC2F08009B31C32308006C
:102004002100BF01C0011A30F60001309C315F2469
:1020140090319B31CB2308002D302100CE005C0889
:10202400FD39031D50285C08E0000130E036890BBF
:10203400182860083F39E1000230E135890B1F2878
:102044006108203ED6005608C500C6010430450686
:10205400C50000304606C600560886008701010CFC
:10206400890C0F390D3A031D4D284030F000003023
:10207400F1005608023E86008701403FF200413FCE
:10208400F3000830F4000030F5009D310A2590314A
:102094009F31412708009D315C250800FD305C0517
:1020A400E00004306006031D080095311625080081
:1020B4000830F200003021003202083003193102E6
:1020C400031870283108F2005508031D6B280130ED
:1020D4006F285503031D70280230D5007208F000E4
:1020E400F1017008B1027108B23B37088600380864
:1020F40087004131720881004830D300301C942895
:10210400A9285308860087012E0884002F0885001B
:10211400000881000130AE070030AF3D0130D30725
:102124000130F2027208031908008328530886005C
:1021340087012E0884002F088500000881000130E3
:10214400AE070030AF3D0130D3070130F202720810
:1021540003190800982821004C08031D08000130C9
:10216400CC004B08031D08000130CB00023054069C
:10217400031DCE28370886003808870041318101C5
:102184003708860038088700483081003708860001
:1021940038088700811708005403031D0800CF0185
:1021A400560A86008701083081004030F000003074
:1021B400F1005608023E860087017008C03F71088E
:1021C400C13F560886008701043081005608860006
:1021D400870181170130CF00450886004608870033
:1021E4004131083081004030F0000030F1004508F2
:1021F40086004608870042317008C03F7108C13F1D
:1022040045088600460887008030810008002000C9
:10221400C801C9014F292100B0175203031D5B29CE
:102224002000C8145B292100B0175B292100B017D6
:10223400200044080F39003A03195B29C41B3129D3
:1022440044080F39F0000130F035890B2629700855
:10225400BB3E86008701403FF100413F3F294408CF
:102264000F39F0000130F035890B35297008B73E7D
:1022740086008701403FF100413FF200710886006B
:1022840072088700811F5B29710886007208870025
:10229400011D5B290130C8005B2940081F39003A41
:1022A40003190D29013A03191529033A03191829A9
:1022B4005B292100B01F08004830AE000030AF0099
:1022C40030140230B100080020000D0D0D0D01394D
:1022D4009B31D6239131003A0319080020000C0EDB
:1022E40001399B31D6239131003A031908000B11AF
:1022F400053020009500F101F20120000D0D0D0DB7
:1023040001399B31D6239131003A0319080020008A
:102314000C0E01399B31D6239131003A0319080080
:102324000B1D7F290130F1070030F23D00307202AD
:10233400FA3003197102031CC02903102100471D40
:102344000314031CA82921004715AA2921004711B9
:10235400F101F201B62920000C0E01399B31D6237C
:102364009131003A0319C02920000D0D0D0D0139DA
:102374009B31D6239131003A031DAD290B11053051
:10238400200095007F292830F0000130F100200062
:102394005008F200F3010930F4000030F5009D31DB
:1023A4000A2591313830F0000130F1002000510845
:1023B400F200F3010930F4000030F5009D310A25E4
:1023C40091312200A0010130A1002030F000013041
:1023D400F1003F30F2009D318A2591312200A200A4
:1023E4009D31302591310B0D0B0D0139FB008B1301
:1023F4005530F000AA30F1009B31C6239131803072
:10240400F0001F30F1009C31782491319B31DE23A0
:102414009131003A031D082A8030F0001F30F1008A
:10242400A030F2009E31CB2691319B31DE239131D5
:10243400003A031D172A9B31C0237B0C031C8B130A
:1024440003188B170800F200682A20000E0D0E0DE9
:1024540001399B31D623080020000E0E890C890C0B
:1024640001399B31D623080020000E0CF100F10C39
:10247400710C01399B31D623080020000C0E890C05
:1024840001399B31D623080020000E0E890C013936
:102494009B31D623080020000E0E01399B31D62330
:1024A400080020000E0C01399B31D62308002000BF
:1024B4000C0E01399B31D623080020000D0D0D0DA3
:1024C40001399B31D6230800003008007208003A15
:1024D4000319272A013A03192E2A033A0319362A23
:1024E400013A03193F2A073A0319462A013A031904
:1024F4004D2A033A0319532A013A0319592A0F3A68
:1025040003195F2A662A08002100CA01C9010230A2
:102514005406031DB32A4508860046088700413146
:10252400083081004830F3000030F400FF307305B8
:10253400F5007F307405F6004508860046088700DC
:1025440042317508C03F7608C13F450886004608F9
:1025540087004830810045088600460887008117B7
:102564000800320820004702031DBC2A210031085C
:10257400200046020318C52A47082100B2002000A3
:1025840046082100B10090315A204830F300003051
:10259400F400FF307305F5007F307405F600210068
:1025A400370886003808870042317508C03F76082E
:1025B400C13F370886003808870048308100370853
:1025C4008600380887008117080080302000400604
:1025D400031D0800C0302100B000452BDD30210070
:1025E400AE009830AF001230B1000030B2000800E5
:1025F4004208031D212B4208F000F101F035F10DD2
:102604001730700784001930713D80388500003F11
:102614002100AE00013FAF0002302E0784002F08D6
:102624000318013E85000008B10003302E07840022
:102634002F080318013E85000008B200080021009D
:10264400B0010800033042020318212B4208F000B5
:10265400F101F035F10D0D30700784001930713D32
:1026640080388500003F2100AE00013FAF002E08F6
:1026740084002F0885000008F000F1017008B10003
:102684007108B200080020004308013A0319F02A37
:10269400033A0319FA2A013A0319242B212B0800BF
:1026A4002100B01799302000D700D80157088600C0
:1026B4000E30870081010130D7070130D807580850
:1026C4000319582B2030F0000030F1000030F200E4
:1026D400F3002030F4000030F5009C312E249331B7
:1026E4003D000E172000D9015908C33E860087011A
:1026F40081015908C13E8600870181010130D90753
:1027040002305902031C762BD830F0000030F1005F
:102714000030F200F3000230F4000030F5009C3188
:102724002E2493313D000E1328302100B7000030D1
:10273400B8002030D6005608C500C6012000420863
:102744002100DD005D08031DAA2B1030D70008000E
:1027540001302000D1000030D200DD30D300003041
:10276400D4000130D5000030D6009E312026203020
:102774002100D700080020000D0D0D0D01399B31FB
:10278400D6239331003A0319080020000E0C0139B6
:102794009B31D6239331003A031908000B110530FD
:1027A40020009500F101F20120000D0D0D0D0139FD
:1027B4009B31D6239331003A0319080020000E0CF4
:1027C40001399B31D6239331003A031908000B1DBC
:1027D400D62B0130F1070030F23D00307202FA309E
:1027E400031971020318032C262C4708FC390138FD
:1027F400FE2B4708FC390238C700102CFC30C705F3
:10280400102C210047080339003A0319F72B013A29
:102814000319FB2B033A0319002C102CF101F201CC
:102824001C2C20000E0C01399B31D6239331003A25
:102834000319262C20000D0D0D0D01399B31D623D3
:102844009331003A031D132C0B1105302000950021
:10285400D62B3D000E122100B01B682CA91F3D2C65
:102864000230D4004908031D392C923186222100FC
:10287400CB01CC0108004508860046088700413199
:10288400083081004030F7000030F8004508860029
:102894004608870042317708C03F7808C13F4508A1
:1028A4008600460887000C308100450886004608EB
:1028B40087008117370886003808870004308100B4
:1028C4003708860038088700811708002000C01FD9
:1028D4007D2C01302100D4004A08031D742C923150
:1028E400862294312100CB01CC014D08031D080040
:1028F4009031AD20080002302100D4004508860044
:10290400460887004131083081004030F70000302C
:10291400F800450886004608870042317708C03F22
:102924007808C13F450886004608870004308100C6
:1029340045088600460887008117752CF800700842
:102944000319AC2C7835B73E86008701403FF90067
:10295400413FB32C7835BB3E86008701403FF900E8
:10296400413FFA0079087A04031DBB2CF001F10100
:102974000800FF307105F4007F307205F500790816
:1029840086007A08870042317408C03F7508C13F49
:10299400790886007A088700413173088100790834
:1029A40086007A08870040308105790886007A0815
:1029B40087008115790886007A08870081177008D6
:1029C4000319FB2C7835B73E86008701403FF4009D
:1029D400413FF50004307406F60000307506F70038
:1029E4007835B73E860087017608C03F7708C13F37
:1029F400112D7835BB3E86008701403FF400413FEE
:102A0400F50004307406F60000307506F7007835DA
:102A1400BB3E860087017608C03F7708C13F7A082D
:102A2400F1007908F0000800210037088600380812
:102A34008700010E890C890C01392000EE00043056
:102A440021003706B70000303806B80008305706B2
:102A5400031D392D200042087F393D0096001608D9
:102A64000319362D1030372D04302100D7005403BC
:102A7400031D842D48302000EA000030EB00FF30B5
:102A84006A05EC007F306B05ED00210037088600F5
:102A940038088700423120006C08C03F6D08C13FF0
:102AA40090315A209531023021005506031D662DC0
:102AB400370886003808870004308100370886000C
:102AC400380887008117080020006E08031D772D41
:102AD400210037088600380887004830810037080D
:102AE400860038088700811708002100370886000F
:102AF40038088700083081003708860038088700C6
:102B040081170800A91F952D2C082D040319932D56
:102B14000530A73E86008701413F8A00403F0A00F6
:102B240095312100A913D4010800210012113D00A0
:102B34009301900198019930F100F2017108860027
:102B44000E30870081010130F1070130F20772086D
:102B54000319A02D16303D0091009F3097007B3063
:102B64009200F3017308F0000230F035890BB72DA1
:102B74007008203E860087010030C03F0030C13F0E
:102B8400C23FC33F0130F30708307302031CB42D66
:102B94003D000E1796010E120E13F730900521001A
:102BA400B001A901AA01AB013D009019CF2D01305C
:102BB4002100CC000130CB00CA01C901D101F301CD
:102BC4007335B73E860087010030C03FC13F73357F
:102BD400BB3E860087010030C03FC13F7308C33E3F
:102BE4008600870181017308C13E86008701810147
:102BF4000130F30702307302031CE22D2830210058
:102C0400B7000030B80016303D00980000302000B6
:102C1400A3004030A2000830A1000430A000A01797
:102C24002100DD010030B6000030B5000030B400F2
:102C34000030B300C801D7010800200040081F3944
:102C4400013A031D0800023044020318080006304C
:102C5400410603195E2E692E21005D03031D692EB2
:102C640020004408031D422E90302100AE0098300D
:102C7400AF000930B1000030B200C030B000692E9E
:102C84004403031D692EAB302100AE0098303A2E68
:102C94004408031D542E00302100AE009830AF00CC
:102CA4004A303C2E4403031D692EC8302100AE0077
:102CB4009830AF0015303C2E4308213A03192E2ECC
:102CC400033A03194A2E013A0319692E692E20008A
:102CD400400E890C0339013A031D08009C2E9F31D4
:102CE40006270800DB302100AE000030AF000130C1
:102CF400B1000030B200C130B000080080302100C3
:102D0400B000200043082100DB000800DA30210075
:102D1400AE000030AF000130B1000030B2008130AD
:102D2400B000080080302100B000200042082100DB
:102D3400DA0008004108013A0319712E033A031915
:102D4400742E013A0319882E0A3A0319712E033A94
:102D54000319802E013A0319942EB02E0800FB01AA
:102D64007B08803EF0001F3003182030F1009C31B6
:102D7400462496317108FA007008F9007B08203E59
:102D8400860087010130873D790881000130FB0707
:102D940040307B02031CB22E22002103031DDF2ED0
:102DA4002030F0000130F1003F30F2009D318A25DF
:102DB400963122002206031908000130A8000230CF
:102DC400A9000330AA000430AB000530AC00063083
:102DD400AD000730AE000830AF000930B00001305C
:102DE400B8000230B9000330BA000D30BB000E3019
:102DF400BC000C30BD000A30BE000B30BF000930EF
:102E0400C000A0012330F0000130F1000030F200D6
:102E1400F3000530F4000030F5009C312E24963187
:102E24003130F0000130F1000030F200F3000730DF
:102E3400F4000030F5009C312E2496314130F0002E
:102E44000130F1000030F200F3000730F4000030EC
:102E5400F5009C312E2496314830F0000130F10009
:102E64000030F200F3001830F4000030F5009C311B
:102E74002E24963101302200A1002030F0000130D0
:102E8400F1003F30F2009D318A252200A2000800A3
:102E94002100560A8600870101082000EF006F0810
:102EA400EA00EB016B0821002B02031D5D2F2000BB
:102EB4006A0821002A020318622F2A082000EF0062
:102EC40020006F08EA00EB016A082100AA02200032
:102ED4006B082100AB3B2000EE016F086E02031863
:102EE400882F2100270886002808870020006E0804
:102EF400483E840085010008810001302100A707B5
:102F04000030A83D01302000EE076F2F21002A0871
:102F14002B040319C82F4508860046088700413151
:102F24000830810048302000EA000030EB00FF3018
:102F34006A05EC007F306B05ED0021004508860032
:102F440046088700423120006C08C03F6D08C13F2D
:102F54002100560886008701011BBC2F4508860006
:102F640046088700483081004508860046088700E7
:102F7400811708004508860046088700083081004C
:102F84004508860046088700811708004508860022
:102F94004608870041310830810040302000EA00B3
:102FA4000030EB00210045088600460887004231C6
:102FB40020006A08C03F6B08C13F21004508860015
:102FC40046088700043081004508860046088700CB
:102FD40081172C082D040319F82F0530A73E86000D
:102FE4008701413F8A00403F0A0097312100A9131D
:102FF4004D08031D08009031AD200800053401344C
:1030040009340534A1340134153400342534013431
:1030140035340034453401347534013495340E3478
:10302400053409341934013429340E34813402341A
:1030340095340234813401340534013425340734A1
:1030440046343B34013475340434953401346534E6
:1030540014340934393481344234653400349534B9
:103064000134813401342634FF3400344634FF34CF
:1030740000340934303409343134093432340934F5
:103084003534753408349534043481340234C0340E
:10309400343403344D34003469340034633400343C
:1030A400723400346F3400346334003468340034D0
:1030B400693400347034003420340034543400341F
:1030C4006534003463340034683400346E340034BE
:1030D4006F3400346C3400346F340034673400349B
:1030E4007934003420340034493400346E340034EC
:1030F400633400342E34003409340234343400345C
:10310400023401340034C034323409340434003419
:1031140000340134033400340034003409342134DD
:10312400113401340034013422344A340034073475
:103134000534813403344034003401340934043414
:103144000134003400340334FF34FF3400340934D0
:103154002134113401340034013422341534003460
:1031640016340334533400345334003420340034DC
:1031740047340034613400346D3400346534003431
:103184007034003461340034643400340634003460
:10319400FF3409340134A1340134153400342634A5
:1031A400FF34003475340834953440340934013420
:1031B400B1340234C03412340134003402340034E3
:1031C400003400340834D83404346C34E734013423
:1031D4000034013402340034013400340134023444
:1031E400043408341034203440348034013402343C
:1031F40004340834103420340034003400340034EF
:103204000034003400340034003401340134013417
:10321400013401340134133499344A349834B234C7
:0E322400983404340334093404347E3498346E
:10378000FC01FD0108002300951108007108FC00F0
:103790007008FD000800FC302100C7054711080033
:1037A000640080010131890BD12B0034F0007008D6
:1037B000031DDC2B01300800003008000130F00050
:1037C0002300951C1518E52BF00170080800203027
:1037D0002000D2004030D3000030D4009E31582663
:1037E000080001302100B3070030B43DB53DB63DBF
:1037F0005108031D08000130C8074808031D0800D0
:10380000FF30C80008007B08F0000230F1002030D3
:10381000F2000130F3004030F4000030F5009D313B
:103820000A257B08860002308700810108003D00E0
:103830001215EF3090058E1401302100D100C8011F
:1038400075302000D1000030D2000030D300D40009
:103850000030D500D6009E31202608007108F70000
:103860007008F6000130F4020030F53B740A0319C9
:10387000750A031908007608860077088700720821
:1038800081000130F6070030F73D322C0B0D0B0D97
:103890000139F2008B132300151371089200700890
:1038A0009100151400000000720C031C8B13031808
:1038B0008B1723001408F1001308F0000800F8002B
:1038C000761D672CF00178089E3191269C31F61CFC
:1038D0006E2CF001F00A78089E3191267808983E07
:1038E000F700770886000E30870076088100080010
:1038F0000B0D0B0D0139F2008B132300151371080A
:10390000920070089100151615157D0896007C0828
:1039100096009514720C031C8B1303188B1715114A
:10392000150808002100D10174302000D1000030BA
:10393000D2000030D300D4000030D500D6009E3134
:1039400020269C313D008E101211101DAA2CFB3038
:103950009005A52C2100C8010800F3007008031D84
:10396000BD2C2830F1000130F20073087107860089
:103970000030723D8700010808003830F100013046
:10398000F2007308710786000030723D870001085D
:103990000800F2008F31FD279C31D52CFC3021002E
:1039A0009900903027009B0008007208F000F10198
:1039B0007108003A0319DD2CE82C7008003A03194D
:1039C000CE2C013A0319E82C033A0319E82CE82C11
:1039D00008003D00181C072D2100560886008701AD
:1039E00080300106031D052D370886003808870042
:1039F00084300106031D052D5608860087010C3012
:103A0000810056088600870181173D001810DF30BD
:103A1000900508007308FA007208F9007108F800B0
:103A20007008F7000130F4020030F53B740A031906
:103A3000750A03190800790886007A0887000108CA
:103A4000F6000130F9070030FA3D77088600780863
:103A50008700760881000130F7070030F83D122D0D
:103A6000F2017235A03E860001308700FF30C03F72
:103A70003F30C13F0130F20720307202031C312D6C
:103A8000F3017308203E860087010130873D003036
:103A90000104F0003F30F1007335A03E8600013094
:103AA00087007008C03F7108C13F0130F307403004
:103AB000730203180800412D023021005406031D33
:103AC000642D97314A270800D4014F08031D882D23
:103AD00045088600460887004131083081004030A3
:103AE000DE000030DF0045088600460887004231CE
:103AF0005E08C03F5F08C13F450886004608870052
:103B00000C308100450886004608870081170800B0
:103B1000CF010800F8010130F202720A0319B82D32
:103B200070088600710887000108F8060130F00768
:103B30000030F13DF701F81BA42D7808F300F401E3
:103B40007335F500740DAE2D7808F300F401F335EC
:103B5000F40D07307306F50000307406F6007508A2
:103B6000F8000130F7070830770203188B2D9B2DE2
:103B700078080800203021005702031C08003D008F
:103B80008E18080021003F0840040319CD2D3F087E
:103B9000860040088700811B0800A030F800003034
:103BA000F9008C313C249D31F001F00AA030F10085
:103BB0000030F2000730F30001309431A0249D3131
:103BC00071082100C0007008BF009331BD239D31F2
:103BD00091316621080000309C31C9249D31953116
:103BE00097259D319631B1269D31303021008C00D2
:103BF000F0308D00FF308E009513303024008C00A3
:103C000070308D0023008C018D018E010730210062
:103C1000950495111512951215178B170530200074
:103C200095008E31C4269D31203021005702031C9F
:103C3000112E3D008E18112E9D31BA259D31112E69
:103C40002F2E01309C31C924080002309C31C92438
:103C5000080090310220080096311F26080020003D
:103C60005208003A0319382E7F3A0319522E572E64
:103C70005108013A0319292E033A0319572E013A24
:103C800003192C2E063A0319572E773A0319572E8B
:103C9000013A0319572E073A0319252E013A031941
:103CA000212E572E5108FF3A0319572E572E080080
:103CB000003020005402403003195302031C080056
:103CC000E8016808563E8600870168085207D5005B
:103CD0005508083E8400023085000008810001304C
:103CE000E80709306802031C612EE90169085F3E9C
:103CF0008600870169085207D5005508183E8400E0
:103D000002308500000881000130E90709306902AE
:103D1000031C762E5630D0005F30D1009131C52182
:103D20000800F4002030F5007008F1000130F13592
:103D3000890B972E7408F2000230F235890B9D2E04
:103D400072087107F3000230F335890BA42E730853
:103D5000F50775088600870181137008031DB92EC9
:103D60007435BB3E860087017508C03F0030C13FF7
:103D7000C12E7435B73E860087017508C03F0030FC
:103D8000C13F75088600870101137508043E86004F
:103D90008701011708002030F6000B0D0B0D0139CB
:103DA000F50023001513151595160130F602760A55
:103DB0000319032F71089200700891000130F00779
:103DC0000030F13D7208860001308700403FF3006B
:103DD000413FF400740894007208860001308700A7
:103DE000010893000230F2077608031995128B132D
:103DF0007D0896007C0896009514750C031C8B13A7
:103E000003188B17D52E151115080800200042083D
:103E10004408D0005003031D080009304106031D6B
:103E2000202F20302100A7000230A8004030AA0037
:103E30000030AB00E730AC001B30AD00A917080024
:103E40004103031D08002030F0000230F100003073
:103E5000F200F3004030F4000030F5009C312E24D5
:103E60009F312030FB009C31032420302100AE0024
:103E70000230AF004030B1000030B200C130B000BD
:103E800008002100D501CD01CA01C901CF01D4012B
:103E900037088600380887007F30810504303706F0
:103EA000B70000303806B8003708860038088700A9
:103EB0007F30810504303706B70000303806B8007F
:103EC00045088600460887007F308105B001B101B2
:103ED000B201A901AA01AB018F3199279F310330AB
:103EE0002000D1000030D2000030D300D4000030D8
:103EF000D500D6009E3120269F3194312B24080016
:020000040001F9
:08000000FF3FFF3FFF3FFF3F00
:04000E00A40FCF1F4D
:00000001FF
