:041808008C310C2CE7
:101810007E148C317E10090020008C310F2CFC01CD
:10182000FD01A73084000030850037309A31462210
:101830008C31203084000130850050309A314622AE
:101840008C31A03084000130850040309A3146222E
:101850008C31203084000230850040309A3146229D
:101860007E1020009C31282C2000D801D901580876
:10187000770786005908783D870081010130D80735
:101880000030D93D00305902073003195802031CBB
:10189000372C0D0E890C01399A314C228C312000E5
:1018A000DA000E0C890C01399A314C228C3120005F
:1018B000DB000D0E890C890C01399A314C228C31D8
:1018C0002000DC000D0E01399A314C228C312000B1
:1018D000DD000D0D0D0D01399A314C228C31F900CE
:1018E000770886008701413101087906FE397906BB
:1018F000810021004719112D20000E0D0E0D013918
:101900009A314C228C31F9007708860078088700DC
:1019100001087906FE397906810020000E0E890C37
:10192000890C01399A314C228C31F90077088600F4
:1019300078088700F90D01087906FD3979068100DC
:1019400020000E0CF900F90C790C01399A314C2267
:101950008C31FA007708860078088700FA0DFA0DB6
:1019600001087A06FB397A06810020000C0E890CEA
:1019700001399A314C228C31F900770886007808B9
:101980008700F90DF90DF90D01087906F739790687
:10199000810020000E0E890C01399A314C228C31C5
:1019A000F9007708860078088700F90E01087906A3
:1019B000EF397906810020000E0E01399A314C2250
:1019C0008C31F9007708860078088700F90EF90D48
:1019D00001087906DF397906810020000E0C0139F3
:1019E0009A314C228C31F9007708860078088700FC
:1019F000F90EF90DF90D01087906BF397906810054
:101A000020000C0E01399A314C228C31F9007708F4
:101A1000860078088700F90CF90C010879067F39EF
:101A2000A52D471DA72D20000E0D0E0D01399A3151
:101A30004C228C31F900770886007808870001086D
:101A40007906FE397906810020000E0E890C890C7A
:101A500001399A314C228C31F900770886007808D8
:101A60008700F90D01087906FD397906810020000B
:101A70000E0CF900F90C790C01399A314C228C3199
:101A8000FA007708860078088700FA0DFA0D010839
:101A90007A06FB397A06810020000E0C01399A3152
:101AA0004C228C31F9007708860087014131F90D0D
:101AB00001087906FD397906810020000C0E0139F4
:101AC0009A314C228C31F900770886008701413128
:101AD000F90DF90D01087906FB397906810020001E
:101AE0000E0E890C01399A314C228C31F90077089D
:101AF000860087014131F90EF90D01087906DF39B9
:101B00007906810020000C0E890C01399A314C2293
:101B10008C31F9007708860087014131F90E010800
:101B20007906EF397906810020000E0E01399A31CD
:101B30004C228C31F9007708860087014131F90D7C
:101B4000F90DF90D01087906F739790681002100B0
:101B50004719CB2D20000D0D0D0D01399A314C2266
:101B60008C31003A0319CB2D20000E0C01399A312B
:101B70004C228C31003A0319CB2D7808F4007708F9
:101B8000F3000C309A3167228C31F500F601F60A29
:101B9000963171268C317708860087014231010821
:101BA000F03908388100770886008701433180309A
:101BB00081007708860087014431803081007708F2
:101BC00086008701453180308100770886008701D3
:101BD000463180308100BA2E20005C080319F62DB2
:101BE00077088600870143318101FF2D5D080319C5
:101BF000FF2D7708860087014331FF3081005A08A6
:101C00000319082E770886008701443181010800F6
:101C10005B08031908007708860087014431FF300C
:101C20008100080020005A080319222E5C080319BD
:101C3000222E77088600870142310108F0390738E3
:101C4000810008005A080319312E5D080319312E4E
:101C500077088600870142310108F0390138810098
:101C600008005B080319402E5C080319402E770812
:101C70008600870142310108F039053881000800EB
:101C80005B0803194F2E5D0803194F2E7708860055
:101C9000870142310108F0390338810008005A08F1
:101CA0000319592E7708860087014231F0308105EB
:101CB00008005D080319652E770886008701423108
:101CC0000108F0390238810008005B080319712E01
:101CD00077088600870142310108F0390438810015
:101CE00008005C0803197D2E7708860087014231C1
:101CF0000108F0390638810008007708860087015E
:101D000042310108F03908388100080020005C08E1
:101D1000031D982E5D08031D8F2E8030902EFF30FE
:101D2000D2000030D3005308D1005208D0009A2EC0
:101D3000D001D10177088600870145315008810024
:101D40005A08031DB12E5B08031DA82E8030A92E52
:101D5000FF30D6000030D7005708D5005608D40011
:101D6000B32ED401D5017708860087014631540887
:101D700081000800210047080339003A0319EC2DBF
:101D8000013A0319122E033A0319862EC72E0800B2
:101D900020004203031DDE2E40081F39003A031DB8
:101DA000DE2E2100B017033020004106031DDC2E7B
:101DB00001302100D200DE2E2100D2012000420895
:101DC000031D080040081F39023A031D080044089B
:101DD0000F39003A0319080044080F39F90002309E
:101DE000790203180800203021005706031D08005F
:101DF000B0172000C41B0F2F44080F39F900013021
:101E0000F935890B002F7908BB3E86008701403FDA
:101E1000D800413FD90044080F39C13E212F440862
:101E20000F39F9000130F935890B132F7908B73EC6
:101E300086008701403FD800413FD90044080F3950
:101E4000C33E860087010108D7005718312FFB30A9
:101E5000F900FF30FA0058087905D80059087A05CA
:101E6000362F04305804D80000305904D900C41B60
:101E7000492F44080F39F9000130F935890B3D2FFE
:101E80007908BB3E860087015808C03F5908C13F0A
:101E9000582F44080F39F9000130F935890B4D2FBF
:101EA0007908B73E860087015808C03F5908C13FEE
:101EB00003304106031D792F580886005908870012
:101EC000811F6E2FC41B682F44080F39C13E6B2F32
:101ED00044080F39C33E86008701811458088600E4
:101EE000590887000115580886005908870081178E
:101EF000080004305806D80000305906D9005808A8
:101F0000860059088700811FA02F580886005908AD
:101F100087007F308105580886005908870001171F
:101F20000530D0000030D1005908D3005808D20045
:101F30000230D4000030D5009C315D248E31A52FB5
:101F400058088600590887000117043020005806F9
:101F5000D80000305906D900D718B42F5808860089
:101F600059088700811FD62FC41BBA2F44080F3988
:101F7000C13EBD2F44080F39C33E86008701811042
:101F800058088600590887003B3081050530D0008D
:101F90000030D1005908D3005808D2000230D400D4
:101FA0000030D5009C315D248E31DC2F580886002E
:101FB000590887003B308105200044080F39983EBE
:101FC000D600560886000E308700FE3081050800D6
:101FD0007108F7007008F6000130F4020030F53B9C
:101FE000740A0319750A0319080076088600770831
:101FF0008700720881000130F6070030F73DEC2FB2
:102000002100BF01C0011A30F60001309A31B6221A
:1020100090319A31412208002000C801C90152289C
:102020002100B0175203031D5E282000C8145E284B
:102030002100B0175E282100B017200044080F3996
:10204000003A03195E28C41B342844080F39F000F5
:102050000130F035890B29287008BB3E86008701C6
:10206000403FF100413F422844080F39F000013061
:10207000F035890B38287008B73E86008701403F4D
:10208000F100413FF2007108860072088700811F4D
:102090005E287108860072088700011D5E280130E5
:1020A000C8005E2840081F39003A03191028013A79
:1020B00003191828033A03191B285E282100B01FB2
:1020C00008004830AE000030AF0030140230B100DC
:1020D000080020000D0D0D0D01399A314C22903170
:1020E000003A0319080020000C0E01399A314C22E5
:1020F0009031003A031908000B11053020009500BB
:10210000F101F20120000D0D0D0D01399A314C2223
:102110009031003A0319080020000C0E01399A3161
:102120004C229031003A031908000B1D822801301F
:10213000F1070030F23D00307202FA3003197102EB
:10214000031CC32803102100471D0314031CAB28E4
:1021500021004715AD2821004711F101F201B928EE
:1021600020000C0E01399A314C229031003A0319AB
:10217000C32820000D0D0D0D01399A314C229031EC
:10218000003A031DB0280B1105302000950082286D
:102190002100CA01C90102305406031DF528450873
:1021A0008600460887004131083081004830F3003E
:1021B0000030F400FF307305F5007F307405F60041
:1021C000450886004608870042317508C03F7608FA
:1021D000C13F450886004608870048308100450811
:1021E0008600460887008117080032082000470251
:1021F000031DFE282100310820004602031807298C
:1022000047082100B200200046082100B1009E319D
:1022100074264830F3000030F400FF307305F500F9
:102220007F307405F60021003708860038088700E3
:1022300042317508C03F7608C13F3708860038082C
:1022400087004830810037088600380887008117EA
:1022500008002000400E890C0339003A031D0800D5
:1022600069292100B0170830D70008009131F62104
:10227000080091318D210800DD302100AE000030D2
:10228000AF0030140130B100B017080090310C20BD
:1022900008008E31C82608004408D83E2100AE0050
:1022A000003040292100B01720004408D83E8600A5
:1022B00087014208810008000230D0000030D100C0
:1022C0000030D200D3000030D400D5009C315D2412
:1022D00008004108003A03194629013A031949291F
:1022E000023A03194929063A03193129033A031915
:1022F0003629013A03195C290F3A03193C29013A9E
:1023000003193929033A03194C29013A03195229AF
:10231000073A03198C298C2908002100B01799303D
:10232000F900FA01790886000E308700810101303A
:10233000F9070130FA077A08031992292030F000D2
:102340000030F1000030F200F3002030F4000030E3
:10235000F5008F31E82791313D000E17FB017B0816
:10236000C33E8600870181017B08C13E860087014C
:1023700081010130FB0702307B02031CAF29D830FA
:10238000F0000030F1000030F200F3000230F40001
:102390000030F5008F31E82791313D000E132830D1
:1023A0002100B7000030B8002030D6005608C50024
:1023B000C601200042082100DD005D08031DE3295D
:1023C0001030D700080001302000D0000030D100CC
:1023D000DD30D2000030D3000130D4000030D50011
:1023E0009C315D2420302100D7000800803020007F
:1023F0004006031D0800C0302100B000542ADD3023
:102400002100AE009830AF001230B1000030B200B1
:1024100008004208031D302A4208F000F101F0359F
:10242000F10DF930700784001830713D8038850057
:10243000003F2100AE00013FAF0002302E078400B4
:102440002F080318013E85000008B10003302E0755
:1024500084002F080318013E85000008B200080020
:102460002100B0010800033042020318302A42085C
:10247000F000F101F035F10DEF30700784001830F5
:10248000713D80388500003F2100AE00013FAF0064
:102490002E0884002F0885000008F000F101700864
:1024A000B1007108B200080020004308013A031986
:1024B000FF29033A0319092A013A0319332A302A5A
:1024C000080020000D0D0D0D01399A314C2292317A
:1024D000003A0319080020000E0C01399A314C22F1
:1024E0009231003A031908000B11053020009500C5
:1024F000F101F20120000D0D0D0D01399A314C2230
:102500009231003A0319080020000E0C01399A316B
:102510004C229231003A031908000B1D7A2A01302F
:10252000F1070030F23D00307202FA3003197102F7
:102530000318A72ACA2A4708FC390138A22A4708E3
:10254000FC390238C700B42AFC30C705B42A210080
:1025500047080339003A03199B2A013A03199F2AB5
:10256000033A0319A42AB42AF101F201C02A200077
:102570000E0C01399A314C229231003A0319CA2AC1
:1025800020000D0D0D0D01399A314C229231003A87
:10259000031DB72A0B110530200095007A2A200070
:1025A000D1015135203E860001308700FF30C03F09
:1025B000FF30C13F0130D10720305102031CD12A26
:1025C0006030D000D3015308F0000130F036890BA1
:1025D000E62A7008D200531C172B500853078600B8
:1025E000013087000108F000F1017008F100F001EE
:1025F0005235203E860001308700403FF300413FC6
:10260000F400FF307305F50000307405F600700823
:102610007504F70071087604F8005235203E8600F4
:10262000013087007708C03F7808C13F3D2B500834
:1026300053078600013087000108F000F101523590
:10264000203E860001308700403FF200413FF3000A
:1026500000307205F400FF307305F5007008740453
:10266000F60071087504F7005235203E86000130EF
:1026700087007608C03F7708C13F0130D30710308C
:10268000530203180800E32A3D000E122100B01B7C
:10269000812BA91F562B0230D4004908031D522B51
:1026A0009031C8202100CB01CC01080045088600EC
:1026B000460887004131083081004030F700003083
:1026C000F800450886004608870042317708C03F79
:1026D0007808C13F45088600460887000C30810015
:1026E00045088600460887008117370886003808A5
:1026F000870004308100370886003808870081177A
:1027000008002000C01F962B01302100D4004A0889
:10271000031D8D2B9031C82093312100CB01CC01BA
:102720004D08031D08009E31C72608000230210015
:10273000D4004508860046088700413108308100F2
:102740004030F7000030F800450886004608870052
:1027500042317708C03F7808C13F450886004608E7
:1027600087000430810045088600460887008117ED
:102770008E2BF80070080319C52B7835B73E8600FC
:102780008701403FF900413FCC2B7835BB3E8600A6
:102790008701403FF900413FFA0079087A04031DA0
:1027A000D42BF001F1010800FF307105F4007F30F7
:1027B0007205F500790886007A08870042317408AE
:1027C000C03F7508C13F790886007A08870041310B
:1027D00073088100790886007A08870040308105F7
:1027E000790886007A0887008115790886007A08BA
:1027F0008700811770080319142C7835B73E8600BE
:102800008701403FF400413FF50004307406F600B4
:1028100000307506F7007835B73E860087017608E8
:10282000C03F7708C13F2A2C7835BB3E8600870120
:10283000403FF400413FF50004307406F6000030DC
:102840007506F7007835BB3E860087017608C03FE5
:102850007708C13F7A08F1007908F00008002100EC
:102860003708860038088700010E890C890C013969
:102870002000EE00043021003706B7000030380693
:10288000B80008305706031D522C200042087F393B
:102890003D009600160803194F2C1030502C0430C0
:1028A0002100D7005403031D9A2C4830DE0000306D
:1028B000DF00FF305E05E0007F305F05E100370894
:1028C00086003808870042316008C03F6108C13F78
:1028D0009E3174269431023021005506031D7C2C54
:1028E00037088600380887000430810037088600E2
:1028F000380887008117080020006E08031D8D2C02
:1029000021003708860038088700483081003708E2
:1029100086003808870081170800210037088600E4
:10292000380887000830810037088600380887009B
:1029300081170800A91FAB2C2C082D040319A92C02
:102940000530A73E86008701413F8A00403F0A00CC
:1029500094312100A913D4010800210012113D0077
:102960009301900198019930F100F20171088600FD
:102970000E30870081010130F1070130F207720843
:102980000319B62C16303D0091009F3097007B3024
:102990009200F3017308F0000230F035890BCD2C62
:1029A0007008203E860087010030C03F0030C13FE4
:1029B000C23FC33F0130F30708307302031CCA2C27
:1029C0003D000E1796010E120E13F73090052100F0
:1029D000B001A901AA01AB013D009019E52C01301D
:1029E0002100CC000130CB00CA01C901D101F301A3
:1029F0007335B73E860087010030C03FC13F733555
:102A0000BB3E860087010030C03FC13F7308C33E14
:102A10008600870181017308C13E8600870181011C
:102A20000130F30702307302031CF82C2830210018
:102A3000B7000030B80016303D009800003020008C
:102A4000A3004030A2000830A1000430A000A0176D
:102A50002100DD010030B6000030B5000030B400C8
:102A60000030B300C801D7010800200040081F391A
:102A7000013A031D08000230440203180800063022
:102A800041060319742D7F2D21005D03031D7F2D49
:102A900020004408031D582D90302100AE009830CE
:102AA000AF000930B1000030B200C030B0007F2D5F
:102AB0004403031D7F2DAB302100AE009830502D14
:102AC0004408031D6A2D00302100AE009830AF008D
:102AD0004A30522D4403031D7F2DC8302100AE0023
:102AE0009830AF001530522D4308213A0319442D78
:102AF000033A0319602D013A03197F2D7F2D200021
:102B0000400E890C0339013A031D0800B22D9D3196
:102B10000A250800DB302100AE000030AF00013094
:102B2000B1000030B200C130B00008008030210098
:102B3000B000200043082100DB000800DA3021004B
:102B4000AE000030AF000130B1000030B200813083
:102B5000B000080080302100B000200042082100B1
:102B6000DA0008004108013A0319872D033A0319D6
:102B70008A2D013A03199E2D0A3A0319872D033A2B
:102B80000319962D013A0319AA2DC62D080021001C
:102B9000560A8600870101082000EF006F08210017
:102BA000DE00DF015F082B02031DD82D5E082A021C
:102BB0000318DD2D2A082000EF0020006F082100F7
:102BC000DE00DF015E08AA025F08AB3B2000EE01D9
:102BD0006F086E020318012E2100270886002808BE
:102BE000870020006E08483E8400850100088100AF
:102BF00001302100A7070030A83D01302000EE077A
:102C0000E82D21002A082B0403193D2E45088600D3
:102C1000460887004131083081004830DE0000302E
:102C2000DF00FF305E05E0007F305F05E100450812
:102C300086004608870042316008C03F6108C13FF6
:102C4000560886008701011B312E4508860046087C
:102C500087004830810045088600460887008117B4
:102C600008004508860046088700083081004508AE
:102C70008600460887008117080045088600460838
:102C800087004131083081004030DE000030DF0035
:102C9000450886004608870042315E08C03F5F084D
:102CA000C13F45088600460887000430810045087A
:102CB00086004608870081172C082D040319692E09
:102CC0000530A73E86008701413F8A00403F0A0049
:102CD00096312100A9134D08031D08009E31C72617
:102CE0000800FE2E730886007408870076080139F4
:102CF0000110031D01140800730886007408870082
:102D0000760801398110031D8114080073088600BC
:102D100074088700760801390111031D01150800A8
:102D20007308860074088700760801398111031D35
:102D30008115080073088600740887007608013939
:102D40000112031D0116080073088600740887002D
:102D5000760801398112031D811608007308860068
:102D600074088700760801390113031D0117080054
:102D70007308860074088700760801398113031DE3
:102D800081170800730886008701413176080139F0
:102D90000110031D011408007308860087014131EA
:102DA000760801398110031D81140800730886001C
:102DB00087014131760801390111031D0115080011
:102DC0007308860087014131760801398111031D9E
:102DD00081150800730886008701413176080139A2
:102DE0000112031D01160800730886008701413196
:102DF000760801398112031D811608007508013A11
:102E00000319722E033A03197C2E013A0319862EF8
:102E1000073A0319902E013A03199A2E033A03191F
:102E2000A42E013A0319AE2E0F3A0319B82E013A17
:102E30000319C22E033A0319CC2E013A0319D62ED8
:102E4000073A0319E02E013A0319EA2E033A03194F
:102E5000F42E2A2F080021005708031D3F2F3D00A4
:102E60008E019201163091009F3097007B309200C6
:102E70008E193C2F8E15382F01302100D7005703B3
:102E8000031D4C2F3D008E1A4C2F900192011214FD
:102E9000121602302100D7003D001019121D552FC7
:102EA000FB3090059A31E92297313D008E1C5B2F53
:102EB0002000121108001018121C672F9431AD2445
:102EC000973104302100D700FE303D009005101AE4
:102ED000121E6D2F9A31862297313D00101F932FBD
:102EE000121F812F73302000D0000030D10000303D
:102EF000D200D3000130D4000030D5009C315D24D5
:102F00009731BF303D0090059A31742297312100EE
:102F10004E0803198D2F0130CE024E08031D932F4A
:102F20009E31C72697313D00901A921E9A2F9B31F1
:102F3000242397313D009018921CAF2FFF302000C2
:102F4000D0007F30D1000030D200D3000130D40057
:102F50000030D5009C315D2497313D009301043051
:102F6000210057020318B72F2000121108003D005E
:102F7000921DFD2F2100E701FA2F0F082100DC0030
:102F80005C0CE600E60C660C0F39D000F7303D0013
:102F9000900521005C19CF2F5008C13ED12F500859
:102FA000C33E8600870101080139E6000130E606CC
:102FB00001086606FE39660681005008031DE42FED
:102FC0009D3184259731F32F72302000D0000030DE
:102FD000D100DC30D2000030D3000030D400D50066
:102FE0009C315D24973101302100E70704306702EE
:102FF0000318FD2F3D009019BD2F2000121108006D
:103000000534013409340534A13401341534003455
:1030100025340134353400344534013475340134F9
:1030200095340E34053409341934013429340E34FE
:10303000813402349534023481340134053401344E
:103040002534073446343B34013475340434953424
:1030500001346534143409343934813442346534EC
:10306000003495340134813401342634FF34003483
:103070004634FF34003409343034093431340934EF
:103080003234093435347534083495340434813499
:103090000234C034343403344D34003469340034E1
:1030A00063340034723400346F34003463340034D9
:1030B000683400346934003470340034203400340F
:1030C00054340034653400346334003468340034DC
:1030D0006E3400346F3400346C3400346F34003498
:1030E00067340034793400342034003449340034F7
:1030F0006E340034633400342E3400340934023426
:1031000034340034023401340034C03432340934ED
:103110000434003400340134033400340034003407
:1031200009342134113401340034013422344A3456
:10313000003407340534813403344034003401341E
:10314000093404340134003400340334FF34FF34D0
:103150000034093421341134013400340134223470
:1031600015340034163403345334003453340034EB
:103170002034003447340034613400346D3400347A
:103180006534003470340034613400346434003405
:1031900006340034FF3409340134A13401341534C9
:1031A00000342634FF340034753408349534403408
:1031B00009340134B1340234C034123401340034DF
:1031C00002340034003400340834D83404346C340D
:1031D000E734013400340134023400340134F5346E
:1031E00098344A349834B23498340434033409346B
:0631F00004347E34983423
:10346600FC01FD0108002300951108009A3136225F
:1034760008007108FC007008FD000800FC302100FF
:10348600C70547110800640080010131890B472AEE
:103496000034F0007008031D522A01300800003085
:1034A60008000130F0002300951C15185B2AF00176
:1034B60070080800A0302000D5004030D60000304B
:1034C600D7009E3121260800F2006130F00001305D
:1034D600F1007208700786000030713D8700010810
:1034E600080001302100B3070030B43DB53DB63DBC
:1034F6005108031D08000130C8074808031D0800CD
:10350600FF30C80008003D001215EF3090058E14FC
:1035160001302100D100C80175302000D0000030F4
:10352600D1000030D200D3000030D400D5009C3149
:103536005D2408000B0D0B0D0139F2008B132300DF
:103546001513710892007008910015140000000010
:10355600720C031C8B1303188B1723001408F1003D
:103566001308F0000800F800761DBE2AF00178085E
:103576009C3195249A31F61CC52AF001F00A780888
:103586009C3195247808983EF700770886000E301F
:1035960087007608810008000B0D0B0D0139F2003B
:1035A6008B132300151371089200700891001516ED
:1035B60015157D0896007C0896009514720C031C60
:1035C6008B1303188B171511150808002100D1015C
:1035D60074302000D0000030D1000030D200D3007B
:1035E6000030D400D5009C315D249A313D008E1008
:1035F6001211101D012BFB309005FC2A2100C80179
:103606000800F2009A3139229B31102BFC30210040
:103616009900903027009B0008007208F000F10125
:103626007108003A0319182B232B7008003A031966
:10363600092B013A0319232B033A0319232B232BB6
:1036460008003D00181C422B210056088600870101
:1036560080300106031D402B370886003808870096
:1036660084300106031D402B5608860087010C3066
:10367600810056088600870181173D001810DF304B
:10368600900508007308FA007208F9007108F8003E
:103696007008F7000130F4020030F53B740A031994
:1036A600750A03190800790886007A088700010858
:1036B600F6000130F9070030FA3D770886007808F1
:1036C6008700760881000130F7070030F83D4D2B62
:1036D600023021005406031D732B9531C7250800BF
:1036E600D4014F08031D972B45088600460887001E
:1036F6004131083081004030E2000030E3004508E7
:1037060086004608870042316208C03F6308C13F11
:1037160045088600460887000C308100450886006B
:103726004608870081170800CF0108007008860048
:10373600013087008101F50175087007F100710AF3
:103746008600013087006130F2000130F300750811
:10375600720784000030733D850000088100013047
:10376600F5070E307502031C9F2B0F30F40070080E
:10377600740786000130870081010130F40740306C
:10378600740203180800BA2BF8010130F202720A1B
:103796000319F52B70088600710887000108F806E2
:1037A6000130F0070030F13DF701F81BE12B7808F6
:1037B600F300F4017335F500740DEB2B7808F30074
:1037C600F401F335F40D07307306F5000030740686
:1037D600F6007508F8000130F7070830770203187D
:1037E600C82BD82B78080800203021005702031C6C
:1037F60008003D008E18080021003F084004031908
:103806000A2C3F08860040088700811B0800A0306C
:10381600F7000030F8008C3134249B31F001F00AB7
:10382600A030F1000030F2000730F3000130933190
:10383600B9239B3171082100C0007008BF00923186
:1038460061229B3190316920080000309B310423AE
:103856009C319431AD249C319F3123279C313030EB
:1038660021008C00F0308D00FF308E009513303033
:1038760024008C0070308D0023008C018D018E0198
:1038860007302100950495111512951215178B17FF
:1038960005302000950097312B279C3120302100E0
:1038A6005702031C4E2C3D008E184E2C9B31F723DD
:1038B6009C314E2C6C2C01309B31042308000230C5
:1038C6009B310423080090310020080095313525EE
:1038D600080020005108003A0319752C7F3A031995
:1038E6008F2C942C5008013A0319662C033A0319BD
:1038F600942C013A0319692C063A0319942C773A49
:103906000319942C013A0319942C073A0319622CD3
:10391600013A03195E2C942C5008FF3A0319942C93
:10392600942C0800F4002030F5007008F1000130F6
:10393600F135890B9B2C7408F2000230F235890BA5
:10394600A12C72087107F3000230F335890BA82CFD
:103956007308F50775088600870181137008031D33
:10396600BD2C7435BB3E860087017508C03F00300C
:10397600C13FC52C7435B73E860087017508C03F28
:103986000030C13F75088600870101137508043EA3
:1039960086008701011708002030F6000B0D0B0D7D
:1039A6000139F50023001513151595160130F60299
:1039B600760A0319072D71089200700891000130EC
:1039C600F0070030F13D7208860001308700403F65
:1039D600F300413FF4007408940072088600013039
:1039E6008700010893000230F20776080319951242
:1039F6008B137D0896007C0896009514750C031CA5
:103A06008B1303188B17D92C1511150808002000E5
:103A160042084408F8007803031D080009304106EF
:103A2600031D242DA0302100A7000130A80040303E
:103A3600AA000030AB005D30AC001A30AD00A9170B
:103A460008004103031D0800A030F0000130F1001A
:103A56000030F200F3004030F4000030F5008F3102
:103A6600E8279D31A030F0009B319923A03021003A
:103A7600AE000130AF004030B1000030B200C130BE
:103A8600B00008002100D501CD01CA01C901CF014E
:103A9600D40137088600380887007F308105043056
:103AA6003706B70000303806B800370886003808F1
:103AB60087007F30810504303706B70000303806AE
:103AC600B80045088600460887007F308105B001AA
:103AD600B101B201A901AA01AB01913129219D31A0
:103AE60003302000D0000030D1000030D200D300D7
:103AF6000030D400D5009C315D249D3193314423A0
:103B060008002D302100CE005C08FD39031DC62DAE
:103B16005C08E4000130E436890B8E2D64083F39D9
:103B2600E5000230E535890B952D6508203ED60067
:103B36005608C500C60104304506C50000304606D5
:103B4600C600560886008701010C890C0F390D3A0C
:103B5600031DC32D4030F0000030F1005608023E30
:103B660086008701403FF200413FF3000830F40031
:103B76000030F5009B3145239D319D3145250800D8
:103B86009B316B230800FD305C05E40004306406BD
:103B9600031D080094312F2408006130F000013025
:103BA600F1007B08F200F3010E30F4000030F5005E
:103BB6009B3145239D3101302200E0006030F0004A
:103BC6000130F1000F30F2009B31C7239D312200F6
:103BD600EF009231CF229D310B0D0B0D01392000E4
:103BE600D4008B135530F000AA30F1009A313C22F4
:103BF6009D318030F0001F30F1009A31CF229D3187
:103C06009A3154229D31003A031D032E8030F00074
:103C16001F30F1002030F2009C31CF249D319A31C3
:103C260054229D31003A031D122E9A313322200070
:103C3600540C031C8B1303188B170800013020004B
:103C4600EB005608FF3ED800FF30573DD900003044
:103C560059020F30031958020318372E5608FF3E33
:103C6600E800FF30573D3A2E0E30E8000030E900FC
:103C76006808EA00EC016A086C020318532E6C0807
:103C86005A3E860087016B085507D80058086C070E
:103C9600840001308500000881000130EC073E2ECB
:103CA6006A08ED000E306D0203186F2E6D085A3E3D
:103CB600860087016130D8000130D9006D085807A9
:103CC60084000030593D8500000881000130ED0771
:103CD6000E306D02031C592E5A30FB009D31D02543
:103CE60008000830F20000302100320208300319C3
:103CF600310203188A2E3108F2005508031D852E5D
:103D06000130892E5503031D8A2E0230D500720814
:103D1600F000F1017008B1027108B23B3708860065
:103D2600380887004131720881004830D300301CC2
:103D3600AE2EC32E5308860087012E0884002F0856
:103D46008500000881000130AE070030AF3D01302C
:103D5600D3070130F2027208031908009D2E53089A
:103D6600860087012E0884002F0885000008810040
:103D76000130AE070030AF3D0130D3070130F2020B
:103D8600720803190800B22E21004C08031D080012
:103D96000130CC004B08031D08000130CB00023077
:103DA6005406031DE82E370886003808870041317F
:103DB60081013708860038088700483081003708B7
:103DC600860038088700811708005403031D080081
:103DD600CF01560A86008701083081004030F00086
:103DE6000030F1005608023E860087017008C03F89
:103DF6007108C13F560886008701043081005608C5
:103E06008600870181170130CF00450886004608E5
:103E160087004131083081004030F0000030F10069
:103E2600450886004608870042317008C03F710881
:103E3600C13F45088600460887008030810008009B
:103E460060302000D200D3015308803EF0001F30BE
:103E560003182030F1009A319D229F31710820000D
:103E6600D1007008D0005308F9000130F935890BEC
:103E7600392F5208790786000130870050088100E3
:103E860053355207F900790A860001308700510838
:103E960081000130D30708305302031C272F22006C
:103EA6006003031D632F6030F0000130F1000F3016
:103EB600F2009B31C7239F3122006F0603190800C9
:103EC6000130E1000230E2000330E3000430E40098
:103ED6000530E5000630E6000730E7000830E80068
:103EE6000A30E9000B30EA000E30EB000D30EC0032
:0A3EF6000C30ED000930EE0008006A
:020000040001F9
:08000000FF3FFF3FFF3FFF3F00
:04000E00A40FCF1F4D
:00000001FF
