:041808008C310C2CE7
:101810007E148C317E10090020008C310F2CFC01CD
:10182000FD01A73084000030850039309A31E7226D
:101830008C31203084000130850050309A31E7220D
:101840008C31A03084000130850040309A31E7228D
:101850008C31203084000230850040309A31E722FC
:101860007E1020009C31BE2C2000D801D9015808E0
:10187000770786005908783D870081010130D80735
:101880000030D93D00305902073003195802031CBB
:10189000372C0D0E890C01399A31ED228C31200044
:1018A000DA000E0C890C01399A31ED228C312000BE
:1018B000DB000D0E890C890C01399A31ED228C3137
:1018C0002000DC000D0E01399A31ED228C31200010
:1018D000DD000D0D0D0D01399A31ED228C31F9002D
:1018E000770886008701413101087906FE397906BB
:1018F000810021004919112D20000E0D0E0D013916
:101900009A31ED228C31F90077088600780887003B
:1019100001087906FE397906810020000E0E890C37
:10192000890C01399A31ED228C31F9007708860053
:1019300078088700F90D01087906FD3979068100DC
:1019400020000E0CF900F90C790C01399A31ED22C6
:101950008C31FA007708860078088700FA0DFA0DB6
:1019600001087A06FB397A06810020000C0E890CEA
:1019700001399A31ED228C31F90077088600780818
:101980008700F90DF90DF90D01087906F739790687
:10199000810020000E0E890C01399A31ED228C3124
:1019A000F9007708860078088700F90E01087906A3
:1019B000EF397906810020000E0E01399A31ED22AF
:1019C0008C31F9007708860078088700F90EF90D48
:1019D00001087906DF397906810020000E0C0139F3
:1019E0009A31ED228C31F90077088600780887005B
:1019F000F90EF90DF90D01087906BF397906810054
:101A000020000C0E01399A31ED228C31F900770853
:101A1000860078088700F90CF90C010879067F39EF
:101A2000A52D491DA72D20000E0D0E0D01399A314F
:101A3000ED228C31F90077088600780887000108CC
:101A40007906FE397906810020000E0E890C890C7A
:101A500001399A31ED228C31F90077088600780837
:101A60008700F90D01087906FD397906810020000B
:101A70000E0CF900F90C790C01399A31ED228C31F8
:101A8000FA007708860078088700FA0DFA0D010839
:101A90007A06FB397A06810020000E0C01399A3152
:101AA000ED228C31F9007708860087014131F90D6C
:101AB00001087906FD397906810020000C0E0139F4
:101AC0009A31ED228C31F900770886008701413187
:101AD000F90DF90D01087906FB397906810020001E
:101AE0000E0E890C01399A31ED228C31F9007708FC
:101AF000860087014131F90EF90D01087906DF39B9
:101B00007906810020000C0E890C01399A31ED22F2
:101B10008C31F9007708860087014131F90E010800
:101B20007906EF397906810020000E0E01399A31CD
:101B3000ED228C31F9007708860087014131F90DDB
:101B4000F90DF90D01087906F739790681002100B0
:101B50004919CB2D20000D0D0D0D01399A31ED22C3
:101B60008C31003A0319CB2D20000E0C01399A312B
:101B7000ED228C31003A0319CB2D7808F400770858
:101B8000F3000C309B3101238C31F500F601F60A8D
:101B900096316E268C317708860087014231010824
:101BA000F03908388100770886008701433180309A
:101BB00081007708860087014431803081007708F2
:101BC00086008701453180308100770886008701D3
:101BD000463180308100BA2E20005C080319F62DB2
:101BE00077088600870143318101FF2D5D080319C5
:101BF000FF2D7708860087014331FF3081005A08A6
:101C00000319082E770886008701443181010800F6
:101C10005B08031908007708860087014431FF300C
:101C20008100080020005A080319222E5C080319BD
:101C3000222E77088600870142310108F0390738E3
:101C4000810008005A080319312E5D080319312E4E
:101C500077088600870142310108F0390138810098
:101C600008005B080319402E5C080319402E770812
:101C70008600870142310108F039053881000800EB
:101C80005B0803194F2E5D0803194F2E7708860055
:101C9000870142310108F0390338810008005A08F1
:101CA0000319592E7708860087014231F0308105EB
:101CB00008005D080319652E770886008701423108
:101CC0000108F0390238810008005B080319712E01
:101CD00077088600870142310108F0390438810015
:101CE00008005C0803197D2E7708860087014231C1
:101CF0000108F0390638810008007708860087015E
:101D000042310108F03908388100080020005C08E1
:101D1000031D982E5D08031D8F2E8030902EFF30FE
:101D2000D2000030D3005308D1005208D0009A2EC0
:101D3000D001D10177088600870145315008810024
:101D40005A08031DB12E5B08031DA82E8030A92E52
:101D5000FF30D6000030D7005708D5005608D40011
:101D6000B32ED401D5017708860087014631540887
:101D700081000800210049080339003A0319EC2DBD
:101D8000013A0319122E033A0319862EC72E0800B2
:101D900020004203031DDE2E40081F39003A031DB8
:101DA000DE2E2100B017033020004106031DDC2E7B
:101DB00001302100D400DE2E2100D4012000420891
:101DC000031D080040081F39023A031D080044089B
:101DD0000F39003A0319080044080F39EC000230AB
:101DE0006C0203180800203021005906031D08006A
:101DF000B0172000C41B112F44080F39EC0001302C
:101E0000EC35890B002F6C08BB3E86008701403FF4
:101E10002100E800413FE900200044080F39C13E9D
:101E2000252F44080F39EC000130EC35890B152FB4
:101E30006C08B73E86008701403F2100E800413F23
:101E4000E900200044080F39C33E860087010108DD
:101E50002100E70067183C2FFB302000EC00FF302A
:101E6000ED002100680820006C052100E8006908E9
:101E700020006D052100412F04306804E800003087
:101E80006904E9002000C41B562F44080F39EC00F8
:101E90000130EC35890B492F6C08BB3E8600870169
:101EA00021006808C03F6908C13F662F44080F3908
:101EB000EC000130EC35890B5A2F6C08B73E8600D8
:101EC000870121006808C03F6908C13F0330200036
:101ED0004106031D8B2F21006808860069088700D2
:101EE000811F7F2F2000C41B792F44080F39C13E6A
:101EF0007C2F44080F39C33E8600870181142100DE
:101F00006808860069088700011568088600690866
:101F1000870081170800043021006806E8000030BF
:101F20006906E9006808860069088700811FB32FE9
:101F300068088600690887007F3081056808860088
:101F40006908870001170530E0000030E1006908EA
:101F5000E3006808E2000230E4000030E5009C3154
:101F6000F3248E31B82F68088600690887000117AE
:101F7000043021006806E80000306906E900E7182F
:101F8000C72F6808860069088700811FEB2F200093
:101F9000C41BCE2F44080F39C13ED12F44080F393E
:101FA000C33E860087018110210068088600690809
:101FB00087003B3081050530E0000030E100690812
:101FC000E3006808E2000230E4000030E5009C31E4
:101FD000F3248E31F12F68088600690887003B30B2
:101FE0008105200044080F39983E2100E60066086C
:0C1FF00086000E308700FE3081050800DE
:102000007108FC007008FD00080020004208440828
:10201000EB006B03031D080009304106031D262851
:1020200020302100A7000130A8004030AA00003075
:10203000AB00AC01AD01A91720302000D200403028
:10204000D3000030D4009131642108004103031D06
:1020500008002030F0000130F1000030F200F30001
:102060004030F4000030F5009B31362390312030B1
:10207000F0009C312F2420302100AE000130AF0051
:102080004030B1000030B200C130B0000800200084
:10209000C801C9018D282100B0175403031D9928D8
:1020A0002000C81499282100B01799282100B017E2
:1020B000200044080F39003A03199928C41B6F28DF
:1020C00044080F39F0000130F035890B642870089E
:1020D000BB3E86008701403FF100413F7D28440818
:1020E0000F39F0000130F035890B73287008B73EC6
:1020F00086008701403FF100413FF20071088600F1
:1021000072088700811F992871088600720887006D
:10211000011D99280130C800992840081F39003A4C
:1021200003194B28013A03195328033A0319562877
:1021300099282100B01F08004830AE000030AF00E1
:1021400030140230B100080020000D0D0D0D0139D2
:102150009A31ED229031003A0319080020000C0E4C
:1021600001399A31ED229031003A031908000B1120
:10217000053020009500F101F20120000D0D0D0D3C
:1021800001399A31ED229031003A031908002000FC
:102190000C0E01399A31ED229031003A03190800F2
:1021A0000B1DBD280130F1070030F23D00307202F6
:1021B000FA3003197102031CFE2803102100491D87
:1021C0000314031CE62821004915E82821004911C1
:1021D000F101F201F42820000C0E01399A31ED22B0
:1021E0009031003A0319FE2820000D0D0D0D013924
:1021F0009A31ED229031003A031DEB280B11053086
:1022000020009500BD282100CC01CB0102305606EC
:10221000031D3029450886004608870041310830F3
:1022200081004830F3000030F400FF307305F50002
:102230007F307405F6004508860046088700423165
:102240007508C03F7608C13F4508860046088700EC
:10225000483081004508860046088700811708003D
:10226000320820004702031D3929210031082000CF
:1022700046020318422947082100B2002000460800
:102280002100B1009E3178264830F3000030F40080
:10229000FF307305F5007F307405F6002100370824
:1022A00086003808870042317508C03F7608C13F74
:1022B00037088600380887004830810037088600D4
:1022C00038088700811708002000E80153085404EB
:1022D0000319732952088600013087000103031D8A
:1022E00073290130E8005408D60068085302D5006D
:1022F000031CD603003056020F3003195502031891
:10230000872968085302E5000030543B8A290E30C3
:10231000E5000030E6006508E700E90167086902AA
:102320000318A3296908573E8600870168085207E9
:10233000D500550869078400013085000008810038
:102340000130E9078E296708EA000E306A02031897
:10235000BF296A08573E860087016130D5000130E9
:10236000D6006A08550784000030563D85000008F5
:1023700081000130EA070E306A02031CA929573098
:10238000D0000030D1009E31CB2608002000400E46
:10239000890C0339003A031D0800072A2100B017F1
:1023A0000830D90008009231FF22080092319522AE
:1023B0000800DF302100AE000030AF0030140130E3
:1023C000B100B01708009031472008008E31C826B0
:1023D00008004408DA3E2100AE000030DD2921006B
:1023E000B01720004408DA3E8600870142088100C9
:1023F000080002302100E0000030E1000030E2007F
:10240000E3000030E400E5009C31F32408004108BB
:10241000003A0319E329013A0319E629023A03199C
:10242000E629063A0319CE29033A0319D329013ABA
:102430000319F9290F3A0319D929013A0319D629A1
:10244000033A0319E929013A0319EF29073A031955
:102450002A2A2A2A0800210037088600380887001F
:10246000010E890C890C0139F70004303706B700DA
:1024700000303806B80008305906031D4C2A2000E9
:1024800042087F393D00960016080319492A10308A
:102490004A2A04302100D9005603031D912A4830EE
:1024A000F3000030F400FF307305F5007F30740551
:1024B000F600370886003808870042317508C03FAB
:1024C0007608C13F9E3178269231023021005706AE
:1024D000031D762A370886003808870004308100FB
:1024E0003708860038088700811708007708031D21
:1024F000852A370886003808870048308100370869
:1025000086003808870081170800370886003808D9
:102510008700083081003708860038088700811757
:102520000800A91BA913D60108002100B017993093
:102530002000EC00ED016C0886000E308700810160
:102540000130EC070130ED076D0803199B2A20309C
:10255000F0000030F1000030F200F3002030F40011
:102560000030F5009B31362392313D000E172000DC
:10257000EE016E08C33E8600870181016E08C13EF0
:102580008600870181010130EE0702306E02031CD4
:10259000B92ADA30F0000030F1000030F200F30028
:1025A0000230F4000030F5009B31362392313D00BB
:1025B0000E1328302100B7000030B8002030D800BA
:1025C0005808C500C601200042082100DF005F084E
:1025D000031DED2A1030D90008000130E000003062
:1025E000E100DF30E2000030E3000130E4000030C1
:1025F000E5009C31F32420302100D9000800803010
:1026000020004006031D0800C0302100B0005D2BF3
:10261000DD302100AE009830AF001230B100003044
:10262000B20008004208031D392B4208F000F101F6
:10263000F035F10DF930700784001830713D8038A5
:102640008500003F2100AE00013FAF0002302E07A1
:1026500084002F080318013E85000008B1000330F4
:102660002E0784002F080318013E85000008B200E1
:1026700008002100B0010800033042020318392B82
:102680004208F000F101F035F10DEF3070078400E1
:102690001830713D80388500003F2100AE00013FB9
:1026A000AF002E0884002F0885000008F000F1011B
:1026B0007008B1007108B200080020004308013A18
:1026C0000319082B033A0319122B013A03193C2B67
:1026D000392B080020000D0D0D0D01399A31ED2226
:1026E0009331003A0319080020000E0C01399A3189
:1026F000ED229331003A031908000B110530200038
:102700009500F101F20120000D0D0D0D01399A31F6
:10271000ED229331003A0319080020000E0C013914
:102720009A31ED229331003A031908000B1D832BD7
:102730000130F1070030F23D00307202FA30031927
:1027400071020318B02BD32B4908FC390138AB2B8D
:102750004908FC390238C900BD2BFC30C905BD2B26
:10276000210049080339003A0319A42B013A03193F
:10277000A82B033A0319AD2BBD2BF101F201C92B94
:1027800020000E0C01399A31ED229331003A0319E1
:10279000D32B20000D0D0D0D01399A31ED2293310F
:1027A000003A031DC02B0B11053020009500832B30
:1027B0003D000E122100B01B152CA91FEA2B023080
:1027C000D6004B08031DE62B913103212100CD01DA
:1027D000CE010800450886004608870041310830D0
:1027E00081004030F7000030F800450886004608B8
:1027F000870042317708C03F7808C13F450886000E
:10280000460887000C30810045088600460887008E
:1028100081173708860038088700043081003708A0
:10282000860038088700811708002000C01F2A2C66
:1028300001302100D6004C08031D212C91310321C9
:1028400093312100CD01CE014F08031D08009F31B7
:102850002427080002302100D600450886004608DB
:1028600087004131083081004030F7000030F80027
:10287000450886004608870042317708C03F78083F
:10288000C13F45088600460887000430810045089E
:102890008600460887008117222CF800700803196B
:1028A000592C7835B73E86008701403FF900413FFB
:1028B000602C7835BB3E86008701403FF900413FE0
:1028C000FA0079087A04031D682CF001F101080070
:1028D000FF307105F4007F307205F500790886003D
:1028E0007A08870042317408C03F7508C13F7908F3
:1028F00086007A08870041317308810079088600D4
:102900007A08870040308105790886007A088700B8
:102910008115790886007A088700811770080319E5
:10292000A82C7835B73E86008701403FF400413F30
:10293000F50004307406F60000307506F7007835AF
:10294000B73E860087017608C03F7708C13FBE2C9E
:102950007835BB3E86008701403FF400413FF500DB
:1029600004307406F60000307506F7007835BB3E7B
:10297000860087017608C03F7708C13F7A08F100DA
:102980007908F0000800210012113D009301900128
:1029900098019930F100F201710886000E3087002D
:1029A00081010130F1070130F20772080319CC2CC4
:1029B00016303D0091009F3097007B309200F3016C
:1029C0007308F0000230F035890BE32C7008203ECC
:1029D000860087010030C03F0030C13FC23FC33F87
:1029E0000130F30708307302031CE02C3D000E1782
:1029F00096010E120E13F73090052100B001A901C7
:102A0000AA01AB013D009019FB2C01302100CE0042
:102A10000130CD00CC01CB01D301F3017335B73EBA
:102A2000860087010030C03FC13F7335BB3E860042
:102A300087010030C03FC13F7308C33E8600870155
:102A400081017308C13E8600870181010130F307CF
:102A500002307302031C0E2D28302100B700003015
:102A6000B80016303D00980000302000A300403030
:102A7000A2000830A1000430A000A0172100DF014F
:102A80000030B6000030B5000030B4000030B300B4
:102A9000CA01D90108002100580A860087010108EF
:102AA000F7007708F200F30173082B02031D5A2D7B
:102AB00072082A0203185E2D2A08F7007708F20030
:102AC000F3017208AA027308AB3BF601770876029D
:102AD00003187B2D27088600280887007608483EC3
:102AE00084008501000881000130A7070030A83D5F
:102AF0000130F607662D2A082B040319B62D450868
:102B00008600460887004131083081004830F200D5
:102B10000030F300FF307205F4007F307305F500DC
:102B2000450886004608870042317408C03F750892
:102B3000C13F580886008701011BAA2D4508860061
:102B4000460887004830810045088600460887000F
:102B50008117080045088600460887000830810074
:102B6000450886004608870081170800450886004A
:102B7000460887004131083081004030F2000030C3
:102B8000F300450886004608870042317208C03FBE
:102B90007308C13F4508860046088700043081005D
:102BA00045088600460887008117A9134F08031DB2
:102BB00008009F3124270800200040081F39013AEF
:102BC000031D0800023044020318080006304106C5
:102BD00003191B2E262E21005F03031D262E200025
:102BE0004408031DFF2D90302100AE009830AF0047
:102BF0000930B1000030B200C030B000262E4403CE
:102C0000031D262EAB302100AE009830F72D44086E
:102C1000031D112E00302100AE009830AF004A3065
:102C2000F92D4403031D262EC8302100AE00983034
:102C3000AF001530F92D4308213A0319EB2D033A63
:102C40000319072E013A0319262E262E2000400EC6
:102C5000890C0339013A031D0800592E90310520D3
:102C60000800DD302100AE000030AF000130B100BF
:102C70000030B200C130B000080080302100B00048
:102C8000200043082100DD000800DC302100AE00F8
:102C90000030AF000130B1000030B2008130B00030
:102CA000080080302100B000200042082100DC0034
:102CB00008004108013A03192E2E033A0319312E58
:102CC000013A0319452E0A3A03192E2E033A031925
:102CD0003D2E013A0319512E6D2E0800FB2E73086C
:102CE000860074088700760801390110031D01145D
:102CF000080073088600740887007608013981107F
:102D0000031D811408007308860074088700760884
:102D100001390111031D01150800730886007408AC
:102D20008700760801398111031D81150800730899
:102D3000860074088700760801390112031D011608
:102D4000080073088600740887007608013981122C
:102D5000031D811608007308860074088700760832
:102D600001390113031D0117080073088600740858
:102D70008700760801398113031D81170800730845
:102D8000860087014131760801390110031D0114C5
:102D900008007308860087014131760801398110E7
:102DA000031D8114080073088600870141317608ED
:102DB00001390111031D0115080073088600870100
:102DC0004131760801398111031D8115080073080E
:102DD000860087014131760801390112031D011671
:102DE0000800730886008701413176080139811295
:102DF000031D811608007508013A03196F2E033A66
:102E00000319792E013A0319832E073A03198D2EDF
:102E1000013A0319972E033A0319A12E013A031917
:102E2000AB2E0F3A0319B52E013A0319BF2E033A00
:102E30000319C92E013A0319D32E073A0319DD2EBF
:102E4000013A0319E72E033A0319F12E272F080040
:102E500021005908031D3C2F3D008E0192011630C0
:102E600091009F3097007B3092008E19392F8E157C
:102E7000352F01302100D9005903031D492F3D0092
:102E80008E1A492F9001920112141216023021005D
:102E9000D9003D001019121D522FFB3090059B31B7
:102EA000802397313D008E1C582F200012110800FE
:102EB0001018121C642F9431C32497310430210060
:102EC000D900FE303D009005101A121E6A2F9B316A
:102ED000202397313D00101F902F121F7E2F73303B
:102EE0002100E0000030E1000030E200E3000130AA
:102EF000E4000030E5009C31F3249731BF303D0001
:102F000090059B310E2397312100500803198A2F19
:102F10000130D0025008031D902F9F312427973194
:102F20003D00901A921E972F9B31BA2397313D0096
:102F30009018921CAC2FFF302100E0007F30E100A0
:102F40000030E200E3000130E4000030E5009C3195
:102F5000F32497313D0093010430210059020318F6
:102F6000B42F2000121108003D00921DFD2F2100FA
:102F7000EC01FA2F0F082100DE005E0C2000EF00AC
:102F8000EF0C6F0C0F392100D200F7303D00900597
:102F900021005E19CE2F5208C13ED02F5208C33EE9
:102FA00086008701010801392000EF000130EF069B
:102FB00001086F06FE396F06810021005208031DCB
:102FC000E52F9D31DF259731F32F7230E00000307F
:102FD000E100DE30E2000030E3000030E400E50014
:102FE0009C31F324973101302100EC0704306C024E
:102FF0000318FD2F3D009019BA2F20001211080070
:103000000534013409340534A13401341534003455
:1030100025340134353400344534013475340134F9
:1030200095340E34053409341934013429340E34FE
:10303000813402349534023481340134053401344E
:103040002534073446343B34013475340434953424
:1030500001346534143409343934813442346534EC
:10306000003495340134813401342634FF34003483
:103070004634FF34003409343034093431340934EF
:103080003234093435347534083495340434813499
:103090000234C034343403344D34003469340034E1
:1030A00063340034723400346F34003463340034D9
:1030B000683400346934003470340034203400340F
:1030C00054340034653400346334003468340034DC
:1030D0006E3400346F3400346C3400346F34003498
:1030E00067340034793400342034003449340034F7
:1030F0006E340034633400342E3400340934023426
:1031000034340034023401340034C03432340934ED
:103110000434003400340134033400340034003407
:1031200009342134113401340034013422344A3456
:10313000003407340534813403344034003401341E
:10314000093404340134003400340334FF34FF34D0
:103150000034093421341134013400340134223470
:1031600015340034163403345334003453340034EB
:103170002034003447340034613400346D3400347A
:103180006534003470340034613400346434003405
:1031900006340034FF3409340134A13401341534C9
:1031A00000342634FF340034753408349534403408
:1031B00009340134B1340234C034123401340034DF
:1031C00002340034003400340834D83404346C340D
:1031D000E734013400340134023400340134F5346E
:1031E00098344A349834B23498340434033409346B
:0631F00004347E34983423
:1035B2002300951108009A31D9220800FC01FD016F
:1035C2000800FC302100C90549110800640080018F
:1035D2000131890BE82A0034F0007008031DF32A38
:1035E20001300800003008002100BF01C0011A307C
:1035F200F60001309B3167239A319A31E2220800AA
:10360200F2006130F0000130F100720870078600AC
:103612000030713D87000108080001302100B30726
:103622000030B43DB53DB63D5308031D08000130DE
:10363200CA074A08031D0800FF30CA0008003D00FF
:103642001215EF3090058E1401302100D300CA010B
:103652007530E0000030E1000030E200E3000030AD
:10366200E400E5009C31F32408007108F7007008BB
:10367200F6000130F4020030F53B740A0319750AB2
:10368200031908007608860077088700720881000F
:103692000130F6070030F73D3A2B0B0D0B0D0139C7
:1036A200F2008B1323001513710892007008910029
:1036B200151400000000720C031C8B1303188B17E7
:1036C20023001408F1001308F0000800F800761D2A
:1036D2006F2BF00178089D312B259B31F61C762B40
:1036E200F001F00A78089D312B257808983EF70002
:1036F200770886000E3087007608810008002100D6
:10370200D3017430E0000030E1000030E200E30059
:103712000030E400E5009C31F3249B313D008E1023
:103722001211101D972BFB309005922B2100CA011C
:103732000800F2009A31DC229B31A62BFC302100DA
:103742009900903027009B0008007208F000F101F8
:103752007108003A0319AE2BB92B7008003A03190D
:103762009F2B013A0319B92B033A0319B92BB92B31
:1037720008003D00181CD82B21005808860087013C
:1037820080300106031DD62B3708860038088700D3
:1037920084300106031DD62B5808860087010C30A1
:1037A200810058088600870181173D001810DF301C
:1037B200900508007308F9007208F8007108F70014
:1037C2007008F6000130F4020030F53B740A031968
:1037D200750A03190800780886007908870001082D
:1037E200FA000130F8070030F93D760886007708C4
:1037F20087007A0881000130F6070030F73DE32B9D
:10380200023021005606031D092C95314B25080074
:10381200D6015108031D2D2C450886004608870055
:103822004131083081004030F8000030F90045088D
:1038320086004608870042317808C03F7908C13FB8
:1038420045088600460887000C308100450886003E
:103852004608870081170800D10108007008860019
:10386200013087008101F50175087007F100710AC6
:103872008600013087006130F2000130F3007508E4
:10388200720784000030733D85000008810001301A
:10389200F5070E307502031C352C0F30F40070084A
:1038A200740786000130870081010130F40740303F
:1038B200740203180800502CF8010130F202720A57
:1038C20003198B2C70088600710887000108F8061E
:1038D2000130F0070030F13DF701F81B772C780832
:1038E200F300F4017335F500740D812C7808F300B0
:1038F200F401F335F40D07307306F5000030740659
:10390200F6007508F8000130F7070830770203184F
:103912005E2C6E2C78080800203021005902031C0E
:1039220008003D008E18080021003F0840040319DA
:10393200A02C3F08860040088700811B0800A030A9
:10394200F7000030F8008C3134249C31F001F00A89
:10395200A030F1000030F2000730F3000130943162
:103962004D249C3171082100C0007008BF009331C2
:103972006A239C319031A420080000309B319A23A5
:103982009C319431C3249C319E312B269C313030A2
:1039920021008C00F0308D00FF308E009513303006
:1039A20024008C0070308D0023008C018D018E016B
:1039B20007302100950495111512951215178B17D2
:1039C200053020009500973128279C3120302100B6
:1039D2005902031CE42C3D008E18E42C9C318D24EA
:1039E2009C31E42C022D01309B319A2308000230D5
:1039F2009B319A2308009A31F52208009531DC2583
:103A0200080021006108003A03190B2D7F3A0319BF
:103A1200252D2A2D6008013A0319FC2C033A0319BB
:103A22002A2D013A0319FF2C063A03192A2D773A57
:103A320003192A2D013A03192A2D073A0319F82CE2
:103A4200013A0319F42C2A2D6008FF3A03192A2D92
:103A52002A2D0800F4002030F5007008F100013032
:103A6200F135890B312D7408F2000230F235890BE1
:103A7200372D72087107F3000230F335890B3E2DA2
:103A82007308F50775088600870181137008031D06
:103A9200532D7435BB3E860087017508C03F003048
:103AA200C13F5B2D7435B73E860087017508C03F64
:103AB2000030C13F75088600870101137508043E76
:103AC20086008701011708002030F6000B0D0B0D50
:103AD2000139F50023001513151595160130F6026C
:103AE200760A03199D2D7108920070089100013029
:103AF200F0070030F13D7208860001308700403F38
:103B0200F300413FF400740894007208860001300B
:103B12008700010893000230F20776080319951214
:103B22008B137D0896007C0896009514750C031C77
:103B32008B1303188B176F2D151115080800210020
:103B4200D701CF01CC01CB01D101D60137088600C4
:103B5200380887007F30810504303706B70000300F
:103B62003806B80037088600380887007F3081059C
:103B720004303706B70000303806B8004508860022
:103B8200460887007F308105B001B101B201A90169
:103B9200AA01AB019131C6219D3103302100E00021
:103BA2000030E1000030E200E3000030E400E50014
:103BB2009C31F3249D319331D82308002D3021000C
:103BC200D0005E08FD39031D212E5E08EA00013097
:103BD200EA36890BE92D6A083F39EB000230EB35F2
:103BE200890BF02D6B08203ED8005808C500C6018D
:103BF20004304506C50000304606C6005808860057
:103C02008701010C890C0F390D3A031D1E2E40301D
:103C1200F0000030F1005808023E86008701403F64
:103C2200F200413FF3000830F4000030F5009B3110
:103C3200DB239D319D31A02508009C310124080021
:103C4200FD305E05EA0004306A06031D0800923169
:103C52002B2208006030F900FA01FB0179087A078B
:103C62008600013087007A08803EF0001F307B3DDD
:103C7200F1009B314E239E31700881000130FA071A
:103C82000030FB3D00307B02103003197A02031C26
:103C92002F2E22006003031D5B2E6030F0000130E6
:103CA200F1000F30F2009C315D249E3122006F063C
:103CB200031908000130E1000230E2000330E300A2
:103CC2000430E4000530E5000630E6000730E70086
:103CD2000830E8000A30E9000B30EA000E30EB0051
:103CE2000D30EC000C30ED000930EE000800083019
:103CF200F2000030210032020830031931020318A9
:103D02008E2E3108F2005708031D892E01308D2EA8
:103D12005703031D8E2E0230D7007208F000F10106
:103D22007008B1027108B23B370886003808870074
:103D32004131720881004830D500301CB22EC72EA6
:103D42005508860087012E0884002F088500000888
:103D520081000130AE070030AF3D0130D5070130A0
:103D6200F202720803190800A12E55088600870185
:103D72002E0884002F088500000881000130AE075C
:103D82000030AF3D0130D5070130F202720803194D
:103D92000800B62E6130F0000130F1002000510819
:103DA200F3005008F2000E30F4000030F5009B31B1
:103DB200DB239E3101302200E0006030F000013050
:103DC200F1000F30F2009C315D249E312200EF00A1
:103DD200A030F0000130F100FF30F2000030F300BB
:103DE2004030F4000030F5009B3136239E31A03084
:103DF200F0000130F1006030F2000130F3001030C9
:103E0200F4000030F5009B31DB239E310B0D0B0DCE
:103E12000139FB008B135530F000AA30F1009031CC
:103E220000209E318030F0001F30F100A030F200FF
:103E32009D3165259E319A31DF227B0C031C8B1349
:103E420003188B17080021004E08031D08000130DB
:103E5200CE004D08031D08000130CD000230560689
:103E6200031D452F3708860038088700413181013C
:103E720037088600380887004830810037088600F6
:103E820038088700811708005603031D0800D10176
:103E9200580A86008701083081004030F000003067
:103EA200F1005808023E860087017008C03F710881
:103EB200C13F5808860087010430810058088600F7
:103EC200870181170130D100450886004608870026
:103ED2004131083081004030F0000030F1004508E7
:103EE20086004608870042317008C03F7108C13F12
:0E3EF2004508860046088700803081000800E1
:020000040001F9
:08000000FF3FFF3FFF3FFF3F00
:04000E00A40FCF1F4D
:00000001FF
