:041808008C310C2CE7
:101810007E148C317E10090020008C310F2CFC01CD
:10182000FD01A73084000030850043309C31002446
:101830008C31203084000130850044309C310024FC
:101840008C31A03084000130850040309C31002470
:101850008C31203084000230850040309C310024DF
:101860007E1020009E31242E7908F1007808F000C7
:101870000030F200F3000730F4000030F5009C3136
:101880005A248C3120000D0E890C01399C3106241C
:101890008C312000DC000E0C890C01399C310624AF
:1018A0008C312000DD000D0E890C890C01399C3132
:1018B00006248C312000DE000D0E01399C310624F7
:1018C0008C312000DF00DB015B088F3190278C31E9
:1018D000003A0319932C20005B089C3123248C319F
:1018E0002000DA005A080319932C0F305A0203180B
:1018F000932C5A08FE3E840098300318013E850060
:101900000008D0005A08EF3E840098300318013ECA
:1019100085000008D1005008780786000030793D26
:1019200087005108810401302000DB070E305B0284
:10193000031C642C78088600870142310108F039C5
:1019400008388100780886008701433180308100A3
:10195000780886008701443180308100780886004D
:101960008701453180308100780886008701463143
:1019700080308100892D20005E080319C52C78086D
:101980008600870143318101CE2C5F080319CE2CDC
:101990007808860087014331FF3081005C08031915
:1019A000D72C7808860087014431810108005D0842
:1019B000031908007808860087014431FF30810050
:1019C000080020005C080319F12C5E080319F12CB3
:1019D00078088600870142310108F0390738810014
:1019E00008005C080319002D5F080319002D780812
:1019F0008600870142310108F03901388100080072
:101A00005D0803190F2D5E0803190F2D7808860055
:101A1000870142310108F0390538810008005D086E
:101A200003191E2D5F0803191E2D780886008701F3
:101A300042310108F0390338810008005C080319BD
:101A4000282D7808860087014231F0308105080092
:101A50005F080319342D7808860087014231010898
:101A6000F0390238810008005D080319402D78081C
:101A70008600870142310108F039043881000800EE
:101A80005E0803194C2D7808860087014231010851
:101A9000F039063881000800780886008701423155
:101AA0000108F03908388100080020005E08031D95
:101AB000672D5F08031D5E2D80305F2DFF30D40041
:101AC0000030D5005508D3005408D200692DD2014A
:101AD000D3017808860087014531520881005C08EF
:101AE000031D802D5D08031D772D8030782DFF307C
:101AF000D8000030D9005908D7005808D600822DE8
:101B0000D601D70178088600870146315608810042
:101B10000800210043080339003A0319BB2C013A9D
:101B20000319E12C033A0319552D962D08002000C6
:101B30004203031DAD2D40081F39003A031DAD2D92
:101B40002100B017033020004106031DAB2D0130EA
:101B50002100CE00AD2D2100CE0120004208031D42
:101B6000080040081F39023A031D080044080F39D5
:101B7000003A0319080044080F39F90002307902CD
:101B800003180800203021005306031D0800B01779
:101B90002000C41BDE2D44080F39F9000130F9354F
:101BA000890BCF2D7908B73E86008701403FD800CA
:101BB000413FD90044080F39BD3EF02D44080F398C
:101BC000F9000130F935890BE22D7908B33E860022
:101BD0008701403FD800413FD90044080F39BF3E3C
:101BE000860087010108D7005718002EFB30F90046
:101BF000FF30FA0058087905D80059087A05052EF3
:101C000004305804D80000305904D900C41B182EE1
:101C100044080F39F9000130F935890B0C2E790889
:101C2000B73E860087015808C03F5908C13F272E9C
:101C300044080F39F9000130F935890B1C2E790859
:101C4000B33E860087015808C03F5908C13F0330A2
:101C50004106031D482E5808860059088700811F39
:101C60003D2EC41B372E44080F39BD3E3A2E440882
:101C70000F39BF3E86008701811458088600590835
:101C80008700011558088600590887008117080049
:101C900004305806D80000305906D900580886008C
:101CA00059088700811F6F2E580886005908870041
:101CB0007F308105580886005908870001170530D4
:101CC000D0000030D1005908D3005808D2000230AB
:101CD000D4000030D5009E3159268D31742E58081D
:101CE0008600590887000117043020005806D800E4
:101CF00000305906D900D718832E58088600590895
:101D00008700811FA52EC41B892E44080F39BD3EB4
:101D10008C2E44080F39BF3E860087018110580879
:101D20008600590887003B3081050530D00000301F
:101D3000D1005908D3005808D2000230D400003036
:101D4000D5009E3159268D31AB2E58088600590892
:101D500087003B308105200044080F39983ED600AB
:101D6000560886000E308700FE30810508002100ED
:101D70005308031DCB2E3D008E01920116309100B9
:101D80009F3097007B3092008E19C82E8E15C42E7E
:101D900001302100D3005303031DD82E3D008E1ABD
:101DA000D82E900192011214121602302100D30095
:101DB0003D001019121DE12EFB3090059C31BE2410
:101DC0008E313D008E1CE72E2000121108001018E5
:101DD000121CF32E96312E268E3104302100D300B2
:101DE000FE303D009005101A121EF92E9C3143243E
:101DF0008E313D00101F1F2F121F0D2F733020003A
:101E0000D0000030D1000030D200D3000130D40027
:101E10000030D5009E3159268E31BF303D009005EF
:101E20009C3130248E3121004A080319192F0130CA
:101E3000CA024A08031D1F2F9131A3218E313D0094
:101E4000901A921E262F9D311A258E313D00901832
:101E5000921C3B2FFF302000D0007F30D10000309B
:101E6000D200D3000130D4000030D5009E31592675
:101E70008E313D0093010430210053020318432F9B
:101E80002000121108003D00921D8D2F2100EE014F
:101E90008A2F0F082100E800680C2000EF00EF0CEB
:101EA0006F0C0F392100CC00F7303D009005210068
:101EB00068195D2F4C08BD3E5F2F4C08BF3E860061
:101EC0008701010801392000EF000130EF06010809
:101ED0006F06FE396F06810021004C08031D742F28
:101EE00090310B208E31832F72302000D0000030D3
:101EF000D100E830D2000030D3000030D400D5004B
:101F00009E3159268E3101302100EE0704306E02D9
:101F100003188D2F3D009019492F20001211080041
:101F2000F200D32F20000E0D0E0D01399C31062436
:101F3000080020000E0E890C890C01399C31062402
:101F4000080020000E0CF100F10C710C01399C31DD
:101F50000624080020000C0E890C01399C3106244F
:101F6000080020000E0E890C01399C31062408005F
:101F700020000E0E01399C310624080020000E0CB2
:101F800001399C310624080020000C0E01399C31D7
:101F90000624080020000D0D0D0D01399C3106248A
:101FA0000800003008007208003A0319922F013A25
:101FB0000319992F033A0319A12F013A0319AA2FE4
:101FC000073A0319B12F013A0319B82F033A03193D
:101FD000BE2F013A0319C42F0F3A0319CA2F013A31
:101FE0000319D12F033A0319D12F013A0319D12F25
:101FF000073A0319D12F013A0319D12FD12F080025
:10200200A0302000D0004030D1000030D20090310A
:10201200A62008002D302100CA006808FD39031DE2
:102022004D286808EC000130EC36890B15286C0845
:102032003F39ED000230ED35890B1C286D08203E3A
:10204200D2005208C100C20104304106C100003072
:102052004206C200520886008701010C890C0F3922
:102062000D3A031D4A284030F0000030F1005208BA
:10207200023E86008701403FF200413FF3000830F4
:10208200F4000030F5009C31F92490319F31412752
:1020920008009D3167250800FD306805EC0004301A
:1020A2006C06031D08009531AD250800D530F000FF
:1020B2000030F1007A08F200F3010E30F400003033
:1020C200F5009C31F924903101302100D400D43044
:1020D200F0000030F1000F30F2009D31C325903145
:1020E2002100E3009D313B2590310B0D0B0D013991
:1020F200FB008B135530F000AA30F1009B31F62320
:1021020090318030F0001F30F1009C31A4249031D6
:102112009C310E249031003A031D89288030F00052
:102122001F30F1002430F2009E31CB2690319C31D9
:102132000E249031003A031D98289B31ED237B0C2D
:10214200031C8B1303188B17080001302000E600D4
:102152005108FF3ED300FF30523DD40000305402FC
:102162000F30031953020318BC285108FF3EE30045
:10217200FF30523DBF280E30E3000030E400630818
:10218200E500E701650867020318D8286708553E8D
:102192008600870166085007D3005308670784004A
:1021A20001308500000881000130E707C328650877
:1021B200E8000E3068020318F4286808553E8600CD
:1021C2008701D530D3000030D4006808530784005B
:1021D2000030543D8500000881000130E8070E30D0
:1021E2006802031CDE285530FA009031572008009F
:1021F2000830F200003021003202083003193102A7
:1022020003180F293108F2005108031D0A29013071
:102212000E295103031D0F290230D1007208F0006C
:10222200F1017008B1027108B23B3308860034082C
:1022320087004131720881004830CF00301C3329B9
:1022420048294F08860087012E0884002F08850040
:10225200000881000130AE070030AF3D0130CF07EA
:102262000130F20272080319080022294F08860081
:1022720087012E0884002F088500000881000130A4
:10228200AE070030AF3D0130CF070130F2027208D5
:10229200031908003729FB017B08803EF0001F303C
:1022A20003182030F1009C31722491317108FA0038
:1022B2007008F9007B08D43E860087010030873D14
:1022C200790881000130FB0710307B02031C4D2985
:1022D20021005403031D7A29D430F0000030F100AC
:1022E2000F30F2009D31C32591312100630603199D
:1022F20008000130D5000230D6000330D700043088
:10230200D8000530D9000630DA000730DB0008308B
:10231200DC000930DD000A30DE000B30DF000E3059
:10232200E0000D30E1000C30E2000130D400D43086
:10233200F0000030F1000F30F2009D31C325210082
:10234200E300080021004808031D08000130C8000E
:102352004708031D08000130C70002305006031D64
:10236200C4293308860034088700413181013308CB
:10237200860034088700483081003308860034081C
:102382008700811708005003031D0800CB01520A81
:1023920086008701083081004030F0000030F100F3
:1023A2005208023E860087017008C03F7108C13F93
:1023B2005208860087010430810052088600870196
:1023C20081170130CB004108860042088700413165
:1023D200083081004030F0000030F10041088600F2
:1023E2004208870042317008C03F7108C13F41086E
:1023F2008600420887008030810008002000C80162
:10240200C901452A2100B0174E03031D512A20009D
:10241200C814512A2100B017512A2100B0172000F8
:1024220044080F39003A0319512AC41B272A4408C9
:102432000F39F0000130F035890B1C2A7008B73EC5
:1024420086008701403FF100413F352A44080F3999
:10245200F0000130F035890B2B2A7008B33E86005C
:102462008701403FF100413FF20071088600720887
:102472008700811F512A7108860072088700011D9A
:10248200512A0130C800512A40081F39003A031965
:10249200032A013A03190B2A033A03190E2A512A75
:1024A2002100B01F08004830AE000030AF003014E9
:1024B2000230B100080020000D0D0D0D01399C31D4
:1024C20006249231003A0319080020000C0E01394B
:1024D2009C3106249231003A031908000B11053091
:1024E20020009500F101F20120000D0D0D0D0139C2
:1024F2009C3106249231003A0319080020000C0E88
:1025020001399C3106249231003A031908000B1D4F
:10251200752A0130F1070030F23D00307202FA30C4
:1025220003197102031CB62A03102100431D031470
:10253200031C9E2A21004315A02A21004311F10108
:10254200F201AC2A20000C0E01399C310624923192
:10255200003A0319B62A20000D0D0D0D01399C31E8
:1025620006249231003A031DA32A0B1105302000E4
:102572009500752A2100C601C50102305006031DCF
:10258200E82A41088600420887004131083081006C
:102592004830F3000030F400FF307305F5007F305F
:1025A2007405F6004108860042088700423175082A
:1025B200C03F7608C13F4108860042088700483084
:1025C200810041088600420887008117080032080E
:1025D20020004702031DF12A210031082000460293
:1025E2000318FA2A47082100B200200046082100F9
:1025F200B1009031F9204830F3000030F400FF3090
:102602007305F5007F307405F6002100330886005B
:102612003408870042317508C03F7608C13F33084D
:102622008600340887004830810033088600340869
:102632008700811708002000400E890C0339003AF8
:10264200031D08005C2B2100B0170830D3000800DE
:102652009331E9230800933180230800E9302100F7
:10266200AE000030AF0030140130B100B0170800E6
:102672009131FF2108008D31972508004408E43E7E
:102682002100AE000030332B2100B0172000440897
:10269200E43E860087014208810008000230D00033
:1026A2000030D1000030D200D3000030D400D50079
:1026B2009E31592608004108003A0319392B013A84
:1026C20003193C2B023A03193C2B063A0319242B1B
:1026D200033A0319292B013A03194F2B0F3A031915
:1026E2002F2B013A03192C2B033A03193F2B013AE2
:1026F2000319452B073A03197F2B7F2B0800210072
:10270200B0179930F900FA01790886000E30870077
:1027120081010130F9070130FA077A080319852B84
:102722002030F0000030F1000030F200F3002030E1
:10273200F4000030F5009C315A2493313D000E170D
:10274200FB017B08BF3E8600870181017B08BD3EFD
:102752008600870181010130FB0702307B02031CE6
:10276200A22BE430F0000030F1000030F200F30060
:102772000230F4000030F5009C315A2493313D00C0
:102782000E1328302100B3000030B4002030D200F4
:102792005208C100C201200042082100E900690874
:1027A200031DD62B1030D300080001302000D000CA
:1027B2000030D100E930D2000030D3000130D40023
:1027C2000030D5009E31592620302100D300080068
:1027D200803020004006031D0800C0302100B000F8
:1027E200472CDD302100AE009830AF001230B1002E
:1027F2000030B20008004208031D232C4208F000FA
:10280200F101F035F10D1730700784001930713D78
:1028120080388500003F2100AE00013FAF0002304A
:102822002E0784002F080318013E85000008B1001E
:1028320003302E0784002F080318013E850000088C
:10284200B20008002100B001080003304202031860
:10285200232C4208F000F101F035F10D0D30700724
:1028620084001930713D80388500003F2100AE00A0
:10287200013FAF002E0884002F0885000008F000F9
:10288200F1017008B1007108B2000800200043088D
:10289200013A0319F22B033A0319FC2B013A0319EB
:1028A200262C232C080020000D0D0D0D01399C3122
:1028B20006249431003A0319080020000E0C013955
:1028C2009C3106249431003A031908000B1105309B
:1028D20020009500F101F20120000D0D0D0D0139CE
:1028E2009C3106249431003A0319080020000E0C92
:1028F20001399C3106249431003A031908000B1D5A
:102902006D2C0130F1070030F23D00307202FA30D6
:102912000319710203189A2CBD2C4308FC390138A3
:10292200952C4308FC390238C300A72CFC30C305A0
:10293200A72C210043080339003A03198E2C013ACF
:102942000319922C033A0319972CA72CF101F201D7
:10295200B32C20000E0C01399C3106249431003A2C
:102962000319BD2C20000D0D0D0D01399C310624DB
:102972009431003A031DAA2C0B110530200095005A
:102982006D2C3D000E122100B01BFF2CA91FD42C70
:102992000230D0004508031DD02C9231BB22210009
:1029A200C701C8010800410886004208870041317A
:1029B200083081004030F7000030F80041088600FE
:1029C2004208870042317708C03F7808C13F41087A
:1029D2008600420887000C308100410886004208C8
:1029E200870081173308860034088700043081008D
:1029F2003308860034088700811708002000C01FB2
:102A0200142D01302100D0004608031D0B2D9231F8
:102A1200BB2294312100C701C8014908031D0800E7
:102A22009131A321080002302100D0004108860024
:102A3200420887004131083081004030F700003001
:102A4200F800410886004208870042317708C03FFB
:102A52007808C13F4108860042088700043081009F
:102A6200410886004208870081170C2DF800700883
:102A72000319432D7835B33E86008701403FF900A4
:102A8200413F4A2D7835B73E86008701403FF90025
:102A9200413FFA0079087A04031D522DF001F10139
:102AA2000800FF307105F4007F307205F5007908E7
:102AB20086007A08870042317408C03F7508C13F1A
:102AC200790886007A088700413173088100790805
:102AD20086007A08870040308105790886007A08E6
:102AE20087008115790886007A08870081177008A7
:102AF2000319922D7835B33E86008701403FF400DA
:102B0200413FF50004307406F60000307506F70008
:102B12007835B33E860087017608C03F7708C13F0B
:102B2200A82D7835B73E86008701403FF400413F2B
:102B3200F50004307406F60000307506F7007835AB
:102B4200B73E860087017608C03F7708C13F7A0802
:102B5200F1007908F00008002100330886003408EB
:102B62008700010E890C890C01392000ED00043028
:102B720021003306B30000303406B4000830530697
:102B8200031DD02D200042087F393D009600160813
:102B92000319CD2D1030CE2D04302100D300500367
:102BA200031D1B2E48302000E9000030EA00FF30F0
:102BB2006905EB007F306A05EC00210033088600CE
:102BC20034088700423120006B08C03F6C08C13FC7
:102BD2009031F9209531023021005106031DFD2D5F
:102BE20033088600340887000430810033088600E9
:102BF200340887008117080020006D08031D0E2E7F
:102C020021003308860034088700483081003308E9
:102C120086003408870081170800210033088600E7
:102C220034088700083081003308860034088700A2
:102C320081170800A91F2C2E2C082D0403192A2EF7
:102C42000530A73E86008701413F8A00403F0A00C7
:102C520096312100A913D0010800210012113D0074
:102C62009301900198019930F100F20171088600F8
:102C72000E30870081010130F1070130F20772083E
:102C82000319372E16303D0091009F3097007B309C
:102C92009200F3017308F0000230F035890B4E2EDA
:102CA2007008203E860087010030C03F0030C13FDF
:102CB200C23FC33F0130F30708307302031C4B2E9F
:102CC2003D000E1796010E120E13F73090052100EB
:102CD200B001A901AA01AB013D009019662E013095
:102CE2002100C8000130C700C601C501CD01F301B2
:102CF2007335B33E860087010030C03FC13F733554
:102D0200B73E860087010030C03FC13F7308BF3E17
:102D12008600870181017308BD3E8600870181011B
:102D22000130F30702307302031C792E2830210090
:102D3200B3000030B40016303D009800003020008F
:102D4200A3004030A2000830A1000430A000A01768
:102D52002100E90100302200A3000030A20000306F
:102D6200A1000030A0002100C401D301080020000E
:102D720040081F39013A031D0800023044020318BB
:102D82000800063041060319F72E022F21006903BD
:102D9200031D022F20004408031DDB2E903021006A
:102DA200AE009830AF000930B1000030B200C03040
:102DB200B000022F4403031D022FAB302100AE00EE
:102DC2009830D32E4408031DED2E00302100AE00B2
:102DD2009830AF004A30D52E4403031D022FC8306D
:102DE2002100AE009830AF001530D52E4308213AAD
:102DF2000319C72E033A0319E32E013A0319022FCE
:102E0200022F2000400E890C0339013A031D0800ED
:102E1200352F9F3106270800E7302100AE00003031
:102E2200AF000130B1000030B200C130B000080084
:102E320080302100B000200043082100E700080094
:102E4200E6302100AE000030AF000130B1000030AA
:102E5200B2008130B000080080302100B0002000B4
:102E620042082100E60008004108013A03190A2F2E
:102E7200033A03190D2F013A0319212F0A3A0319B4
:102E82000A2F033A0319192F013A03192D2F492F3B
:102E920008002100520A8600870101082000EE0086
:102EA2006E08E900EA016A0821002B02031D5D2F6A
:102EB2002000690821002A020318622F2A08200034
:102EC200EE0020006E08E900EA0169082100AA026A
:102ED20020006A082100AB3B2000ED016E086D0264
:102EE2000318882F21002708860028088700200061
:102EF2006D08483E840085010008810001302100F0
:102F0200A7070030A83D01302000ED076F2F2100F8
:102F12002A082B040319C82F41088600420887009B
:102F220041310830810048302000E9000030EA00D9
:102F3200FF306905EB007F306A05EC002100410893
:102F4200860042088700423120006B08C03F6C08AF
:102F5200C13F2100520886008701011BBC2F410896
:102F620086004208870048308100410886004208F6
:102F72008700811708004108860042088700083050
:102F82008100410886004208870081170800410835
:102F9200860042088700413108308100403020001D
:102FA200E9000030EA00210041088600420887005B
:102FB200423120006908C03F6A08C13F2100410830
:102FC20086004208870004308100410886004208DA
:102FD200870081172C082D040319F82F0530A73E0E
:102FE20086008701413F8A00403F0A009731210055
:102FF200A9134908031D08009131A32108000534D3
:10300200013409340534A134013415340034253433
:103012000134353400344534013475340134953487
:103022000E34053409341934013429340E34813410
:1030320002349534023481340134053401342534A8
:10304200073446343B340134753404349534013446
:1030520065341434093439348134423465340034EB
:1030620095340134813401342634FF34003446343B
:10307200FF34003409343034093431340934323401
:1030820009343534753408349534043481340234C7
:10309200C034343403344D3400346934003463347E
:1030A2000034723400346F340034633400346834D2
:1030B2000034693400347034003420340034543421
:1030C20000346534003463340034683400346E34C0
:1030D20000346F3400346C3400346F34003467349D
:1030E20000347934003420340034493400346E34EE
:1030F2000034633400342E3400340934023434345E
:103102000034023401340034C0343234093404341B
:103112000034003401340334003400340034093400
:103122002134113401340034013422344A3400345D
:103132000734053481340334403400340134093413
:1031420004340134003400340334FF34FF340034D7
:103152000934213411340134003401342234153459
:1031620000341634033453340034533400342034DE
:10317200003447340034613400346D340034653433
:103182000034703400346134003464340034063462
:103192000034FF3409340134A134013415340034CD
:1031A2002634FF34003475340834953440340934FD
:1031B2000134B1340234C0341234013400340234E4
:1031C2000034003400340834D83404346C34E73426
:1031D2000134003401340234003401340034013447
:1031E200023404340834103420344034803401343E
:1031F20002340434083410342034003400340034EF
:10320200003400340034003400340034013401341A
:103212000134013401340134133499344A3498347A
:10322200B234983404340334093404347E34983488
:1037DA00FC01FD0108002300951108009B31F0232C
:1037EA0008007108FC007008FD000800FC30210088
:1037FA00C30543110800640080010131890B012CC3
:10380A000034F0007008031D0C2C01300800003051
:10381A0008000130F0002300951C1518152CF00142
:10382A00700808002100BB01BC011A30F600013003
:10383A009C318B249C319B31FB230800F200D5304C
:10384A00F0000030F1007208700786000030713D08
:10385A0087000108080001302200A0070030A13DBE
:10386A00A23DA33D21004D08031D08000130C407F5
:10387A004408031D0800FF30C40008003D0012156B
:10388A00EF3090058E1401302100CD00C40175304F
:10389A002000D0000030D1000030D200D300003028
:1038AA00D400D5009E31592608007108F700700827
:1038BA00F6000130F4020030F53B740A0319750A68
:1038CA0003190800760886007708870072088100C5
:1038DA000130F6070030F73D5E2C0B0D0B0D013958
:1038EA00F2008B13230015137108920070089100DF
:1038FA00151400000000720C031C8B1303188B179D
:10390A0023001408F1001308F0000800F800761DDF
:10391A00932CF00178089E3191269C31F61C9A2C42
:10392A00F001F00A78089E3191267808983EF7004F
:10393A00770886000E3087007608810008000B0D94
:10394A000B0D0139F2008B13230015137108920035
:10395A0070089100151615157D0896007C089600CA
:10396A009514720C031C8B1303188B171511150869
:10397A0008002100CD0174302000D0000030D100B1
:10398A000030D200D3000030D400D5009E31592631
:10399A009C313D008E101211101DD62CFB30900563
:1039AA00D12C2100C4010800F2009B31F3239C3181
:1039BA00E52CFC3021009900903027009B0008007C
:1039CA007208F000F1017108003A0319ED2CF82C85
:1039DA007008003A0319DE2C013A0319F82C033A4D
:1039EA000319F82CF82C08007308F7007208F6007F
:1039FA007008F9000130F4020030F53B740A03192B
:103A0A00750A0319080076088600770887000108F6
:103A1A00F8000130F6070030F73D79088600870183
:103A2A00780881000130F907FF2C3D00181C382D59
:103A3A00210052088600870180300106031D362DB9
:103A4A00330886003408870084300106031D362DAA
:103A5A005208860087010C308100520886008701CF
:103A6A0081173D001810DF3090050800F201723509
:103A7A00243E860001308700FF30C03F3F30C13FFF
:103A8A000130F20720307202031C3C2DF301730847
:103A9A00D43E860087010030873D00300104F000E3
:103AAA003F30F1007335243E8600013087007008EC
:103ABA00C03F7108C13F0130F30710307302031889
:103ACA0008004C2D023021005006031D6F2D97313E
:103ADA004A270800D0014B08031D932D4108860090
:103AEA00420887004131083081004030EA00003046
:103AFA00EB00410886004208870042316A08C03F4D
:103B0A006B08C13F41088600420887000C308100DB
:103B1A00410886004208870081170800CB01080087
:103B2A0070088600013087008101F5017508700769
:103B3A00F100710A860001308700D530F2000030AA
:103B4A00F3007508720784000030733D8500000891
:103B5A0081000130F5070E307502031C9B2D0F30D2
:103B6A00F400700874078600013087008101013073
:103B7A00F4074030740203180800B62DF80101302A
:103B8A00F202720A0319F12D700886007108870083
:103B9A000108F8060130F0070030F13DF701F81B83
:103BAA00DD2D7808F300F4017335F500740DE72D67
:103BBA007808F300F401F335F40D07307306F500C5
:103BCA0000307406F6007508F8000130F70708306F
:103BDA0077020318C42DD42D78080800203021005C
:103BEA005302031C08003D008E18080021003B0800
:103BFA003C040319062E3B0886003C088700811BFB
:103C0A000800A030F8000030F9008C3134249D31CE
:103C1A00F001F00AA030F1000030F2000730F300A2
:103C2A000130953137259D3171082100BC0070089B
:103C3A00BB00943154249D3192315C22080000303B
:103C4A009C31D9249E3196312E269E3191314C21B8
:103C5A009E31303021008C00F0308D00FF308E0014
:103C6A009513303024008C0070308D0023008C01B5
:103C7A008D018E01073021009504951115129512B8
:103C8A0015178B170530200095008E31B7269E3107
:103C9A00203021005302031C4A2E3D008E184A2E62
:103CAA009D31F3259E314A2E682E01309C31D9244C
:103CBA00080002309C31D92408009C3117240800DE
:103CCA009631B826080020005108003A0319712ECF
:103CDA007F3A03198B2E902E5008013A0319622E4F
:103CEA00033A0319902E013A0319652E063A03196D
:103CFA00902E773A0319902E013A0319902E073A1B
:103D0A0003195E2E013A03195A2E902E5008FF3AD3
:103D1A000319902E902E0800F4002030F500700848
:103D2A00F1000130F135890B972E7408F200023048
:103D3A00F235890B9D2E72087107F3000230F335B4
:103D4A00890BA42E7308F50775088600870181136D
:103D5A007008031DB92E7435B73E860087017508B1
:103D6A00C03F0030C13FC12E7435B33E8600870183
:103D7A007508C03F0030C13F7508860087010113EE
:103D8A007508043E86008701011708002030F600F6
:103D9A000B0D0B0D0139F50023001513151595169A
:103DAA000130F602760A0319032F7108920070088F
:103DBA0091000130F0070030F13D720886000130B1
:103DCA008700403FF300413FF400740894007208F2
:103DDA00860001308700010893000230F207760856
:103DEA00031995128B137D0896007C08960095148A
:103DFA00750C031C8B1303188B17D52E1511150878
:103E0A000800200042084408F8007803031D08004F
:103E1A0009304106031D202FA0302100A7000130E0
:103E2A00A8004030AA000030AB000130AC001030CE
:103E3A00AD00A91708004103031D0800A030F000D7
:103E4A000130F1000030F200F3004030F40000309D
:103E5A00F5009C315A249F31A030F0009D31952500
:103E6A00A0302100AE000130AF004030B100003078
:103E7A00B200C130B00008002100D101C901C60159
:103E8A00C501CB01D00133088600340887007F3092
:103E9A00810504303306B30000303406B400330819
:103EAA008600340887007F30810504303306B3006A
:103EBA0000303406B40041088600420887007F308B
:103ECA008105B001B101B201A901AA01AB01933187
:103EDA001C239F3103302000D0000030D100003075
:103EEA00D200D3000030D400D5009E3159269F312C
:063EFA009431C22408000F
:020000040001F9
:08000000FF3FFF3FFF3FFF3F00
:04000E00A40FCF1F4D
:00000001FF
