:041808008C310C2CE7
:101810007E148C317E10090020008C310F2CFC01CD
:10182000FD015F308400003085000E309B31EF23D6
:101830008C31A8308400003085002A309B31EF23A2
:101840008C31203084000130850040309B31EF2303
:101850007E1020009D31A42D77088600780887002F
:1018600001308100770886008701413181017708C6
:10187000860087014231810120000D0D0D0D0139D7
:101880009B31F5238C31F9007708860087014231BE
:1018900001087906FE397906810021003F19A82D3B
:1018A0007808F4007708F3000030903104208C3180
:1018B000F50020000E0D0E0D01399B31F5238C3102
:1018C000F600953153258C317808F4007708F30041
:1018D0000130903104208C31F50020000E0E890C6F
:1018E000890C01399B31F5238C31F6009531532554
:1018F0008C317808F4007708F3000230903104202E
:101900008C31F50020000E0CF900F90C790C01392E
:101910009B31F5238C31F600953153258C317808B5
:10192000F4007708F3000330903104208C31F50087
:1019300020000C0E890C01399B31F5238C31F60007
:10194000953153258C317808F4007708F300043082
:10195000903104208C31F50020000E0E890C0139E5
:101960009B31F5238C31F600953153258C31780865
:10197000F4007708F3000530903104208C31F50035
:1019800020000E0E01399B31F5238C31F600953184
:1019900053258C317808F4007708F3000630903135
:1019A00004208C31F50020000E0C01399B31F52309
:1019B0008C31F600953153258C317808F400770886
:1019C000F3000730903104208C31F50020000C0E1C
:1019D00001399B31F5238C31F600953153258C313B
:1019E00020000D0E890C01399B31F5238C31003A12
:1019F00003190D2D20000D0E890C890C01399B3126
:101A0000F5238C31003A03190D2D770886008701E4
:101A100043310108F0390738A62D20000D0E890C3E
:101A200001399B31F5238C31003A0319282D200010
:101A30000D0E01399B31F5238C31003A0319282D05
:101A400077088600870143310108F0390138A62D57
:101A500020000E0C890C01399B31F5238C31003AA2
:101A60000319452D20000D0E890C890C01399B317D
:101A7000F5238C31003A0319452D7708860087013C
:101A800043310108F0390538A62D20000E0C890CD1
:101A900001399B31F5238C31003A0319602D200068
:101AA0000D0E01399B31F5238C31003A0319602D5D
:101AB00077088600870143310108F0390338A62DE5
:101AC00020000D0E890C01399B31F5238C31003A31
:101AD0000319712D7708860087014331F0308105A5
:101AE0004A2E20000D0E01399B31F5238C31003A2E
:101AF0000319822D77088600870143310108F039E8
:101B00000238A62D20000E0C890C01399B31F523DB
:101B10008C31003A0319942D7708860087014331F0
:101B20000108F0390438A62D20000D0E890C890C0F
:101B300001399B31F5238C31003A03194A2E77087D
:101B40008600870143310108F039063881004A2EAA
:101B50003F1D4A2E7808F4007708F30000309031DA
:101B600004208C31F50020000E0D0E0D01399B3143
:101B7000F5238C31F600953153258C317808F4002B
:101B80007708F3000130903104208C31F5002000FB
:101B90000E0E890C890C01399B31F5238C31F6002E
:101BA000953153258C317808F4007708F300023022
:101BB000903104208C31F50020000E0CF900F90C56
:101BC000790C01399B31F5238C31F6009531532581
:101BD0008C317808F4007708F30008309031042045
:101BE0008C31F50020000E0C01399B31F5238C312E
:101BF000F600953153258C317808F4007708F3000E
:101C00000930903104208C31F50020000C0E013990
:101C10009B31F5238C31F600953153258C317808B2
:101C2000F4007708F3000A30903104208C31F5007D
:101C300020000E0E890C01399B31F5238C31F60002
:101C4000953153258C317808F4007708F3000B3078
:101C5000903104208C31F50020000C0E890C0139E4
:101C60009B31F5238C31F600953153258C31780862
:101C7000F4007708F3000C30903104208C31F5002B
:101C800020000E0E01399B31F5238C31F600953181
:101C900053258C31770886008701443180308100DC
:101CA00020000D0E890C890C01399B31F5238C31F4
:101CB000003A0319612E77088600870144318101BB
:101CC000702E20000D0E01399B31F5238C31003A26
:101CD0000319702E7708860087014431FF30810098
:101CE00077088600870145318030810020000D0E85
:101CF000890C01399B31F5238C31003A0319862E6A
:101D000077088600870145318101962E20000E0C50
:101D1000890C01399B31F5238C31003A0319962E39
:101D20007708860087014531FF30810077088600FB
:101D3000870146318030810077088600870147316E
:101D40008030810021003F19C62E20000D0D0D0DA1
:101D500001399B31F5238C31003A0319C62E20003E
:101D60000E0C01399B31F5238C31003A0319C62E34
:101D70007808F4007708F3000C30903104208C319F
:101D8000F500F601F60A953153258C317708860067
:101D90008701453180308100770886008701463110
:101DA00080308100B42F7708860087014331010815
:101DB000031DEA2E77088600870144318030010632
:101DC000031DEA2E77088600870143310108F039A8
:101DD0000638852F77088600870143310108031DE7
:101DE000002F77088600870144310108031D002F6A
:101DF00077088600870143310108F0390738852FBD
:101E0000770886008701433180300106031D162FB5
:101E100077088600870144310108031D162F7708D3
:101E2000860087014331F0308105862F77088600D0
:101E300087014331010A031D2C2F77088600870193
:101E400044310108031D2C2F770886008701433198
:101E50000108F0390138852F770886008701433162
:101E6000010A031D432F7708860087014431803023
:101E70000106031D432F77088600870143310108BF
:101E8000F0390238852F7708860087014331010A2F
:101E9000031D592F7708860087014431010A031D6D
:101EA000592F77088600870143310108F03903383C
:101EB000852F770886008701433180300106031D96
:101EC000702F7708860087014431010A031D702FA7
:101ED00077088600870143310108F0390438852FDF
:101EE00077088600870143310108031D862F770894
:101EF000860087014431010A031D862F770886007A
:101F0000870143310108F0390538810077088600E0
:101F10008701433180308100770886008701443192
:101F200080308100080077088600870145317708F6
:101F3000840085010331000881007708860087014D
:101F40004631770884008501043100088100770854
:101F50008600870143318030810077088600870141
:101F6000443180308100080021003F080339003AE5
:101F70000319C12F013A0319D32E033A0319932FE2
:101F8000C12F0800F4002030F5007008F100013086
:101F9000F135890BC82F7408F2000230F235890B35
:101FA000CE2F72087107F3000230F335890BD52F5D
:101FB0007308F50775088600870181137008031DF3
:101FC000EA2F7435B33E860087017508C03F0030A4
:101FD000C13FF22F7435643E860087017508C03F0B
:101FE0000030C13F75088600870101137508043E63
:0E1FF0008600870101170800903101200800CB
:10200200230095110800F2000130F0000230F100C7
:102012007208700786000030713D870001080800D1
:1020220020000D0D0D0D01399B31F5239031003A41
:102032000319080020000C0E01399B31F523903161
:10204200003A031908000B11053020009500F10138
:10205200F20120000D0D0D0D01399B31F523903158
:10206200003A0319080020000C0E01399B31F523B8
:102072009031003A031908000B1D2A280130F1079C
:102082000030F23D00307202FA3003197102031C73
:102092006B28031021003F1D0314031C5328210049
:1020A2003F15552821003F11F101F201612820005E
:1020B2000C0E01399B31F5239031003A03196B283C
:1020C20020000D0D0D0D01399B31F5239031003AA1
:1020D200031D58280B110530200095002A282000E6
:1020E200400E890C0339003A031D0800AB28E117A2
:1020F2000830EB00080091312F2108009131942122
:102102000800D130DF000030E00061140130E2004D
:10211200E11708009E31EC2608009631E4260800FB
:102122004408D03EDF0000308528E1174408D03E45
:10213200860087014208810008000230D00000308A
:10214200D1000030D200D3000030D400D5009D3140
:10215200D92508004108003A03198B28013A0319CE
:102162008E28023A03198E28063A03197828033A70
:1021720003197C28013A03199E280F3A0319822871
:10218200013A03197F28033A03199128013A0319E6
:102192009628073A0319CE28CE28080021004408C1
:1021A200031D08000130C4004308031D080001306C
:1021B200C30002304C06031DF1282000640886008B
:1021C200650887004131810164088600650887003F
:1021D200483081006408860065088700811708007E
:1021E2004C03031D0800C70120006A0A860087010C
:1021F200083081004030F0000030F1006A08023EF1
:10220200860087017008C03F7108C13F6A088600D6
:102212008701043081006A08860087018117013036
:102222002100C70020006808860069088700413144
:10223200083081004030F0000030F100680886006C
:102242006908870042317008C03F7108C13F6808C1
:1022520086006908870080308100080080302000F5
:102262004006031D0800C030E1008829C930DF00A4
:102272009830E0001230E2000030E300080042082B
:10228200031D66294208F000F101F035F10DE53039
:10229200700784001830713D80388500003FDF00F0
:1022A200013FE00002305F07840060080318013E2E
:1022B20085000008E20003305F078400600803180D
:1022C200013E85000008E3000800E1010800033038
:1022D2004202031866294208F000F101F035F10DBF
:1022E200DB30700784001830713D80388500003F74
:1022F200DF00013FE0005F088400600885000008FD
:10230200F000F1017008E2007108E30008004308E0
:10231200013A03193729033A03194029013A0319EB
:102322006829662908002000E1179930D600D701F4
:10233200560886000E30870081010130D607013031
:10234200D7075708031999292030F0000030F1000F
:10235200F2002030F3000030F4009C311B24913154
:102362003D000E172000D8015808BB3E86008701A9
:1023720081015808B93E8600870181010130D807E2
:1023820002305802031CB529D030F0000030F100B1
:10239200F2000130F3000030F4009C311B24913133
:1023A2003D000E1328302000E4000030E50020300C
:1023B200EA006A08E800E90142082100D100510858
:1023C200031DE72910302000EB0008000130200037
:1023D200D0000030D100D130D2000030D300013023
:1023E200D4000030D5009D31D92520302000EB00EB
:1023F200080020000D0D0D0D01399B31F52391319F
:10240200003A0319080020000E0C01399B31F52314
:102412009131003A031908000B1105302000950094
:10242200F101F20120000D0D0D0D01399B31F52353
:102432009131003A0319080020000E0C01399B313A
:10244200F5239131003A031908000B1D132A0130BC
:10245200F1070030F23D00307202FA3003197102C6
:102462000318402A632A3F08FC3901383B2A3F08F7
:10247200FC390238BF004D2AFC30BF054D2A21002D
:102482003F080339003A0319342A013A0319382A5A
:10249200033A03193D2A4D2AF101F201592A20007B
:1024A2000E0C01399B31F5239131003A0319632A4D
:1024B20020000D0D0D0D01399B31F5239131003AAC
:1024C200031D502A0B11053020009500132A20000D
:1024D2006408860065088700010E890C890C0139A1
:1024E200F70004306406E40000306506E5000830B9
:1024F2006B06031D882A42087F393D0096001608A4
:102502000319852A1030862A04302000EB002100AE
:102512004C03031DD22A4830F3000030F400FF3090
:102522007305F5007F307405F6002000640886000C
:102532006508870042317508C03F7608C13F9F3168
:1025420046279231023021004D06031DB52A200094
:1025520064088600650887000430810064088600EC
:1025620065088700811708007708031DC52A200027
:102572006408860065088700483081006408860088
:102582006508870081170800200064088600650836
:10259200870008308100640886006508870081177B
:1025A2000800AA1BAA13CC010800200040081F390A
:1025B200013A031D08004408031D080006304106C5
:1025C2000319FA2A052B21005103031D052BA33001
:1025D2002000DF009830E0000930E2000030E30024
:1025E200C030E100052B0030DF009830E0005D30A4
:1025F200EE2A4308213A0319E42A033A0319F42A7A
:10260200013A0319052B052B2000400E890C0339D2
:10261200013A031D0800322B9C3177240800CF3089
:10262200DF000030E0000130E2000030E300C130A2
:10263200E10008008030E10043082100CF000800DB
:10264200CE30DF000030E0000130E2000030E30075
:102652008130E10008008030E10042082100CE0014
:1026620008004108013A0319462B033A0319102BBB
:10267200013A0319212B0A3A03190D2B033A0319C4
:102682001B2B013A03192C2B462B0800F80070086B
:102692000319532B7835643E86008701403FF900C9
:1026A200413F5A2B7835B33E86008701403FF900FF
:1026B200413FFA0079087A04031D622BF001F1010F
:1026C2000800FF307105F4007F307205F5007908CB
:1026D20086007A08870042317408C03F7508C13FFE
:1026E200790886007A0887004131730881007908E9
:1026F20086007A08870040308105790886007A08CA
:1027020087008115790886007A088700811770088A
:102712000319A22B7835643E86008701403FF400FE
:10272200413FF50004307406F60000307506F700EC
:102732007835643E860087017608C03F7708C13F3E
:10274200B82B7835B33E86008701403FF400413F05
:10275200F50004307406F60000307506F70078358F
:10276200B33E860087017608C03F7708C13F7A08EA
:10277200F1007908F00008003D000E122000E11B74
:10278200FC2B2100AA1FD02B0230CC004108031DD4
:10279200CC2B9F31A3272100C301C40108002000D4
:1027A200680886006908870041310830810040309E
:1027B200F7000030F8006808860069088700423197
:1027C2007708C03F7808C13F68088600690887001B
:1027D2000C30810068088600690887008117640848
:1027E2008600650887000430810064088600650859
:1027F200870081170800C01F102C01302100CC0077
:102802004208031D072C9F31A32793312100C301E6
:10281200C4014508031D08009031CF200800023092
:102822002100CC0020006808860069088700413139
:10283200083081004030F7000030F8006808860058
:102842006908870042317708C03F7808C13F6808AD
:1028520086006908870004308100680886006908DC
:1028620087008117072C210012113D00930190016E
:1028720098019930F100F201710886000E3087004C
:1028820081010130F1070130F207720803193D2C72
:1028920016303D0091009F3097007B309200F3018B
:1028A2007308F0000230F035890B542C7008203E7A
:1028B200860087010030C03F0030C13FC23FC33FA6
:1028C2000130F30708307302031C512C3D000E1730
:1028D20096010E120E13F73090052000E10121003F
:1028E200AA01AB01AC013D0090196C2C0130210012
:1028F200C4000130C300C201C101C901F301733533
:10290200643E860087010030C03FC13F7335B33E4D
:10291200860087010030C03FC13F7308BB3E86007E
:10292200870181017308B93E860087018101013068
:10293200F30702307302031C802C28302000E400CD
:102942000030E50016303D00980000302000A30062
:102952004030A2000830A1000430A000A0172100DE
:10296200D1010030B2000030B1000030B0000030C0
:10297200AF00C0012000EB01080020006A0A8600B7
:1029820087010108F7007708F200F30173082100BC
:102992002C02031DCE2C72082B020318D22C2B08FA
:1029A200F7007708F200F3017208AB027308AC3B40
:1029B200F601770876020318EF2C2808860029080A
:1029C20087007608483E84008501000881000130B6
:1029D200A8070030A93D0130F607DA2C2B082C0499
:1029E20003192B2D200068088600690887004131F1
:1029F200083081004830F2000030F300FF307205E9
:102A0200F4007F307305F5006808860069088700C6
:102A120042317408C03F7508C13F6A0886008701C9
:102A2200011B1F2D68088600690887004830810055
:102A32006808860069088700811708006808860010
:102A420069088700083081006808860069088700E5
:102A52008117080020006808860069088700413154
:102A6200083081004030F2000030F3006808860030
:102A72006908870042317208C03F7308C13F680885
:102A820086006908870004308100680886006908AA
:102A9200870081172100AA134508031D0800903101
:102AA200CF200800E02D73088600870141317608A7
:102AB20001390110031D0114080073088600870103
:102AC2004131760801398110031D81140800730811
:102AD200860087014131760801390111031D011574
:102AE2000800730886008701413176080139811197
:102AF200031D81150800730886008701413176089D
:102B020001390112031D01160800730886008701AE
:102B12004131760801398112031D811608007308BC
:102B2200860087014131760801390113031D01171F
:102B32000800730886008701413176080139811344
:102B4200031D811708007308860087014231760849
:102B520001390110031D0114080073088600870162
:102B62004231760801398110031D8114080073086F
:102B7200860087014231760801390111031D0115D2
:102B820008007308860087014231760801398111F5
:102B9200031D8115080073088600870142317608FB
:102BA20001390112031D011608007308860087010E
:102BB2004231760801398112031D81160800750819
:102BC200013A0319542D033A03195E2D013A0319F0
:102BD200682D073A0319722D013A03197C2D033A25
:102BE2000319862D013A0319902D0F3A03199A2DD4
:102BF200013A0319A42D033A0319AE2D013A031920
:102C0200B82D073A0319C22D013A0319CC2D033A04
:102C12000319D62D0C2E080020006B08031D212E4F
:102C22003D008E019201163091009F3097007B305B
:102C320092008E191E2E8E151A2E01302000EB00E6
:102C42006B03031D2E2E3D008E1A2E2E9001920133
:102C52001214121602302000EB003D001019121D52
:102C6200372EFB3090059C31922496313D008E1C0C
:102C72003D2E2000121108001018121C492E94310A
:102C82003424963104302000EB00FE303D009005E4
:102C9200101A121E4F2E9C312E2496313D00101F09
:102CA200752E121F632E73302000D0000030D10029
:102CB2000030D200D3000130D4000030D5009D3165
:102CC200D9259631BF303D0090059C3109249631BB
:102CD2002100460803196F2E0130C6024608031D63
:102CE200752E9031CF2096313D00901A921E7C2E87
:102CF2009C31CD2496313D009018921C912EFF30CC
:102D02002000D0007F30D1000030D200D30001304B
:102D1200D4000030D5009D31D92596313D00930174
:102D2200043020006B020318982E121108003D0097
:102D3200921DE12E2000DE01DE2E0F082000EC00A5
:102D42006C0CFB00FB0C7B0C0F392100C800F73028
:102D52003D00900520006C19B22E21004808B93EB2
:102D6200B52E21004808BB3E8600870101080139C3
:102D7200FB000130FB0601087B06FE397B06810061
:102D82004808031DC82E9E319F269631D72E7230D9
:102D92002000D0000030D1006C30D2000030D300CF
:102DA2000030D400D5009D31D92596310130200064
:102DB200DE0704305E020318E12E3D0090199E2EBC
:102DC20020001211080020004203031DF82E4008C3
:102DD2001F39003A031DF82EE11703304106031D87
:102DE200F62E01302100CA00F82E2100CA0120006F
:102DF2004208031D080040081F39023A031D08005B
:102E020044080F39003A0319080044080F39D60064
:102E1200023056020318080020306B06031D08001A
:102E2200E117C41B272F44080F39D6000130D635CD
:102E3200890B182F5608B33E86008701403FDA00FF
:102E4200413FDB0044080F39B93E392F44080F399E
:102E5200D6000130D635890B2B2F5608643E8600EA
:102E62008701403FDA00413FDB0044080F39BB3E97
:102E7200860087010108D9005918492FFB30D60076
:102E8200FF30D7005A085605DA005B0857054E2F67
:102E920004305A04DA0000305B04DB00C41B612FEB
:102EA20044080F39D6000130D635890B552F560804
:102EB200B33E860087015A08C03F5B08C13F702FAE
:102EC20044080F39D6000130D635890B652F5608D4
:102ED200643E860087015A08C03F5B08C13F033049
:102EE2004106031D912F5A0886005B088700811F47
:102EF200862FC41B802F44080F39B93E832F440804
:102F02000F39BB3E8600870181145A0886005B0890
:102F1200870001155A0886005B08870081170800A0
:102F220004305A06DA0000305B06DB005A088600DD
:102F32005B088700811FB82F5A0886005B0887004C
:102F42007F3081055A0886005B088700011705302B
:102F5200D0000030D1005B08D3005A08D200023002
:102F6200D4000030D5009D31D9259631BD2F5A08A5
:102F720086005B0887000117043020005A06DA0039
:102F820000305B06DB00D918CC2F5A0886005B089C
:102F92008700811FEE2FC41BD22F44080F39B93E80
:102FA200D52F44080F39BB3E8600870181105A088D
:102FB20086005B0887003B3081050530D000003079
:102FC200D1005B08D3005A08D2000230D40000308E
:102FD200D5009D31D9259631F42F5A0886005B0819
:102FE20087003B308105200044080F39983ED80005
:102FF200580886000E308700FE308105080005342F
:10300200013409340534A1340134853401341534D2
:1030120000342534013435340034453401347534F8
:10302200013495340E340534093419340134293409
:103032000E3481340234953402348134013405343F
:1030420001342534073446343B34013475340434B6
:1030520095340134653414340934393481344234BA
:103062006534003495340134813401342634FF341C
:1030720000344634FF3400340934303409343134F6
:10308200093432340934353475340834953404340F
:10309200813402348534023406340034FF34093476
:1030A20001341934013429344034753408349534E8
:1030B2004034B1340334C034343403344D34003436
:1030C2006934003463340034723400346F340034B1
:1030D20063340034683400346934003470340034AA
:1030E2002034003454340034653400346334003402
:1030F200683400346E3400346F3400346C3400347D
:103102006F340034673400347934003420340034AE
:10311200493400346E340034633400342E340034C5
:103122000934023422340034013401340034C0340E
:1031320032340934043400340034013403340034AA
:1031420000340034093421341134013400340134A0
:1031520022345D340034073405348134033440347E
:1031620000340134163403345334003453340034FD
:103172002034003447340034613400346D34003478
:103182006534003470340034613400346434003403
:103192001234013400340234003400340034083470
:1031A200D83404346C34E73401340034013402344A
:1031B20000340134E13498345D349834B3349834B3
:0C31C2000434033409340434913498348C
:1037D400FC302100BF053F11080064008001013165
:1037E400890BF02B0034F0007008031DFB2B013013
:1037F4000800003008002100B701B8011A30F600B3
:1038040001309C315E249B319B31EA230800013056
:103814002100AF070030B03DB13DB23D4908031D62
:1038240008000130C0074008031D0800FF30C00035
:1038340008007008F5000130F3020030F43B730A0D
:103844000319740A031908007508860087017108B2
:1038540081000130F5071D2C3D001215EF30900555
:103864008E1401302100C900C00175302000D00041
:103874000030D1000030D200D3000030D400D50095
:103884009D31D92508000B0D0B0D0139F2008B1366
:10389400230015137108920070089100151400009C
:1038A4000000720C031C8B1303188B1723001408DD
:1038B400F1001308F0000800F800761D662CF001F2
:1038C40078088F31C2279C31F61C6D2CF001F00A68
:1038D40078088F31C2277808983EF7007708860069
:1038E4000E30870076088100080021003D083E0460
:1038F4000319822C3D0886003E088700811B0800BE
:10390400F0012030F1000130F2004030F3000130CA
:103914009331472371082100BE007008BD000800E0
:103924002100C90174302000D0000030D1000030E3
:10393400D200D3000030D400D5009D31D9259C316C
:103944003D008E101211101DAA2CFB309005A52CE1
:103954002100C0010800F2008F31FC279C31B92CF2
:10396400FC3021009900903027009B000800720869
:10397400F000F1017108003A0319C12CCC2C700835
:10398400003A0319B22C013A0319CC2C033A031957
:10399400CC2CCC2C08003D00181CEB2C20006A0811
:1039A4008600870180300106031DE92C6408860027
:1039B4006508870084300106031DE92C6A08860027
:1039C40087010C3081006A088600870181173D0059
:1039D4001810DF30900508007308F9007208F80029
:1039E4007108F7007008F6000130F4020030F53B6E
:1039F400740A0319750A03190800780886007908FF
:103A040087000108FA000130F8070030F93D760814
:103A14008600770887007A0881000130F6070030B5
:103A2400F73DF62C023021004C06031D1C2D943169
:103A3400BE240800CC014708031D412D200068085E
:103A44008600690887004131083081004030F80061
:103A54000030F90068088600690887004231780858
:103A6400C03F7908C13F68088600690887000C30A8
:103A74008100680886006908870081170800C7016B
:103A84000800F8010130F202720A0319712D70085E
:103A94008600710887000108F8060130F00700303D
:103AA400F13DF701F81B5D2D7808F300F40173353F
:103AB400F500740D672D7808F300F401F335F40D67
:103AC40007307306F50000307406F6007508F80038
:103AD4000130F707083077020318442D542D780875
:103AE4000800203020006B02031C08003D008E18E3
:103AF40008002100370838040319862D370886008A
:103B040038088700811B0800A030F7000030F80057
:103B14008C312C249D31F001F00AA030F1000030EA
:103B2400F2000830F3000130933147239D317108CE
:103B34002100B8007008B7009131FA219D3190310D
:103B44001120080000309C31AD249D31943134247F
:103B54009D319E3152269D31303021008C00F03051
:103B64008D00FF308E009513303024008C007030AF
:103B74008D0023008C018D018E01073021009504F6
:103B840095111512951215178B1705302000950005
:103B940096310D269D31203020006B02031CCA2D66
:103BA4003D008E18CA2D9D3173259D31CA2DE82DF7
:103BB40001309C31AD24080002309C31AD24080052
:103BC4009B31FD2308009231D622080020005108C1
:103BD400003A0319F12D7F3A03190B2E102E5008C9
:103BE400013A0319E22D033A0319102E013A03197D
:103BF400E52D063A0319102E773A0319102E013ACF
:103C04000319102E073A0319DE2D013A0319DA2D90
:103C1400102E5008FF3A0319102E102E0800210010
:103C2400CD01C501C201C101C701CC012000640856
:103C34008600650887007F30810504306406E4004F
:103C440000306506E50064088600650887007F305B
:103C5400810504306406E40000306506E500680868
:103C64008600690887007F308105E101E201E301F4
:103C74002100AA01AB01AC01903170209E310330C8
:103C84002000D0000030D1000030D200D30000303A
:103C9400D400D5009D31D9259E319331BD23080030
:103CA4000030F900FA01FB0179087A078600023036
:103CB40087007A08803EF0001F307B3DF1009C3184
:103CC40045249E31700881000130FA070030FB3D25
:103CD40000307B02103003197A02031C562E240094
:103CE4000003031D822E0030F0000230F1000F307B
:103CF400F2009D3143259E3124000F06031908006C
:103D040001308100023082000330830004308400DB
:103D140005308500063086000730870008308800AB
:103D24000A3089000B308A000E308B000D308C0075
:103D34000C308D0009308E0008002D302100C600A3
:103D440020006C08FD39031DE22E6C08DC000130F4
:103D5400DC36890BAA2E5C083F39DD000230DD35E4
:103D6400890BB12E5D08203EEA006A08E800E901EB
:103D740004306806E80000306906E9006A08860035
:103D84008701010C890C0F390D3A031DDF2E4030D9
:103D9400F0000030F1006A08023E86008701403FCF
:103DA400F200413FF3000830F4000030F5009C318C
:103DB400EE249E319E31112608009D311425080001
:103DC400FD306C05DC0004305C06031D08009231F4
:103DD400682208002000C801C9012F2FE117210023
:103DE4004A03031D3B2F2000C8143B2FE1173B2F30
:103DF400E11744080F39003A03193B2FC41B112F54
:103E040044080F39F0000130F035890B062F700893
:103E1400B33E86008701403FF100413F1F2F440815
:103E24000F39F0000130F035890B152F7008643E0E
:103E340086008701403FF100413FF200710886008F
:103E440072088700811F3B2F710886007208870063
:103E5400011D3B2F0130C8003B2F40081F39003A99
:103E64000319F02E013A0319F82E033A0319FA2E16
:103E74003B2F2000E11F08004830DF000030E00045
:103E840061140230E20008000830F2000030200023
:103E9400630208300319620203185D2F6208F200FE
:103EA40021004D08031D582F01305C2F4D03031DC5
:103EB4005D2F0230CD007208F000F101700820007F
:103EC400E2027108E33B640886006508870041311B
:103ED4007208810048302100CB002000611C872F2C
:103EE4009F2F21004B088600870120005F08840073
:103EF40060088500000881000130DF070030E03DE4
:103F040001302100CB070130F202720803190800C6
:103F1400732F21004B088600870120005F0884006E
:103F240060088500000881000130DF070030E03DB3
:103F340001302100CB070130F20272080319080096
:103F44008B2F2100C201C10102304C06031DD12F69
:103F54002000680886006908870041310830810024
:103F64004830F3000030F400FF307305F5007F3073
:103F74007405F600680886006908870042317508F0
:103F8400C03F7608C13F680886006908870048304A
:103F940081006808860069088700811708002000EE
:103FA40063084702031DD82F620846020318DE2F58
:103FB4004708E3004608E2009F3146274830F300F3
:103FC4000030F400FF307305F5007F307405F6000F
:103FD4002000640886006508870042317508C03FE8
:103FE4007608C13F64088600650887004830810070
:0C3FF4006408860065088700811708003B
:020000040001F9
:08000000FF3FFF3FFF3FFF3F00
:04000E00A40FCF1F4D
:00000001FF
