:041808008C310C2CE7
:101810007E148C317E10090020008C310F2CFC01CD
:10182000FD01A73084000030850043309A318C22BE
:101830008C31203084000130850044309A318C2274
:101840008C31A03084000130850040309A318C22E8
:101850008C31203084000230850040309A318C2257
:101860007E1020009C31952C2000D801D901580809
:10187000770786005908783D870081010130D80735
:101880000030D93D00305902073003195802031CBB
:10189000372C0D0E890C01399A3192228C3120009F
:1018A000DA000E0C890C01399A3192228C31200019
:1018B000DB000D0E890C890C01399A3192228C3192
:1018C0002000DC000D0E01399A3192228C3120006B
:1018D000DD000D0D0D0D01399A3192228C31F90088
:1018E000770886008701413101087906FE397906BB
:1018F000810021004319112D20000E0D0E0D01391C
:101900009A3192228C31F900770886007808870096
:1019100001087906FE397906810020000E0E890C37
:10192000890C01399A3192228C31F90077088600AE
:1019300078088700F90D01087906FD3979068100DC
:1019400020000E0CF900F90C790C01399A31922221
:101950008C31FA007708860078088700FA0DFA0DB6
:1019600001087A06FB397A06810020000C0E890CEA
:1019700001399A3192228C31F90077088600780873
:101980008700F90DF90DF90D01087906F739790687
:10199000810020000E0E890C01399A3192228C317F
:1019A000F9007708860078088700F90E01087906A3
:1019B000EF397906810020000E0E01399A3192220A
:1019C0008C31F9007708860078088700F90EF90D48
:1019D00001087906DF397906810020000E0C0139F3
:1019E0009A3192228C31F9007708860078088700B6
:1019F000F90EF90DF90D01087906BF397906810054
:101A000020000C0E01399A3192228C31F9007708AE
:101A1000860078088700F90CF90C010879067F39EF
:101A2000A52D431DA72D20000E0D0E0D01399A3155
:101A300092228C31F9007708860078088700010827
:101A40007906FE397906810020000E0E890C890C7A
:101A500001399A3192228C31F90077088600780892
:101A60008700F90D01087906FD397906810020000B
:101A70000E0CF900F90C790C01399A3192228C3153
:101A8000FA007708860078088700FA0DFA0D010839
:101A90007A06FB397A06810020000E0C01399A3152
:101AA00092228C31F9007708860087014131F90DC7
:101AB00001087906FD397906810020000C0E0139F4
:101AC0009A3192228C31F9007708860087014131E2
:101AD000F90DF90D01087906FB397906810020001E
:101AE0000E0E890C01399A3192228C31F900770857
:101AF000860087014131F90EF90D01087906DF39B9
:101B00007906810020000C0E890C01399A3192224D
:101B10008C31F9007708860087014131F90E010800
:101B20007906EF397906810020000E0E01399A31CD
:101B300092228C31F9007708860087014131F90D36
:101B4000F90DF90D01087906F739790681002100B0
:101B50004319CB2D20000D0D0D0D01399A31922224
:101B60008C31003A0319CB2D20000E0C01399A312B
:101B700092228C31003A0319CB2D7808F4007708B3
:101B8000F3000C30903103208C31F500F601F60A99
:101B900096316D268C317708860087014231010825
:101BA000F03908388100770886008701433180309A
:101BB00081007708860087014431803081007708F2
:101BC00086008701453180308100770886008701D3
:101BD000463180308100BA2E20005C080319F62DB2
:101BE00077088600870143318101FF2D5D080319C5
:101BF000FF2D7708860087014331FF3081005A08A6
:101C00000319082E770886008701443181010800F6
:101C10005B08031908007708860087014431FF300C
:101C20008100080020005A080319222E5C080319BD
:101C3000222E77088600870142310108F0390738E3
:101C4000810008005A080319312E5D080319312E4E
:101C500077088600870142310108F0390138810098
:101C600008005B080319402E5C080319402E770812
:101C70008600870142310108F039053881000800EB
:101C80005B0803194F2E5D0803194F2E7708860055
:101C9000870142310108F0390338810008005A08F1
:101CA0000319592E7708860087014231F0308105EB
:101CB00008005D080319652E770886008701423108
:101CC0000108F0390238810008005B080319712E01
:101CD00077088600870142310108F0390438810015
:101CE00008005C0803197D2E7708860087014231C1
:101CF0000108F0390638810008007708860087015E
:101D000042310108F03908388100080020005C08E1
:101D1000031D982E5D08031D8F2E8030902EFF30FE
:101D2000D2000030D3005308D1005208D0009A2EC0
:101D3000D001D10177088600870145315008810024
:101D40005A08031DB12E5B08031DA82E8030A92E52
:101D5000FF30D6000030D7005708D5005608D40011
:101D6000B32ED401D5017708860087014631540887
:101D700081000800210043080339003A0319EC2DC3
:101D8000013A0319122E033A0319862EC72E0800B2
:101D900020004203031DDE2E40081F39003A031DB8
:101DA000DE2E2100B017033020004106031DDC2E7B
:101DB00001302100CE00DE2E2100CE01200042089D
:101DC000031D080040081F39023A031D080044089B
:101DD0000F39003A0319080044080F39F90002309E
:101DE000790203180800203021005306031D080063
:101DF000B0172000C41B0F2F44080F39F900013021
:101E0000F935890B002F7908B73E86008701403FDE
:101E1000D800413FD90044080F39BD3E212F440866
:101E20000F39F9000130F935890B132F7908B33ECA
:101E300086008701403FD800413FD90044080F3950
:101E4000BF3E860087010108D7005718312FFB30AD
:101E5000F900FF30FA0058087905D80059087A05CA
:101E6000362F04305804D80000305904D900C41B60
:101E7000492F44080F39F9000130F935890B3D2FFE
:101E80007908B73E860087015808C03F5908C13F0E
:101E9000582F44080F39F9000130F935890B4D2FBF
:101EA0007908B33E860087015808C03F5908C13FF2
:101EB00003304106031D792F580886005908870012
:101EC000811F6E2FC41B682F44080F39BD3E6B2F36
:101ED00044080F39BF3E86008701811458088600E8
:101EE000590887000115580886005908870081178E
:101EF000080004305806D80000305906D9005808A8
:101F0000860059088700811FA02F580886005908AD
:101F100087007F308105580886005908870001171F
:101F20000530D0000030D1005908D3005808D20045
:101F30000230D4000030D5009C31CA248E31A52F48
:101F400058088600590887000117043020005806F9
:101F5000D80000305906D900D718B42F5808860089
:101F600059088700811FD62FC41BBA2F44080F3988
:101F7000BD3EBD2F44080F39BF3E8600870181104A
:101F800058088600590887003B3081050530D0008D
:101F90000030D1005908D3005808D2000230D400D4
:101FA0000030D5009C31CA248E31DC2F58088600C1
:101FB000590887003B308105200044080F39983EBE
:101FC000D600560886000E308700FE3081050800D6
:101FD0007108F7007008F6000130F4020030F53B9C
:101FE000740A0319750A0319080076088600770831
:101FF0008700720881000130F6070030F73DEC2FB2
:102000009A317F220800F200D530F0000030F10054
:102010007208700786000030713D870001080800D3
:1020200021004808031D08000130C8004708031DAF
:1020300008000130C70002305006031D3128330864
:102040008600340887004131810133088600340856
:1020500087004830810033088600340887008117E4
:1020600008005003031D0800CB01520A86008701B7
:10207000083081004030F0000030F1005208023E8C
:10208000860087017008C03F7108C13F5208860072
:1020900087010430810052088600870181170130D2
:1020A000CB0041088600420887004131083081009A
:1020B0004030F0000030F1004108860042088700FF
:1020C00042317008C03F7108C13F41088600420894
:1020D00087008030810008002000C801C901B228B3
:1020E0002100B0174E03031DBE282000C814BE28CF
:1020F0002100B017BE282100B017200044080F3976
:10210000003A0319BE28C41B942844080F39F00074
:102110000130F035890B89287008B73E86008701A9
:10212000403FF100413FA22844080F39F000013040
:10213000F035890B98287008B33E86008701403F30
:10214000F100413FF2007108860072088700811F8C
:10215000BE287108860072088700011DBE28013064
:10216000C800BE2840081F39003A03197028013AF8
:1021700003197828033A03197B28BE282100B01FD1
:1021800008004830AE000030AF0030140230B1001B
:10219000080020000D0D0D0D01399A319222903169
:1021A000003A0319080020000C0E01399A319222DE
:1021B0009031003A031908000B11053020009500FA
:1021C000F101F20120000D0D0D0D01399A3192221D
:1021D0009031003A0319080020000C0E01399A31A1
:1021E00092229031003A031908000B1DE2280130B9
:1021F000F1070030F23D00307202FA30031971022B
:10220000031C232903102100431D0314031C0B2965
:10221000210043150D2921004311F101F201192973
:1022200020000C0E01399A3192229031003A0319A4
:10223000232920000D0D0D0D01399A319222903184
:10224000003A031D10290B11053020009500E228EB
:102250002100C601C50102305006031D5529410861
:102260008600420887004131083081004830F30081
:102270000030F400FF307305F5007F307405F60080
:10228000410886004208870042317508C03F760841
:10229000C13F41088600420887004830810041085C
:1022A0008600420887008117080032082000470294
:1022B000031D5E292100310820004602031867290A
:1022C00047082100B200200046082100B1009E31DD
:1022D000D7264830F3000030F400FF307305F500D6
:1022E0007F307405F600210033088600340887002B
:1022F00042317508C03F7608C13F33088600340874
:102300008700483081003308860034088700811731
:1023100008002000400E890C0339003A031D080014
:10232000C9292100B0170830D30008009231562285
:1023300008009131ED210800E9302100AE000030A5
:10234000AF0030140130B100B017080090316C209C
:1023500008008E31C82608004408E43E2100AE0083
:102360000030A0292100B01720004408E43E860078
:1023700087014208810008000230D0000030D100FF
:102380000030D200D3000030D400D5009C31CA24E4
:1023900008004108003A0319A629013A0319A9299E
:1023A000023A0319A929063A03199129033A031994
:1023B0009629013A0319BC290F3A03199C29013ABD
:1023C00003199929033A0319AC29013A0319B229CF
:1023D000073A0319EC29EC2908002100B0179930BD
:1023E000F900FA01790886000E308700810101307A
:1023F000F9070130FA077A080319F2292030F000B2
:102400000030F1000030F200F3002030F400003022
:10241000F5008F31E82791313D000E17FB017B0855
:10242000BF3E8600870181017B08BD3E8600870193
:1024300081010130FB0702307B02031C0F2AE430CC
:10244000F0000030F1000030F200F3000230F40040
:102450000030F5008F31E82791313D000E13283010
:102460002100B3000030B4002030D2005208C10077
:10247000C201200042082100E9006908031D432A27
:102480001030D300080001302000D0000030D1000F
:10249000E930D2000030D3000130D4000030D50044
:1024A0009C31CA2420302100D30008008030200055
:1024B0004006031D0800C0302100B000B42ADD3002
:1024C0002100AE009830AF001230B1000030B200F1
:1024D00008004208031D902A4208F000F101F0357F
:1024E000F10DF930700784001830713D8038850097
:1024F000003F2100AE00013FAF0002302E078400F4
:102500002F080318013E85000008B10003302E0794
:1025100084002F080318013E85000008B20008005F
:102520002100B0010800033042020318902A42083B
:10253000F000F101F035F10DEF3070078400183034
:10254000713D80388500003F2100AE00013FAF00A3
:102550002E0884002F0885000008F000F1017008A3
:10256000B1007108B200080020004308013A0319C5
:102570005F2A033A0319692A013A0319932A902A18
:10258000080020000D0D0D0D01399A319222923173
:10259000003A0319080020000E0C01399A319222EA
:1025A0009231003A031908000B1105302000950004
:1025B000F101F20120000D0D0D0D01399A31922229
:1025C0009231003A0319080020000E0C01399A31AB
:1025D00092229231003A031908000B1DDA2A0130C9
:1025E000F1070030F23D00307202FA300319710237
:1025F0000318072B2A2B4308FC390138022B430808
:10260000FC390238C300142BFC30C305142B210005
:1026100043080339003A0319FB2A013A0319FF2A38
:10262000033A0319042B142BF101F201202B200093
:102630000E0C01399A3192229231003A03192A2B59
:1026400020000D0D0D0D01399A3192229231003A80
:10265000031D172B0B11053020009500DA2A3D00D1
:102660000E122100B01B6C2BA91F412B0230D00091
:102670004508031D3D2B913128212100C701C801C8
:102680000800410886004208870041310830810077
:102690004030F7000030F80041088600420887000B
:1026A00042317708C03F7808C13F410886004208A0
:1026B00087000C308100410886004208870081179E
:1026C0003308860034088700043081003308860010
:1026D00034088700811708002000C01F812B0130BB
:1026E0002100D0004608031D782B91312821933119
:1026F0002100C701C8014908031D080090311020BE
:10270000080002302100D0004108860042088700FE
:102710004131083081004030F7000030F8004108B6
:1027200086004208870042317708C03F7808C13FE1
:102730004108860042088700043081004108860075
:10274000420887008117792BF80070080319B02B15
:102750007835B33E86008701403FF900413FB72BF3
:102760007835B73E86008701403FF900413FFA00C7
:1027700079087A04031DBF2BF001F1010800FF3036
:102780007105F4007F307205F500790886007A083B
:10279000870042317408C03F7508C13F7908860040
:1027A0007A088700413173088100790886007A0829
:1027B000870040308105790886007A0887008115F6
:1027C000790886007A088700811770080319FF2BA3
:1027D0007835B33E86008701403FF400413FF50065
:1027E00004307406F60000307506F7007835B33E05
:1027F000860087017608C03F7708C13F152C7835E1
:10280000B73E86008701403FF400413FF5000430A9
:102810007406F60000307506F7007835B73E86007E
:1028200087017608C03F7708C13F7A08F100790830
:10283000F000080021003308860034088700010EEC
:10284000890C890C01392000ED0004302100330689
:10285000B30000303406B40008305306031D3D2C8D
:10286000200042087F393D009600160803193A2CD3
:1028700010303B2C04302100D3005003031D882C62
:1028800048302000E9000030EA00FF306905EB0025
:102890007F306A05EC002100330886003408870089
:1028A000423120006B08C03F6C08C13F9E31D726E3
:1028B0009431023021005106031D6A2C3308860032
:1028C000340887000430810033088600340887000C
:1028D0008117080020006D08031D7B2C21003308A0
:1028E00086003408870048308100330886003408A9
:1028F000870081170800210033088600340887000C
:1029000008308100330886003408870081170800EA
:10291000A91F992C2C082D040319972C0530A73ECC
:1029200086008701413F8A00403F0A009431210020
:10293000A913D0010800210012113D00930190015C
:1029400098019930F100F201710886000E3087007D
:1029500081010130F1070130F20772080319A42C3C
:1029600016303D0091009F3097007B309200F301BC
:102970007308F0000230F035890BBB2C7008203E44
:10298000860087010030C03F0030C13FC23FC33FD7
:102990000130F30708307302031CB82C3D000E17FA
:1029A00096010E120E13F73090052100B001A90117
:1029B000AA01AB013D009019D32C01302100C800C1
:1029C0000130C700C601C501CD01F3017335B33E27
:1029D000860087010030C03FC13F7335B73E860097
:1029E00087010030C03FC13F7308BF3E86008701AA
:1029F00081017308BD3E8600870181010130F30724
:102A000002307302031CE62C28302100B300003092
:102A1000B40016303D00980000302000A300403084
:102A2000A2000830A1000430A000A0172100E90195
:102A300000302200A3000030A2000030A1000030CE
:102A4000A0002100C401D3010800200040081F3964
:102A5000013A031D08000230440203180800063042
:102A600041060319642D6F2D21006903031D6F2D8D
:102A700020004408031D482D90302100AE009830FE
:102A8000AF000930B1000030B200C030B0006F2D8F
:102A90004403031D6F2DAB302100AE009830402D54
:102AA0004408031D5A2D00302100AE009830AF00BD
:102AB0004A30422D4403031D6F2DC8302100AE0063
:102AC0009830AF001530422D4308213A0319342DB8
:102AD000033A0319502D013A03196F2D6F2D200071
:102AE000400E890C0339013A031D0800A22D9D31C7
:102AF00077250800E7302100AE000030AF0001303C
:102B0000B1000030B200C130B000080080302100B8
:102B1000B000200043082100E7000800E630210053
:102B2000AE000030AF000130B1000030B2008130A3
:102B3000B000080080302100B000200042082100D1
:102B4000E60008004108013A0319772D033A0319FA
:102B50007A2D013A03198E2D0A3A0319772D033A7B
:102B60000319862D013A03199A2DB62D080021006C
:102B7000520A8600870101082000EE006E08E90075
:102B8000EA016A0821002B02031DCA2D20006908F2
:102B900021002A020318CF2D2A082000EE00200071
:102BA0006E08E900EA0169082100AA0220006A080B
:102BB0002100AB3B2000ED016E086D020318F52DDE
:102BC0002100270886002808870020006D08483E5D
:102BD000840085010008810001302100A707003032
:102BE000A83D01302000ED07DC2D21002A082B0430
:102BF0000319352E4108860042088700413108300C
:102C0000810048302000E9000030EA00FF3069050B
:102C1000EB007F306A05EC00210041088600420885
:102C20008700423120006B08C03F6C08C13F210083
:102C3000520886008701011B292E410886004208A0
:102C400087004830810041088600420887008117CC
:102C500008004108860042088700083081004108CA
:102C60008600420887008117080041088600420854
:102C7000870041310830810040302000E9000030F9
:102C8000EA00210041088600420887004231200006
:102C90006908C03F6A08C13F210041088600420818
:102CA00087000430810041088600420887008117B0
:102CB0002C082D040319652E0530A73E86008701D8
:102CC000413F8A00403F0A0096312100A91349087C
:102CD000031D0800903110200800FA2E73088600AA
:102CE00074088700760801390110031D01140800DB
:102CF0007308860074088700760801398110031D67
:102D0000811408007308860074088700760801396A
:102D10000111031D0115080073088600740887005F
:102D2000760801398111031D81150800730886009A
:102D300074088700760801390112031D0116080086
:102D40007308860074088700760801398112031D14
:102D50008116080073088600740887007608013918
:102D60000113031D0117080073088600740887000B
:102D7000760801398113031D811708007308860046
:102D800087014131760801390110031D0114080043
:102D90007308860087014131760801398110031DCF
:102DA00081140800730886008701413176080139D3
:102DB0000111031D011508007308860087014131C8
:102DC000760801398111031D8115080073088600FA
:102DD00087014131760801390112031D01160800EF
:102DE0007308860087014131760801398112031D7D
:102DF000811608007508013A03196E2E033A03196B
:102E0000782E013A0319822E073A03198C2E013AC3
:102E10000319962E033A0319A02E013A0319AA2E7C
:102E20000F3A0319B42E013A0319BE2E033A0319BF
:102E3000C82E013A0319D22E073A0319DC2E013AA3
:102E40000319E62E033A0319F02E262F080021005D
:102E50005308031D3B2F3D008E0192011630910057
:102E60009F3097007B3092008E19382F8E15342FAB
:102E700001302100D3005303031D482F3D008E1A5B
:102E8000482F900192011214121602302100D30033
:102E90003D001019121D512FFB3090059B312F233F
:102EA00097313D008E1C572F20001211080010187A
:102EB000121C632F94319B24973104302100D300DE
:102EC000FE303D009005101A121E692F9A31CC2257
:102ED00097313D00101F8F2F121F7D2F7330200060
:102EE000D0000030D1000030D200D3000130D40037
:102EF0000030D5009C31CA249731BF303D00900589
:102F00009A31B922973121004A080319892F0130DB
:102F1000CA024A08031D8F2F9031102097313D00BF
:102F2000901A921E962F9B318B2397313D0090185B
:102F3000921CAB2FFF302000D0007F30D10000303A
:102F4000D200D3000130D4000030D5009C31CA2417
:102F500097313D0093010430210053020318B32F31
:102F60002000121108003D00921DFD2F2100EE01EE
:102F7000FA2F0F082100E800680C2000EF00EF0C8A
:102F80006F0C0F392100CC00F7303D009005210077
:102F90006819CD2F4C08BD3ECF2F4C08BF3E860090
:102FA0008701010801392000EF000130EF06010818
:102FB0006F06FE396F06810021004C08031DE42FC7
:102FC0009E313C269731F32F72302000D000003024
:102FD000D100E830D2000030D3000030D400D5005A
:102FE0009C31CA24973101302100EE0704306E0273
:102FF0000318FD2F3D009019B92F20001211080071
:103000000534013409340534A13401341534003455
:1030100025340134353400344534013475340134F9
:1030200095340E34053409341934013429340E34FE
:10303000813402349534023481340134053401344E
:103040002534073446343B34013475340434953424
:1030500001346534143409343934813442346534EC
:10306000003495340134813401342634FF34003483
:103070004634FF34003409343034093431340934EF
:103080003234093435347534083495340434813499
:103090000234C034343403344D34003469340034E1
:1030A00063340034723400346F34003463340034D9
:1030B000683400346934003470340034203400340F
:1030C00054340034653400346334003468340034DC
:1030D0006E3400346F3400346C3400346F34003498
:1030E00067340034793400342034003449340034F7
:1030F0006E340034633400342E3400340934023426
:1031000034340034023401340034C03432340934ED
:103110000434003400340134033400340034003407
:1031200009342134113401340034013422344A3456
:10313000003407340534813403344034003401341E
:10314000093404340134003400340334FF34FF34D0
:103150000034093421341134013400340134223470
:1031600015340034163403345334003453340034EB
:103170002034003447340034613400346D3400347A
:103180006534003470340034613400346434003405
:1031900006340034FF3409340134A13401341534C9
:1031A00000342634FF340034753408349534403408
:1031B00009340134B1340234C034123401340034DF
:1031C00002340034003400340834D83404346C340D
:1031D000E734013400340134023400340134F5346E
:1031E00098344A349834B23498340434033409346B
:0631F00004347E34983423
:1034F800FC01FD0108002300951108007108FC007B
:103508007008FD000800FC302100C30543110800C5
:10351800640080010131890B8D2A0034F0007008A5
:10352800031D982A01300800003008000130F0001F
:103538002300951C1518A12AF00170080800A03076
:103548002000D0004030D1000030D2009F312A271F
:1035580008002100BB01BC011A30F60001309A3185
:10356800FC229A319A318722080001302200A007F4
:103578000030A13DA23DA33D21004D08031D0800D8
:103588000130C4074408031D0800FF30C4000800C8
:103598003D001215EF3090058E1401302100CD004A
:1035A800C40175302000D0000030D1000030D200B6
:1035B800D3000030D400D5009C31CA2408000B0D7C
:1035C8000B0D0139F2008B132300151371089200BB
:1035D80070089100151400000000720C031C8B1376
:1035E80003188B1723001408F1001308F0000800D3
:1035F800F800761D042BF00178089D3102259A31D8
:10360800F61C0B2BF001F00A78089D31022578088A
:10361800983EF700770886000E308700760881000C
:1036280008000B0D0B0D0139F2008B132300151345
:103638007108920070089100151615157D089600FE
:103648007C0896009514720C031C8B1303188B17B7
:103658001511150808002100CD0174302000D00094
:103668000030D1000030D200D3000030D400D500A3
:103678009C31CA249B313D008E101211101D472B1E
:10368800FB309005422B2100C4010800F200903164
:1036980000209B31562BFC302100990090302700E8
:1036A8009B0008007208F000F1017108003A031944
:1036B8005E2B692B7008003A03194F2B013A031946
:1036C800692B033A0319692B692B08007308F70063
:1036D8007208F6007008F9000130F4020030F53B7A
:1036E800740A0319750A0319080076088600770812
:1036F80087000108F8000130F6070030F73D790827
:1037080086008701780881000130F907702B3D0099
:10371800181CA92B21005208860087018030010659
:10372800031DA72B33088600340887008430010660
:10373800031DA72B5208860087010C308100520810
:103748008600870181173D001810DF3090050800BA
:10375800F2017235243E860001308700FF30C03FF9
:103768003F30C13F0130F20720307202031CAD2BFD
:10377800F3017308D43E860087010030873D00308E
:103788000104F0003F30F1007335243E860001301B
:1037980087007008C03F7108C13F0130F30710303F
:1037A800730203180800BD2B023021005006031DC8
:1037B800E02B9531B7250800D0014B08031D042CD8
:1037C80041088600420887004131083081004030B6
:1037D800EA000030EB0041088600420887004231C9
:1037E8006A08C03F6B08C13F41088600420887004D
:1037F8000C308100410886004208870081170800C4
:10380800CB01080070088600013087008101F501AE
:1038180075087007F100710A860001308700D530FD
:10382800F2000030F3007508720784000030733D21
:103838008500000881000130F5070E307502031C71
:103848000C2C0F30F40070087407860001308700D4
:1038580081010130F4074030740203180800272C56
:10386800F8010130F202720A0319622C700886000E
:10387800710887000108F8060130F0070030F13DB3
:10388800F701F81B4E2C7808F300F4017335F500A6
:10389800740D582C7808F300F401F335F40D073053
:1038A8007306F50000307406F6007508F80001305C
:1038B800F707083077020318352C452C78080800DC
:1038C800203021005302031C08003D008E18080018
:1038D80021003B083C040319772C3B0886003C0870
:1038E8008700811B0800A030F7000030F8008C31F9
:1038F80034249C31F001F00AA030F1000030F200CD
:103908000730F30001309331A4239C317108210062
:10391800BC007008BB009231C1229C319031C92093
:10392800080000309B314A239C3194319B249C3100
:103938009D31F1259C31303021008C00F0308D0014
:10394800FF308E009513303024008C0070308D00CD
:1039580023008C018D018E010730210095049511FB
:103968001512951215178B17053020009500973101
:1039780027279C31203021005302031CBB2C3D001B
:103988008E18BB2C9C3164249C31BB2CD92C013063
:103998009B314A23080002309B314A2308009A31A0
:1039A800AD22080095312525080020005108003A6D
:1039B8000319E22C7F3A0319FC2C012D5008013A17
:1039C8000319D32C033A0319012D013A0319D62CF4
:1039D800063A0319012D773A0319012D013A031903
:1039E800012D073A0319CF2C013A0319CB2C012DCD
:1039F8005008FF3A0319012D012D0800F40020306A
:103A0800F5007008F1000130F135890B082D7408B4
:103A1800F2000230F235890B0E2D72087107F3009F
:103A28000230F335890B152D7308F50775088600E4
:103A3800870181137008031D2A2D7435B73E86004F
:103A480087017508C03F0030C13F322D7435B33E41
:103A5800860087017508C03F0030C13F75088600A1
:103A6800870101137508043E8600870101170800C5
:103A78002030F6000B0D0B0D0139F500230015134E
:103A8800151595160130F602760A0319742D71087A
:103A98009200700891000130F0070030F13D720883
:103AA800860001308700403FF300413FF40074086E
:103AB80094007208860001308700010893000230E4
:103AC800F2077608031995128B137D0896007C0877
:103AD80096009514750C031C8B1303188B17462D31
:103AE800151115080800200042084408F80078035A
:103AF800031D080009304106031D912DA030210047
:103B0800A7000130A8004030AA000030AB00A33065
:103B1800AC001A30AD00A91708004103031D0800C6
:103B2800A030F0000130F1000030F200F300403026
:103B3800F4000030F5008F31E8279D31A030F00007
:103B48009C310624A0302100AE000130AF00403087
:103B5800B1000030B200C130B00008002100D1012E
:103B6800C901C601C501CB01D0013308860034085C
:103B780087007F30810504303306B30000303406F7
:103B8800B40033088600340887007F30810504308C
:103B98003306B30000303406B400410886004208FA
:103BA80087007F308105B001B101B201A901AA01E6
:103BB800AB01913189219D3103302000D0000030C4
:103BC800D1000030D200D3000030D400D5009C31A1
:103BD800CA249D3193312F230800FB017B08803EC6
:103BE800F0001F3003182030F1009A31E3229D3194
:103BF8007108FA007008F9007B08D43E8600870136
:103C08000030873D790881000130FB0710307B02C6
:103C1800031CF22D21005403031D1F2ED430F00085
:103C28000030F1000F30F2009C3134249D31210026
:103C38006306031908000130D5000230D6000330AE
:103C4800D7000430D8000530D9000630DA00073034
:103C5800DB000830DC000A30DD000B30DE000E30FF
:103C6800DF000D30E0000C30E1000930E200080010
:103C78002D302100CA006808FD39031D7E2E680812
:103C8800EC000130EC36890B462E6C083F39ED000C
:103C98000230ED35890B4D2E6D08203ED2005208BA
:103CA800C100C20104304106C10000304206C20012
:103CB800520886008701010C890C0F390D3A031D43
:103CC8007B2E4030F0000030F1005208023E8600A2
:103CD8008701403FF200413FF3000830F400003014
:103CE800F5009B316A239E319D31B22508009B3136
:103CF800D8230800FD306805EC0004306C06031D6D
:103D0800080094311A240800D530F0000030F10082
:103D18007A08F200F3010E30F4000030F5009B3110
:103D28006A239E3101302100D400D430F0000030E5
:103D3800F1000F30F2009C3134249E312100E30061
:103D48009B31AC239E310B0D0B0D0139FB008B13FE
:103D58005530F000AA30F1009A3182229E3180302D
:103D6800F0001F30F1009B3115239E319A319A22C1
:103D78009E31003A031DBA2E8030F0001F30F1004A
:103D88002430F2009D313C259E319A319A229E3191
:103D9800003A031DC92E9A317C227B0C031C8B131D
:103DA80003188B1708000830F20000302100320297
:103DB8000830031931020318ED2E3108F2005108BA
:103DC800031DE82E0130EC2E5103031DED2E0230A9
:103DD800D1007208F000F1017008B1027108B23B1D
:103DE8003308860034088700413172088100483062
:103DF800CF00301C112F262F4F08860087012E0870
:103E080084002F088500000881000130AE070030CB
:103E1800AF3D0130CF070130F202720803190800E4
:103E2800002F4F08860087012E0884002F08850080
:103E3800000881000130AE070030AF3D0130CF07E8
:103E48000130F202720803190800152F0130200012
:103E5800E6005108FF3ED300FF30523DD400003049
:103E680054020F30031953020318402F5108FF3E24
:103E7800E300FF30523D432F0E30E3000030E400F2
:103E88006308E500E7016508670203185C2F670807
:103E9800553E8600870166085007D3005308670718
:103EA800840001308500000881000130E707472FB2
:103EB8006508E8000E3068020318782F6808553E38
:103EC80086008701D530D3000030D4006808530736
:103ED80084000030543D8500000881000130E80767
:103EE8000E306802031C622F5530FA009E31882676
:083EF8009F319D31F125080006
:020000040001F9
:08000000FF3FFF3FFF3FFF3F00
:04000E00A40FCF1F4D
:00000001FF
