:041808008C310C2CE7
:101810007E148C317E10090020008C310F2C483052
:101820008400003085001530903101208C3160300B
:101830008400013085001030903101208C31E0307F
:101840008400013085000F30903101208C317E10F2
:1018500020009D31EC2DF50020000D0D0D0D0139FE
:10186000903107208C31F1007508023E8600870117
:10187000F10E01087106EF397106810020000E0E8D
:10188000890C890C0139903107208C31F1007508E1
:10189000033E86008701F10E01087106EF397106DB
:1018A000810020000E0CF100F10C710C0139903117
:1018B00007208C31F2007508033E86008701F20E86
:1018C000F20D01087206DF397206810020000E0D4C
:1018D0000E0D0139903107208C31F1007508033E5F
:1018E00086008701F10EF10DF10D01087106BF3977
:1018F0007106810020000E0E890C013990310720FD
:101900008C31F1007508033E86008701F10CF10C63
:10191000010871067F397106810020005319912C4E
:10192000922CF62C0C0E890C0139903107208C3149
:10193000F1007508033E8600870101087106FE3933
:101940007106810020000E0E0139903107208C3184
:10195000F1007508033E86008701F10D010871064C
:10196000FD39710681007508023E860087018113EA
:101970007508023E8600870101137508023E860045
:10198000870181127508033E86008701011120003E
:101990000E0C0139903107208C31003A0319D12CFB
:1019A000D22CD92C7508043E86008701FF308100B7
:1019B000DE2C7508043E86008701810120000C0E94
:1019C0000139903107208C31003A0319E82CE92CB9
:1019D000F02C7508053E86008701FF308100592DE7
:1019E0007508053E860087018101592D531DF92C8C
:1019F000FA2C592D7508033E8600870101107508E1
:101A0000033E8600870181100E0C013990310720BA
:101A10008C31F1007508023E86008701F10CF10C53
:101A2000010871067F397106810020000C0E013912
:101A3000903107208C31F1007508023E8600870145
:101A4000F10EF10DF10D01087106BF39710681002B
:101A500020000E0CF100F10C710C013990310720BF
:101A60008C31F2007508023E86008701F20EF20DFD
:101A700001087206DF397206810020000E0E01395E
:101A8000903107208C31F1007508033E86008701F4
:101A9000F10DF10D01087106FB3971068100750821
:101AA000043E8600870181017508053E8600870196
:101AB00081017508023E8600870101117508023E0A
:101AC0008600870181117508023E8600870101109A
:101AD0007508023E8600870181107508073E860062
:101AE000870181017508063E86008701810175081E
:101AF000083E8600870181017508093E860087013E
:101B0000810175080B3E86008701810175080A3E38
:101B100086008701810175080C3E860087018101DE
:101B200075080D3E8600870181018C2E0D0E890CF3
:101B3000890C0139903107208C31003A0319A12D0D
:101B4000A22DA92D7508073E8600870180308100EF
:101B5000C02D20000D0E0139903107208C31003A44
:101B60000319B32DB42DC02D7508073E86008701DB
:101B70007F3081007508063E86008701FF308100B6
:101B800020000E0C890C0139903107208C31003A6D
:101B90000319CB2DCC2DD32D7508093E8600870166
:101BA00080308100A12E20000D0E890C013990316A
:101BB00007208C31003A0319DE2DDF2DA12E750888
:101BC000093E860087017F3081007508083E860047
:101BD0008701FF308100A12E0D0E890C890C01397F
:101BE000903107208C31F1007508023E8600870194
:101BF000F10DF10D01087106FB397106810020001D
:101C00000D0E0139903107208C31F1007508023E2C
:101C100086008701F10DF10DF10D01087106F7390C
:101C20007106810020000D0E890C013990310720CA
:101C30008C31F1007508023E8600870101087106AB
:101C4000FE397106810020000E0C890C013990319B
:101C500007208C31F1007508023E86008701F10DE6
:101C600001087106FD3971068100A12E0D0E890C47
:101C7000890C0139903107208C31003A0319412E2B
:101C8000422E492E75080B3E860087018030810068
:101C9000602E20000D0E0139903107208C31003A62
:101CA0000319532E542E602E75080B3E86008701B3
:101CB0007F30810075080A3E86008701FF30810071
:101CC00020000E0C890C0139903107208C31003A2C
:101CD00003196B2E6C2E732E75080D3E860087013E
:101CE00080308100A12E20000D0E890C0139903129
:101CF00007208C31003A03197E2E7F2EA12E750805
:101D00000D3E860087017F30810075080C3E8600FD
:101D10008701FF308100A12E200053080339F10014
:101D2000F2017208003A0319962EA12E7108003AAA
:101D30000319962D013A0319EC2D033A0319362E97
:101D4000A12EF301F40173087507F10071080E3E2E
:101D50008600870181010130F3070030F43D7408EB
:101D6000803AF10080307102031DB82E06307302F4
:101D7000031CBB2EBC2EA32E080020005908031DF7
:101D8000C22EC32ED52E3D008E0192011630910039
:101D90009F3097007B309200CE2E8E158E1DD12E57
:101DA000D22ECD2E2000D901D90A5903031DD92ED8
:101DB000DA2EE62E3D008E1ADE2EDF2EE62E900164
:101DC00092011214121602302000D9003D00101D9D
:101DD000EA2EEB2EF82E121DEE2EEF2EF82EFB30F3
:101DE0002000EE006E083D0090059C3169248E3184
:101DF0003D008E1CFC2EFD2E002F20001211E22F24
:101E0000101C032F042F132F121C072F082F132F22
:101E1000953169258E3104302000D900FE30EE0066
:101E20006E083D009005101E162F172F1E2F121E34
:101E30001A2F1B2F1E2F9C314E248E313D00101F58
:101E4000222F232F502F121F262F272F372F73308B
:101E50002000DD000030DE000030DF000030E00058
:101E60000130E1000030E2009E3126268E31BF3085
:101E70002000EE006E083D0090059C3133248E3129
:101E800022006B080319452F462F482F0130EB0223
:101E90006B08031D4C2F4D2F502F903110208E3189
:101EA0003D00901E542F552F5C2F921E582F592FF6
:101EB0005C2F9D3121258E313D00901C602F612FBC
:101EC000772F921C642F652F772FFF302000DD00C5
:101ED0007F30DE000030DF000030E0000130E10044
:101EE0000030E2009E3126268E313D009301043001
:101EF0002000590203187D2F7E2F802F1211E22F10
:101F00003D00921D842F852FE02F2000EF013D0022
:101F1000901D8B2F8C2FE02F0F082000DA005A0C19
:101F2000EE00EE0C6E0C0F39D500F730EE006E08A7
:101F30003D00900520005A199E2F9F2FAF2F550866
:101F4000623E86000130870001080139EE00013051
:101F5000EE0601086E06FE396E068100BE2F55089A
:101F6000643E86000130870001080139EE0001302F
:101F7000EE0601086E06FE396E0681005508031D47
:101F8000C22FC32FC72F9E31ED268E31D52F723031
:101F9000DD000030DE005A30DF000030E0000030AD
:101FA000E100E2009E3126268E3101302000EE0055
:101FB0006E08EF0704306F02031CDF2FE02F872F1E
:101FC000200012110800F200EC2FFC3021009900D3
:101FD000903027009B00FF2F7208F000F10171087C
:101FE000003A0319F42FFF2F7008003A0319E52F68
:101FF000013A0319FF2F033A0319FF2FFF2F08009F
:10200200640080010131890B02280034F00070085D
:1020120003190C280E2801300F2800300800220076
:102022006A08031D152816287E280130EA0069086F
:10203200031D1C281D287E280130E90002302000E3
:102042005606031D2528262838284D0886004E08E6
:102052008700413181014D0886004E0887004830D3
:1020620081004D0886004E08870081177E2856039E
:10207200031D3C283D287E282200EC012000580A3E
:1020820086008701403081004030F0000030F100CE
:102092005808023E860087017008C03F7108C13FA0
:1020A200580886008701043081005808860087019D
:1020B20081172200EC01EC0A20005108013EF000D9
:1020C2000030523DF10070088600710887004030F0
:1020D20081004030F0000030F100510886005208C3
:1020E200870042317008C03F7108C13F5108860025
:1020F20052088700803081007E28080020000D0DE4
:102102000D0D0139903107209031003A03198A28C8
:102112008B28EE2820000C0E0139903107209031D7
:10212200003A031995289628EE280B110530200055
:102132009500F101F201D7280B1DA028A128D7286C
:102142000130F1070030F23D00307202FA3003191B
:102152007102031CAD28AE28D32803102000531DA2
:1021620003140318B528B82820005315BA282000F4
:102172005311F101F20120000D0D0D0D01399031C5
:1021820007209031003A0319C728C828D328200015
:102192000C0E0139903107209031003A031DD228EC
:1021A200D328BC280B1105302000950020000D0D0E
:1021B2000D0D0139903107209031003A0319E228C0
:1021C200E328EE2820000C0E0139903107209031CF
:1021D200003A031DED28EE289D2808002000400E3D
:1021E200890C0339003A0319F728F82833295E29A4
:1021F200CA170830D9005E299231B82290315E297F
:102202009231432290315E295C30C8000030C9000F
:102212004A14CB01CB0ACA175E299F319827903105
:102222005E299631B22690315E2944085B3EC80091
:102232000030C9000929CA1744085B3E860087019D
:10224200420881005E290230DD000030DE000030ED
:10225200DF000030E0000030E100E2009E3126267F
:1022620090315E294108EA00EB016B08003A03193C
:102272003B295E296A08003A03190E29013A03191B
:102282001229023A03191229063A0319F928033AC4
:102292000319FD28013A031924290F3A03190529C4
:1022A200013A03190129033A03191629013A0319BC
:1022B2001C29073A03195E295E2908004030F20002
:1022C200003020004C02403003194B0203186A29E7
:1022D2006B297C294B08F2005708031D71297229CA
:1022E2007529D701D70A7C295703031D79297A2931
:1022F2007C290230D7007208F000F1017008CB028D
:102302007108CC3B4D08013EF00000304E3DF1001B
:10231200700886007108870072088100B0302200C0
:10232200EF0020004A1896299729CA29AE292200CF
:102332006F0886008701200048088400490885004C
:10234200000881000130C8070030C93D0130F000AB
:1023520070082200EF070130F2027208031DB22951
:10236200B3299829CF2922006F088600870120000F
:102372004808840049088500000881000130C80728
:102382000030C93D0130F00070082200EF07013033
:10239200F2027208031DCE29CF29B42908002000B9
:1023A2004D0886004E0887000030011B0130F50001
:1023B20004304D06CD0000304E06CE0008305906DE
:1023C200031DE429E529F52942087F393D009600DD
:1023D20016080319ED29EE29F22910302000D90040
:1023E200F52904302000D9005603031DF929FA29E2
:1023F2003A2AB030F3000030F4004D0886004E084F
:10240200870042317308C03F7408C13F91315F2198
:102412009131023020005706031D102A112A1D2A6D
:102422004D0886004E088700043081004D08860062
:102432004E0887008117422A7508031D212A222A85
:102442002E2A4D0886004E088700483081004D082C
:1024520086004E0887008117422A4D0886004E08E2
:102462008700083081004D0886004E0887008117DA
:10247200422A2300E21F3E2A3F2A402AE21320007A
:10248200D60108002000CA170E30E4009930E3009C
:10249200E501630886006408870081010130E307D3
:1024A2000030E43D0130FD007D08E50765080319B1
:1024B2005B2A5C2A4A2A0030F000F1002030F20048
:1024C2000030F300203094313F2492313D000E174A
:1024D2002000E6016608643E860001308700810123
:1024E2006608623E86000130870081010130FD00EE
:1024F2007D08E60702306602031C802A812A6B2AC5
:102502000030F000F1000130F2000030F3005B30E7
:1025120094313F2492313D000E1328302000CD002B
:102522000030CE002030D8005808D100FF39031DFA
:102532000030D2004208DC005C08031DA12AA22A56
:10254200A52A1030D900B72A0130DD000030DE00A4
:102552005C30DF000030E0000130E1000030E200DA
:102562009E312626923120302000D900080080308A
:1025720020004006031DBE2ABF2A322BC030CA00EB
:102582001F2B9F30C8009830C9001230CB0000309A
:10259200CC00322B4208031DCF2AD02AFB2A420844
:1025A200F000F101F035F10DE730700784001830CA
:1025B200713D80388500003FC800013FC9004908CD
:1025C200F1004808F0000230700784007108031817
:1025D200710A85000008CB004908F1004808F000A4
:1025E20003307007840071080318710A850000081F
:1025F200CC00322BCA01322B033042020318022BC9
:10260200032BFB2A4208F000F101F035F10DDB301B
:10261200700784001830713D80388500003FC80083
:10262200013FC90048088400490885000008F000FD
:10263200F1017008CB007108CC00322B4308F00086
:10264200F1017108003A0319272BFB2A7008013A9D
:102652000319C22A033A0319CB2A013A0319FD2AA4
:10266200FB2A0800F70070080319382B392B422B7C
:1026720077354D3E86008701403FF800413FF90023
:102682004B2B7735EB3E860001308700403FF80048
:10269200413FF90078087904031D502B512B542B2C
:1026A200F001F101B72B7108F3000030F400780853
:1026B20086007908870042317308C03F7408C13F21
:1026C2007808013EF3000030793DF400730886007B
:1026D20074088700720881004030F3007808860091
:1026E20079088700730881057808860079088700D1
:1026F2008115780886007908870081177008031908
:10270200832B842B9B2B77354D3E86008701403FE0
:10271200F300413FF40004307306F5000030740604
:10272200F60077354D3E860087017508C03F760872
:10273200C13FB32B7735EB3E860001308700403F27
:10274200F300413FF40004307306F50000307406D4
:10275200F6007735EB3E8600013087007508C03FF2
:102762007608C13F7908F1007808F00008002000DF
:102772000D0D0D0D0139903107209331003A0319E7
:10278200C32BC42B3E2C20000E0C013990310720A4
:102792009331003A0319CE2BCF2B3E2C0B1105306F
:1027A20020009500F301F401272C0B1DD92BDA2B05
:1027B200272C0130F3070030F43D00307402FA3068
:1027C20003197302031CE62BE72B232CF52B53086A
:1027D200FC390138D3000A2C5308FC390238D300E3
:1027E2000A2CFC30D3050A2C200053080339F100CF
:1027F200F2017208003A0319FF2B0A2C7108003A01
:102802000319E82B013A0319ED2B033A0319F22BB2
:102812000A2CF301F40120000D0D0D0D0139903148
:1028220007209331003A0319172C182C232C20006F
:102832000E0C0139903107209331003A031D222CEE
:10284200232C0C2C0B1105302000950020000D0DBF
:102852000D0D0139903107209331003A0319322CC2
:10286200332C3E2C20000E0C01399031072093317D
:10287200003A031D3D2C3E2CD62B0800F8007808A8
:10288200F90072087304031D472C482C492CCE2CE6
:102892007908860087017008810072087907F400C0
:1028A2007408FF3E860087017008810000307302C1
:1028B20003300319720203185F2C602C612CCE2C9A
:1028C200790A86008701700881007908023E860035
:1028D20087017008810072087907F4007408FE3ECF
:1028E200860087017008810072087907F400740875
:1028F200FD3E8600870170088100003073020730B8
:10290200031972020318862C872C882CCE2C790886
:10291200033E860087017008810072087907F4007F
:102922007408FC3E86008701700881000030730243
:1029320009300319720203189F2CA02CA12CCE2C53
:102942007909F4007A09F500F40A0319F50A03304B
:102952007405F60000307505F7007608F400740877
:10296200F9077608F2027708F33BFC30F205FF30F4
:10297200F305C82C790886008701700881000130B0
:10298200F2020030F33B0130F4007408F9077208D8
:102992007304031DCD2CCE2CBB2C08003D000E125F
:1029A2002000CA1BD52CD62C1C2D2300E21FDA2CAA
:1029B200DB2CEB2C02302000D60022006708031D1E
:1029C200E32CE42CE72C9F313E2794312200E901CD
:1029D200EA01682D20005108013EF5000030523D09
:1029E200F600750886007608870040308100403086
:1029F200F5000030F6005108860052088700423187
:102A02007508C03F7608C13F51088600520887000A
:102A12000C308100510886005208870081174D084A
:102A220086004E088700043081004D0886004E085B
:102A320087008117682DC01F1F2D202D382DD6012C
:102A4200D60A22006808031D272D282D2B2D9F3121
:102A52003E2794312200E901EA0120005408031DB7
:102A6200332D342D682D903110209431682D023091
:102A7200D6005108013EF5000030523DF6007508BF
:102A8200860076088700403081004030F500003033
:102A9200F600510886005208870042317508C03F8F
:102AA2007608C13F51088600520887000430810031
:102AB200510886005208870081172200E901EA01C5
:102AC20020005408031D662D672D682D342D080043
:102AD200210012113D009301900198010E30F20085
:102AE2009930F100F30171088600720887008101B4
:102AF2000130F1070030F23D0130F0007008F307B9
:102B020073080319852D862D742D16303D00910012
:102B12009F3097007B309200F4017408F00001307E
:102B2200F035FF3E031D912D7035203E8600870152
:102B32000030C03F0030C13FC23FC33F0130F00010
:102B42007008F40708307402031CA82DA92D8E2DDD
:102B52003D000E1796010E120E13F730F0007008AA
:102B620090052000CA012300E201E301E4013D00D7
:102B72009019BC2DBD2DAE2D01302200EA0001308E
:102B8200E900E801E701ED01F40174354D3E8600EC
:102B920087010030C03FC13F7435EB3E86000130F3
:102BA20087000030C03FC13F7408643E8600013098
:102BB200870081017408623E86000130870081012E
:102BC2000130F0007008F40702307402031CEA2D91
:102BD200EB2DC62D28302000CD000030CE0016305F
:102BE2003D00980000302000A3004030A200403099
:102BF200A1000430A000A017DC0100302300EA008D
:102C02000030E9000030E8000030E7002200E60171
:102C12002000D90108002000580886008701413FA2
:102C2200F5007508F200F301730823006402031D26
:102C32001C2E7208630203181F2E202E222E6308F8
:102C4200F5007508F200F3017208E3027308E43B31
:102C5200F4013C2E6008860087017408B03E8400AF
:102C62008501000881000130F2007208E00701309E
:102C7200F2007208F40775087402031C412E422EFA
:102C82002B2E630864040319472E482E812E200040
:102C92005108013EF2000030523DF30072088600F6
:102CA2007308870040308100B030F2000030F3003A
:102CB200510886005208870042317208C03F7308EB
:102CC200C13F580886008701011B682E692E752EA8
:102CD200510886005208870048308100510886005A
:102CE200520887008117B12E5108860052088700CA
:102CF2000830810051088600520887008117B12EE2
:102D020020005108013EF2000030523DF3007208EB
:102D1200860073088700403081004030F2000030A6
:102D2200F300510886005208870042317208C03F02
:102D32007308C13F510886005208870004308100A1
:102D4200510886005208870081172300E2132000F1
:102D52005408031DAD2EAE2EB12E903110209631A7
:102D6200080020004203031DB72EB82ECC2E4008C7
:102D72001F39003A031DBE2EBF2ECC2ECA170330B8
:102D82004106031DC52EC62ECA2E2200EE01EE0AF2
:102D9200CC2E2200EE0120004208031DD12ED22E9D
:102DA200FF2F40081F39023A031DD82ED92EFF2FBC
:102DB20044080F39003A0319DF2EE02EFF2F440892
:102DC2000F39E300023063020318E82EE92EFF2FC9
:102DD20020305906031DEE2EEF2EFF2FCA17C41BFB
:102DE200F32EF42E082F44080F390907EB3E860014
:102DF20001308700403FE800413FE90044080F39B5
:102E0200623E8600013087000108E7001A2F44085D
:102E12000F3909074D3E86008701403FE800413FD8
:102E2200E90044080F39643E86000130870001083A
:102E3200E70067181D2F1E2F292FFB30E300FF30FC
:102E4200E40068086305E80069086405E9002F2FBB
:102E520004306804E80000306904E900C41B322F22
:102E6200332F3F2F44080F390907EB3E860001300C
:102E720087006808C03F6908C13F492F44080F39DD
:102E820009074D3E860087016808C03F6908C13FB7
:102E920003304106031D4E2F4F2F752F6808860001
:102EA20069088700811F562F572F6A2FC41B5A2F7C
:102EB2005B2F632F44080F39623E86000130870082
:102EC20081146A2F44080F39643E8600013087005E
:102ED2008114680886006908870001156808860061
:102EE200690887008117FF2F04306806E800003068
:102EF2006906E9006808860069088700811F822F39
:102F0200832FA02F7F30E3006808860069088700BE
:102F12006308810568088600690887000117053083
:102F2200DD000030DE006908E0006808DF000230E2
:102F3200E1000030E2009E3126269631A52F680876
:102F42008600690887000117043020006806E8003F
:102F520000306906E900E718AF2FB02FB82F6808D4
:102F6200860069088700811FB72FB82FE32FC41B83
:102F7200BB2FBC2FC42F44080F39623E860001309C
:102F820087008110CB2F44080F39643E8600013040
:102F9200870081103B30E3006808860069088700DB
:102FA200630881050530DD000030DE006908E000BD
:102FB2006808DF000230E1000030E2009E31262680
:102FC2009631EB2F3B30E3006808860069088700E2
:102FD20063088105200044080F39983EE300E401AC
:102FE2000E30E43D6308E5006408E600FE30E300CD
:102FF20065088600660887006308810508000934B1
:1030020002348B340034043401340034A034FA34F2
:1030120009340434003400340234FF345D340134A2
:103022000034113421341034013401342534813414
:1030320014340334033403340434133402340834B0
:103042000334033407340534813403342034003428
:103052000434073405340234033420340034083491
:1030620009340434013400340234FF345D3403344F
:1030720000341B34213400340134013401348334EC
:10308200403401340434203416348534003400349E
:103092000034003400340034163405340034003473
:1030A20000340034003400340734053483340334EC
:1030B2002034003402340734053404340334203419
:1030C2000034043409340434023400340134FF344B
:1030D2005D340234003409342134003401340134C3
:1030E20022348634073400340734053486340334FA
:1030F20020340034103409340434033400340034EE
:10310200FF34FD34133404340634413400340134C2
:103112000134033400341434FF34F734FF34FF3401
:10312200C034FF34C034FF34C034FF34C034FF3401
:1031320000340034003400340034003412340134DA
:1031420000340234FF34FF34FF3440345E3404343C
:103152008E34023414340134013402340334013421
:103162000E340334583400342034003454340034E0
:103172004534003453340034543400340E340334B0
:10318200583400342034003454340034453400348C
:1031920053340034543400340E340334583400347D
:1031A2002034003454340034453400345334003471
:1031B20054340034E3349834CD349834BF349834E2
:1031C200B134983404340334093404340034983468
:1038660001302300E7070030E83D0030E93D003035
:10387600EA3D22006D08031D412C422C4D2C0130DF
:10388600F0007008E6076608031D4A2C4B2C4D2CE9
:10389600FF30E60008003D001215EF30FD007D0800
:1038A60090058E142200ED01ED0AE6017530200028
:1038B600DD000030DE000030DF000030E0000030C8
:1038C600E100E2009E3126269C3108002200ED012F
:1038D60074302000DD000030DE000030DF000030F4
:1038E600E0000030E100E2009E3126269C313D00DA
:1038F6008E101211822CFB30FD007D0890051019E8
:10390600852C862C7E2C2200E6010800F100FC3076
:103916002000D3055311F201F30172087107F0007C
:1039260070088600870181010130F2070030F33DFF
:103936007308803AF00080307002031DA42C153005
:103946007202031CA72CA82C902C710A86008701F2
:10395600143081000800FC00771DB22CB32CB82C63
:10396600F0017C089E3162269C31F71CBB2CBC2CD6
:10397600C22CF001F00A7C089E3162269C317C083C
:10398600983EF800F9010E30F93D7808FA007908FA
:10399600FB007A0886007B0887007708810008000C
:1039A600A0309C3189249C312200E001E1011E30C7
:1039B600F70001309C31AE249C311E30F7000230F6
:1039C6009C31AE249C311E30F70003309C31AE246E
:1039D6009C311E30F70004309C31AE249C311E30E1
:1039E600F70006309C31AE249C310800F8007108BF
:1039F600F6007008F5007808F900142D75088600A1
:103A0600760887000108F7000130F5070030F63D1B
:103A1600790886008701770881000130F400740870
:103A2600F9070130F2020030F33B720A031D1F2D25
:103A3600730A031D1F2D202D012D08003D00181CA3
:103A4600252D262D452D200058088600870180301B
:103A56000106031D2F2D302D432D4D0886004E08DF
:103A6600870084300106031D392D3A2D432D580851
:103A7600860087010C30810058088600870181176F
:103A86003D001810DF30F000700890050800FE3089
:103A960020004005F000C0307006031D532D542D44
:103AA6007A2D4103031D582D592D7A2D44084504BE
:103AB600031D5E2D5F2D7A2D1430F1000030F200CB
:103AC6000030470214300319460203186B2D6C2D83
:103AD600702D4708F2004608F1008B30C800983078
:103AE600C9007208CC007108CB00C030CA000800BB
:103AF6002030200059020318812D822D832DB12DEF
:103B06003D008E1C872D882D892DB12D2200600841
:103B1600610403198F2D902D982D60088600610889
:103B26008700811B972D982DB12DA0308C312B2429
:103B36009D31F001F00AA030F1001430F20001309E
:103B4600933133239D3171082200E1007008E000B3
:103B56009331B8239D3190317F209D31080002308A
:103B660020005606031DB82DB92DBD2D96310C2605
:103B76009D31EB2DD60122006C08031DC32DC42DEB
:103B8600EA2D20005108013EF6000030523DF700B4
:103B96007608860077088700403081004030F600BE
:103BA6000030F70051088600520887004231760837
:103BB600C03F7708C13F51088600520887000C3085
:103BC600810051088600520887008117EB2DEC0111
:103BD600080000308F31E3279D31953169259D31ED
:103BE600303021008C00F0308D00FF308E009513B0
:103BF600303024008C0070308D0023008C018D0144
:103C06008E0107302100950495111512951215178E
:103C16008B170530200095008E31BD269D31203052
:103C2600200059020318182E192E1A2E0F2E3D00A9
:103C36008E1C1E2E1F2E202E0F2E9D317B259D3174
:103C46000F2E8C310C2C392E01308F31E3279E310B
:103C5600612E02308F31E3279E31612E9C31D324B1
:103C66009E31612E9D314A259E31612E20005E08CF
:103C7600003A0319422E7F3A03195C2E612E5D0825
:103C8600013A0319312E033A0319612E013A031939
:103C9600352E063A0319612E773A0319612E013A39
:103CA6000319612E073A03192C2E013A0319272E00
:103CB600612E5D08FF3A0319612E612E0800F5009A
:103CC6002030F6007008F1000130F135890B682EBE
:103CD6007508F2000130F235FF3E031D6E2E723577
:103CE6007107F3000130F335FF3E031D762E733561
:103CF600F4007408F60776088600870181137008B9
:103D0600031D862E872E912E7535EB3E86000130DB
:103D160087007608C03F0030C13F992E75354D3E6D
:103D2600860087017608C03F0030C13F76088600CE
:103D3600870101137608043E8600870101170800F3
:103D46002000D701D4012200E801E701EC012000A0
:103D5600D6017F30EC004D0886004E0887006C08BF
:103D6600810504304D06CD0000304E06CE007F3072
:103D7600EC004D0886004E0887006C08810504306B
:103D86004D06CD0000304E06CE007F30EC005108C7
:103D96008600520887006C088105CA01CB01CC0158
:103DA6002300E201E301E4019031EF209E3103306C
:103DB6002000DD000030DE000030DF000030E000D3
:103DC6000030E100E2009E3126269E319431CF2458
:103DD6009E3108002D302200EB0020005A08FD39E4
:103DE600031DF62EF72E312F5A363F39ED000130DE
:103DF600ED35FF3E031DFB2E6D35203ED8005808DD
:103E0600D100FF39031D0030D20004305106D10025
:103E160000305206D200580886008701010C890C32
:103E26000F390D3A031D182F192F2D2F5808023E52
:103E360086008701403FF000413FF1000830F20064
:103E46000030F30040309C31F9249E319E31A32688
:103E56009E313D2F9D31B2259E313D2FFD305A05B5
:103E6600ED0004306D06031D392F3A2F3D2F913199
:103E7600D0219E3108002200E801E701023020002F
:103E86005606031D472F482F6D2F5108013EF3009C
:103E96000030523DF40073088600740887004030F5
:103EA6008100B030F3000030F4005108860052085B
:103EB600870042317308C03F7408C13F510886002D
:103EC6005208870048308100510886005208870052
:103ED6008117972F4C084702031D732F4B08460284
:103EE6000318762F772F7B2F4708CC004608CB0088
:103EF60091315F219F31B030F3000030F400200093
:103F06004D0886004E08870042317308C03F74088A
:103F1600C13F4D0886004E088700483081004D0895
:103F260086004E088700811708002100B001B10104
:103F3600DE2FCA1722006E03031DA22FA32FF32F15
:103F46002100B014F32FCA17F32FCA1744080F39EC
:103F5600003A0319AF2FB02FF32FC41BB32FB42F82
:103F6600C02F44080F390907EB3E86000130870051
:103F7600403FF200413FF300CA2F44080F390907BA
:103F86004D3E86008701403FF200413FF300720834
:103F9600860073088700811FD12FD22FF32F720856
:103FA600860073088700011DD92FDA2FF32F013001
:103FB6002100B000F32F200040081F39F000F10166
:103FC6007108003A0319E82FF32F7008003A031915
:103FD6009C2F013A0319A62F033A0319A82FF32F92
:103FE6002000CA1FF72FF82FFF2FB030C80000306F
:0A3FF600C9004A140230CB00080095
:020000040001F9
:08000000FF3FFF3FFF3FFF3F00
:04000E00A40FCF1F4D
:00000001FF
