:0618080000008C310C2CE5
:101810007E148C317E10090020008C310F2C653035
:101820008400003085000B308F31F9278C31A730D0
:101830008400003085002B308F31F9278C317E10E9
:1018400020009C31332CF30020000D0D0D0D0139CB
:101850009B3119238C31F100730A86008701F10D49
:1018600001087106FD397106810021004119392CEA
:101870003A2CDD2C20000E0D0E0D01399B31192361
:101880008C31F10073088600870101087106FE396A
:101890007106810020000E0E890C890C01399B31E4
:1018A00019238C31F100730886008701F10D0108BE
:1018B0007106FD397106810020000E0CF100F10C5B
:1018C000710C01399B3119238C31F20073088600A9
:1018D0008701F20DF20D01087206FB3972068100D4
:1018E00020000C0E890C01399B3119238C31F10039
:1018F000730886008701F10DF10DF10D01087106E5
:10190000F7397106810020000E0E890C01399B31D8
:1019100019238C31F100730886008701F10E01084C
:101920007106EF397106810020000E0E01399B31DE
:1019300019238C31F100730886008701F10EF10D37
:1019400001087106DF397106810020000E0C013993
:101950009B3119238C31F100730886008701F10E49
:10196000F10DF10D01087106BF39710681002000EB
:101970000C0E01399B3119238C31F100730886005C
:101980008701F10CF10C010871067F3971068100A5
:10199000730A860087010110730A8600870101110E
:1019A000730A860087018112730A8600870101127B
:1019B000730A860087018111802D411DE02CE12CE6
:1019C000802D20000E0D0E0D01399B3119238C3115
:1019D000F10073088600870101087106FE3971065F
:1019E000810020000E0E890C890C01399B311923CE
:1019F0008C31F100730886008701F10D0108710632
:101A0000FD397106810020000E0CF100F10C710C03
:101A100001399B3119238C31F2007308860087014C
:101A2000F20DF20D01087206FB397206810073088F
:101A300086008701811173088600870101127308EF
:101A400086008701811273088600870101137308DD
:101A500086008701811320000E0C01399B31192368
:101A60008C31F100730A8600870101087106FE3986
:101A70007106810020000C0E01399B3119238C3135
:101A8000F100730A86008701F10DF10D010871065E
:101A9000FB397106810020000E0E890C01399B3143
:101AA00019238C31F100730A86008701F10EF10DC4
:101AB00001087106DF397106810020000C0E890CC7
:101AC00001399B3119238C31F100730A860087019B
:101AD000F10E01087106EF397106810020000E0E2B
:101AE00001399B3119238C31F100730A860087017B
:101AF000F10DF10DF10D01087106F7397106810044
:101B000020000D0E890C890C01399B3119238C3171
:101B1000003A03198C2D8D2D932D7308033E8600FA
:101B200087018101AF2D20000D0E01399B31192352
:101B30008C31003A03199D2D9E2DA72DFF30F10009
:101B40007308033E8600870171088100AF2D803045
:101B5000F1007308033E86008701710881002000B0
:101B60000D0E890C01399B3119238C31003A031970
:101B7000BA2DBB2DC12D7308043E8600870181015B
:101B8000DE2D20000E0C890C01399B3119238C317C
:101B9000003A0319CC2DCD2DD62DFF30F10073085E
:101BA000043E8600870171088100DE2D8030F1003F
:101BB0007308043E86008701710881000830F10037
:101BC0007308023E86008701710881008030F100B1
:101BD0007308053E86008701710881008030F1009E
:101BE0007308063E86008701710881000B2F730879
:101BF000033E860087010108031DFF2D002E132ED2
:101C00007308043E8600870180300106031D092EFB
:101C10000A2E132E7308023E860087010108F03950
:101C200006388100D12E7308033E86008701010823
:101C3000031D1B2E1C2E2E2E7308043E86008701CA
:101C40000108031D242E252E2E2E7308023E860029
:101C500087010108F03907388100D12E7308033E4F
:101C60008600870180300106031D372E382E482E4E
:101C70007308043E860087010108031D402E412E93
:101C8000482E7308023E86008701F0308105D12E70
:101C90007308033E86008701010A031D502E512E52
:101CA000632E7308043E860087010108031D592E28
:101CB0005A2E632E7308023E860087010108F03910
:101CC00001388100D12E7308033E86008701010A86
:101CD000031D6B2E6C2E7F2E7308043E8600870139
:101CE00080300106031D752E762E7F2E7308023E6E
:101CF000860087010108F03902388100D12E73086F
:101D0000033E86008701010A031D872E882E9A2E26
:101D10007308043E86008701010A031D902E912E50
:101D20009A2E7308023E860087010108F0390338B5
:101D30008100D12E7308033E8600870180300106A2
:101D4000031DA32EA42EB62E7308043E8600870121
:101D5000010A031DAC2EAD2EB62E7308023E86007E
:101D600087010108F03904388100D12E7308033E41
:101D7000860087010108031DBE2EBF2ED12E7308D9
:101D8000043E86008701010A031DC72EC82ED12EEE
:101D90007308023E860087010108F039053881008A
:101DA000D12E8030F1007308033E86008701710850
:101DB00081008030F1007308043E860087017108BD
:101DC0008100202F7308033E860087010108F1007F
:101DD0007308053E86008701710881007308043E80
:101DE000860087010108F1007308063E860087011E
:101DF000710881008030F1007308033E860087017E
:101E0000710881008030F1007308043E860087016C
:101E100071088100202F210041080339F100F201EF
:101E20007208003A0319152F202F7108003A031980
:101E3000202F013A0319F72D033A0319E22E202F20
:101E4000080020006D0886008701413FF5007508F5
:101E5000F200F301730821002B02031D312F7208D9
:101E60002A020318342F352F392F2A08F20072085E
:101E7000F5007508F200F3017208AA027308AB3B83
:101E8000F401552F7408483E860087010108F200CE
:101E9000270886008701720881000130F20072086D
:101EA000A7070130F2007208F40775087402031CDA
:101EB0005A2F5B2F422F2A082B040319602F612F02
:101EC0009A2F20006908013EF20000306A3DF300BD
:101ED0007208860073088700083081004830F200DD
:101EE0000030F300690886006A08870042317208F2
:101EF000C03F7308C13F6D0886008701011B812F19
:101F0000822F8E2F690886006A088700483081007A
:101F1000690886006A0887008117CA2F6908860049
:101F20006A08870008308100690886006A0887000F
:101F30008117CA2F20006908013EF20000306A3D77
:101F4000F300720886007308870008308100403073
:101F5000F2000030F300690886006A088700423109
:101F60007208C03F7308C13F690886006A0887008D
:101F700004308100690886006A0887008117210003
:101F8000A91320006B08031DC62FC72FCA2F9F312E
:101F90000F278F310800F8007108F6007008F5006F
:101FA0007808F4007408F900EC2F750886007608AC
:101FB00087000108F4007408F7000130F5070030CD
:101FC000F63D7708F40079088600870174088100DF
:101FD0000130F4007408F9070130F2020030F33BDD
:101FE000720A031DF72F730A031DF72FF82FD52F41
:0E1FF0000800640080010131890BFA2F0034D3
:102000002000C801C90149282100B0174B03031D56
:102010000A280B285D282000C8145D282100B0176D
:102020005D282100B017200044080F39003A031939
:102030001A281B285D28C41B1E281F282A2844088C
:102040000F390907B73E86008701403FF200413F44
:10205000F300342844080F390907653E86008701DC
:10206000403FF200413FF30072088600730887008A
:10207000811F3B283C285D28720886007308870072
:10208000011D432844285D280130F0007008C80075
:102090005D2840081F39F000F1017108003A03196A
:1020A00052285D287008003A03190428013A0319E0
:1020B0000E28033A031911285D282100B01F61285A
:1020C00062286B284830AE000030AF003014023078
:1020D000F0007008B10008002000400E890C0339A0
:1020E000003A031974287528BA28E5282100B0178A
:1020F00008302000DD005D08EE00E5289131E72181
:102100009031E5289031E6209031E528D13021004A
:10211000AE000030AF003014B101B10AB017E528AD
:10212000903100209031E5289631B2269031E52893
:102130004408D03E2100AE000030AF008B282100C3
:10214000B01720004208DD004408D03E8600870119
:102150005D088100E5280230D0000030D100003059
:10216000D2000030D3000030D400D5009C31A82428
:102170009031E5284108DD00DE015E08003A0319D0
:10218000C228E5285D08003A03199028013A03198E
:102190009428023A03199428063A03197628033A38
:1021A00003197E28013A0319AB280F3A0319862830
:1021B000013A03198228033A03199828013A0319AE
:1021C0009F28073A0319E528E52808002100B017E1
:1021D0000E302000D8009930D700D901570886006A
:1021E0005808870081010130D7070030D83D013001
:1021F000D6005608D90759080319FF280029EE28E8
:102200000030F000F1002030F2000030F300203008
:102210009331912390313D000E172000DA015A08C6
:10222000BF3E8600870181015A08BD3E86008701B6
:1022300081010130D6005608DA0702305A02031C29
:10224000222923290F290030F000F1000130F2008B
:102250000030F300D0309331912390313D000E13C4
:1022600028302000E5000030E6002030D600560877
:10227000ED006D08E900FF39031D0030EA00420857
:10228000D60056082100D1005108031D48294929CC
:102290004F2910302000D6005608EE006429013086
:1022A0002000D0000030D100D130D2000030D30067
:1022B0000130D4000030D5009C31A824903120306A
:1022C0002000D6005608EE000800F7007008031939
:1022D0006A296B2974297735653E86008701403F5E
:1022E000F800413FF9007C297735B73E8600870129
:1022F000403FF800413FF90078087904031D812927
:1023000082298529F001F101E6297108F3000030E6
:10231000F400780886007908870042317308C03FCE
:102320007408C13F7808013EF3000030793DF400A5
:102330007308860074088700720881004030F3003B
:102340007808860079088700730881057808860078
:102350007908870081157808860079088700811739
:1023600070080319B429B529CC297735653E860054
:102370008701403FF300413FF40004307306F5004D
:1023800000307406F6007735653E860087017508D3
:10239000C03F7608C13FE2297735B73E8600870106
:1023A000403FF300413FF40004307306F500003075
:1023B0007406F6007735B73E860087017508C03F82
:1023C0007608C13F7908F1007808F00008008030F5
:1023D00020004006031DED29EE296B2AC030F000D5
:1023E00070082100B000572AB6302100AE009830A6
:1023F000AF001230B1000030B2006B2A4208031D5A
:10240000022A032A322A4208F000F101F035F10DC8
:10241000D230700784009830713D8500003F210064
:10242000AE00013FAF002F08F1002E08F00002308F
:102430007007840071080318710A85000008F20013
:102440007208B1002F08F1002E08F0000330700769
:10245000840071080318710A85000008F2007208F0
:10246000B2006B2A2100B0016B2A0330420203182C
:102470003A2A3B2A322A4208F000F101F035F10DE8
:10248000C830700784009830713D8500003F2100FE
:10249000AE00013FAF002E0884002F088500000821
:1024A000F000F1017008B1007108B2006B2A200041
:1024B0004308F000F1017108003A0319602A322A3A
:1024C0007008013A0319F429033A0319FE29013A65
:1024D0000319352A322A080020000D0D0D0D01398F
:1024E0009B3119239231003A0319772A782AF22A6C
:1024F00020000E0C01399B3119239231003A031947
:10250000822A832AF22A0B11053020009500F3015C
:10251000F401DB2A0B1D8D2A8E2ADB2A0130F307FA
:102520000030F43D01307402F43003197302031CCF
:102530009A2A9B2AD72AA92A4108FC390138C100C6
:10254000BE2A4108FC390238C100BE2AFC30C10550
:10255000BE2A210041080339F100F2017208003A55
:102560000319B32ABE2A7108003A03199C2A013ABA
:102570000319A12A033A0319A62ABE2AF301F4017A
:1025800020000D0D0D0D01399B3119239231003AB8
:102590000319CB2ACC2AD72A20000E0C01399B31F3
:1025A00019239231003A031DD62AD72AC02A0B11CB
:1025B00005302000950020000D0D0D0D01399B31D7
:1025C00019239231003A0319E62AE72AF22A200059
:1025D0000E0C01399B3119239231003A031DF12A67
:1025E000F22A8A2A08003D000E122100B01BF92AA7
:1025F000FA2A412BA91FFD2AFE2A102B0230F500D2
:1026000075082000EC0021004308031D082B092B4E
:102610000C2B9D31C72592312100C501C601902B9D
:1026200020006908013EF50000306A3DF60075089B
:10263000860076088700083081004030F5000030C1
:10264000F600690886006A08870042317508C03FB5
:102650007608C13F690886006A0887000C3081004F
:10266000690886006A088700811765088600660881
:10267000870004308100650886006608870081179E
:10268000902B2000C01F452B462B5E2BEC01EC0A43
:1026900021004408031D4D2B4E2B512B9D31C72586
:1026A00092312100C501C60120006B08031D592B82
:1026B0005A2B902B9F310F279231902B0230F5002F
:1026C0007508EC006908013EF50000306A3DF6002F
:1026D0007508860076088700083081004030F500D4
:1026E0000030F600690886006A08870042317508E4
:1026F000C03F7608C13F690886006A088700043039
:102700008100690886006A08870081172100C501D9
:10271000C60120006B08031D8E2B8F2B902B5A2B8C
:102720000800F8007808F4007408F90072087304CF
:10273000031D9B2B9C2B9D2B342C7008F4007908D7
:1027400086008701740881007008F4007208790718
:10275000F5007508FF3E860087017408810000308F
:1027600073020330031972020318B72BB82BB92B6D
:10277000342C7008F400790A8600870174088100FF
:102780007008F4007908023E860087017408810011
:102790007008F40072087907F5007508FE3E86009F
:1027A0008701740881007008F40072087907F50049
:1027B0007508FD3E860087017408810000307302B1
:1027C0000730031972020318E62BE72BE82B342C91
:1027D0007008F4007908033E8600870174088100C0
:1027E0007008F40072087907F5007508FC3E860051
:1027F00087017408810000307302093003197202E6
:102800000318032C042C052C342C7909F4007A09C4
:10281000F500F40A0319F50A03307405F6000030D8
:102820007505F7007608F4007408F9077608F202D7
:102830007708F33BFC30F205FF30F3052E2C7008CF
:10284000F400790886008701740881000130F202E3
:102850000030F33B0130F4007408F9077208730488
:10286000031D332C342C1F2C0800210012113D00B5
:102870009301900198010E30F2009930F100F301BC
:10288000710886007208870081010130F10700306D
:10289000F23D0130F0007008F30773080319512C62
:1028A000522C402C16303D0091009F3097007B3019
:1028B0009200F4017408F0000130F035FF3E031D72
:1028C0005D2C7035203E860087010030C03F00300F
:1028D000C13FC23FC33F0130F0007008F407083029
:1028E0007402031C742C752C5A2C3D000E17960193
:1028F0000E120E13F730F000700890052100B001A1
:10290000A901AA01AB013D009019872C882C7A2CD3
:102910000130F00070082100C6000130F00070089E
:10292000C500C401C301CA01F4017435653E8600C7
:1029300087010030C03FC13F7435B73E8600870134
:102940000030C03FC13F7408BF3E8600870181014F
:102950007408BD3E8600870181010130F0007008D7
:10296000F40702307402031CB62CB72C952C2830C7
:102970002000E5000030E60016303D0098000030F1
:102980002000A3004030A2000830A1000430F00075
:102990007008A000A0172100D1010030B60000305F
:1029A000B5000030B4000030B300C2012000EE01D9
:1029B0000800200040081F39013A0319E02CE12CDF
:1029C000E22C7D2D44080319E62CE72CE82C7D2D04
:1029D00006304106031DED2CEE2C232D102D210079
:1029E0005103031DF42CF52C232D9030AE009830AC
:1029F000AF000930B1000030B200C030F000700804
:102A0000B000232D00302100AE009830AF004A30D6
:102A1000B1000030B200C030F0007008B000232DCB
:102A20004308F000F1017108003A0319182D232D15
:102A30007008213A0319EF2C033A0319022D013AC9
:102A40000319232D232D2000400E890C0339013A50
:102A500003192B2D2C2D612D7D2DCF302100AE00A3
:102A60000030AF000130B1000030B200C130F000E2
:102A70007008B0007D2D8030F00070082100B0009B
:102A800020004308F00070082100CF007D2DCE30DB
:102A90002100AE000030AF000130B1000030B200C4
:102AA0008130F0007008B0007D2D8030F00070089B
:102AB0002100B00020004208F00070082100CE0084
:102AC0007D2D4108F000F1017108003A0319692DCC
:102AD0007D2D7008013A03197D2D033A03192D2D20
:102AE000013A0319472D0A3A03197D2D033A0319B8
:102AF0003B2D013A0319552D7D2D080020006E084D
:102B0000031D832D842D962D3D008E0192011630DC
:102B100091009F3097007B3092008F2D8E158E1D77
:102B2000922D932D8E2D2000EE01EE0A6E03031DD3
:102B30009A2D9B2DA92D3D008E1A9F2DA02DA92DDC
:102B4000900192011214121602302000E200620875
:102B5000EE003D00101DAD2DAE2DBB2D121DB12D73
:102B6000B22DBB2DFB302000E20062083D00900535
:102B70009B31872395313D008E1CBF2DC02DC32D69
:102B800020001211B12E101CC62DC72DD82D121CDD
:102B9000CA2DCB2DD82D9431352495310430200009
:102BA000E2006208EE00FE30E20062083D0090059F
:102BB000101EDB2DDC2DE32D121EDF2DE02DE32D6D
:102BC0009B316A2395313D00101FE72DE82D152E0E
:102BD000121FEB2DEC2DFC2D73302000D0000030A7
:102BE000D1000030D2000030D3000130D4000030DA
:102BF000D5009C31A8249531BF302000E200620846
:102C00003D0090059B313123953121004708031980
:102C10000A2E0B2E0D2E0130C7024708031D112E60
:102C2000122E152E9F310F2795313D00901E192E23
:102C30001A2E212E921E1D2E1E2E212E9B31CE23AA
:102C400095313D00901C252E262E3C2E921C292EBF
:102C50002A2E3C2EFF302000D0007F30D1000030E3
:102C6000D2000030D3000130D4000030D5009C31B8
:102C7000A82495313D009301043020006E02031812
:102C8000422E432E452E1211B12E3D00921D492E8B
:102C90004A2EAF2E2000E4013D00901D502E512EF3
:102CA000AF2E0F082000E2006208EF006F0CE20078
:102CB000E20C620C0F39E30063082100C900F73011
:102CC0002000E20062083D00900520006F19692E87
:102CD0006A2E7B2E21004908BD3E8600870101082F
:102CE00001392000E2000130E20601086206FE39E7
:102CF000620681008B2E21004908BF3E86008701B5
:102D0000010801392000E2000130E20601086206F4
:102D1000FE396206810021004908031D902E912E84
:102D2000952E9D3171259531A42E72302000D00052
:102D30000030D1006F30D2000030D3000030D4001A
:102D4000D5009C31A824953101302000E2006208B2
:102D5000E40704306402031CAE2EAF2E4C2E20007C
:102D60001211080020004203031DB72EB82ECE2EEC
:102D700040081F39003A031DBE2EBF2ECE2E210063
:102D8000B017033020004106031DC72EC82ECC2EDD
:102D90002100CB01CB0ACE2E2100CB01200042081E
:102DA000031DD32ED42EFF2F40081F39023A031DD6
:102DB000DA2EDB2EFF2F44080F39003A0319E12EDB
:102DC000E22EFF2F44080F39D600023056020318B6
:102DD000EA2EEB2EFF2F20306E06031DF02EF12E73
:102DE000FF2F2100B0172000C41BF72EF82E0C2F48
:102DF00044080F390907B73E86008701403FDB00D2
:102E0000413FDC0044080F39BD3E860087010108C0
:102E1000D6005608DA001F2F44080F390907653E0F
:102E200086008701403FDB00413FDC0044080F394A
:102E3000BF3E860087010108D6005608DA005A18FE
:102E4000222F232F2E2FFB30D600FF30D7005B0818
:102E50005605DB005C085705DC00342F04305B04AA
:102E6000DB0000305C04DC00C41B372F382F432FFD
:102E700044080F390907B73E860087015B08C03F49
:102E80005C08C13F4D2F44080F390907653E860095
:102E900087015B08C03F5C08C13F03304106031D4A
:102EA000522F532F772F5B0886005C088700811F05
:102EB0005A2F5B2F6C2FC41B5E2F5F2F662F440889
:102EC0000F39BD3E8600870181146C2F44080F39ED
:102ED000BF3E8600870181145B0886005C0887007E
:102EE00001155B0886005C0887008117FF2F0430FE
:102EF0005B06DB0000305C06DC005B0886005C08DB
:102F00008700811F842F852FA22F7F30D6005B087A
:102F100086005C088700560881055B0886005C080F
:102F2000870001170530D0000030D1005C08D300C5
:102F30005B08D2000230D4000030D5009C31A824B8
:102F40009631A72F5B0886005C08870001170430C4
:102F500020005B06DB0000305C06DC00DA18B12FD5
:102F6000B22FBA2F5B0886005C088700811FB92F3B
:102F7000BA2FE32FC41BBD2FBE2FC52F44080F3916
:102F8000BD3E860087018110CB2F44080F39BF3E1C
:102F90008600870181103B30D6005B0886005C0804
:102FA0008700560881050530D0000030D1005C084C
:102FB000D3005B08D2000230D4000030D5009C3131
:102FC000A8249631EB2F3B30D6005B0886005C08C6
:102FD000870056088105200044080F39983ED60026
:102FE000D7010E30D73D5608D8005708D900FE301B
:102FF000D600580886005908870056088105080041
:103000000534013409340534A13401341534003455
:1030100025340134353400344534013475340134F9
:1030200095340E34053409341934013429340E34FE
:10303000813402349534023481340134053401344E
:103040002534073446343B34013475340434953424
:1030500001346534143409343934813442346534EC
:10306000003495340134813401342634FF34003483
:103070004634FF34003409343034093431340934EF
:103080003234093435347534083495340434813499
:103090000234C034343403344D34003469340034E1
:1030A00063340034723400346F34003463340034D9
:1030B000683400346934003470340034203400340F
:1030C00054340034653400346334003468340034DC
:1030D0006E3400346F3400346C3400346F34003498
:1030E00067340034793400342034003449340034F7
:1030F0006E340034633400342E3400340934023426
:1031000022340034013401340034C0343234093400
:103110000434003400340134033400340034003407
:1031200009342134113401340034013422344A3456
:10313000003407340534813403344034003401341E
:103140001634033453340034533400342034003400
:1031500047340034613400346D3400346534003455
:103160007034003461340034643400341234013477
:10317000003402340034003400340834D8340434C9
:103180006C34E73401340034013402340034013447
:10319000CE3498344A349834A03498340434033408
:0831A000093404347E34983434
:10362800FC302100C10541110800F00070080319A1
:103638001E2B202B0130212B003008002100BB015C
:10364800BC011A30FD007D08F70001309B31A92329
:103658009B319B3114239B31080001302100B307B3
:103668000030B43D0030B53D0030B63D4A08031D7A
:103678003E2B3F2B4C2B0130F0007008C20742084C
:10368800031D472B482B4C2BFF30F0007008C2005D
:103698000800F200562BFC302100990090302700DA
:1036A8009B00692B7208F000F1017108003A0319B8
:1036B8005E2B692B7008003A03194F2B013A031946
:1036C800692B033A0319692B692B08003D00121571
:1036D800EF302000D60056083D0090058E142100DA
:1036E800CA01CA0AC20175302000D0000030D100DA
:1036F8000030D2000030D3000030D400D5009C3117
:10370800A8249B3108002100CA0174302000D00091
:103718000030D1000030D2000030D3000030D40097
:10372800D5009C31A8249B313D008E101211A22B8C
:10373800FB302000D60056083D0090051019A52B37
:10374800A62B9C2B2100C2010800FC00771DAD2B85
:10375800AE2BB32BF0017C089C31E4249B31F71C81
:10376800B62BB72BBD2BF001F00A7C089C31E42462
:103778009B317C08983EF800F9010E30F93D780835
:10378800FA007908FB007A0886007B08870077082A
:10379800810008003D00181CD22BD32BF42B2000ED
:1037A8006D088600870180300106031DDC2BDD2BA8
:1037B800F22B650886006608870084300106031D21
:1037C800E62BE72BF22B0C30F0006D088600870102
:1037D800700881006D088600870181173D00181068
:1037E800DF30F000700890050800023020006C06F9
:1037F800031DFF2B002C042C8F3121279B31322CE9
:10380800EC0121004808031D0A2C0B2C312C200048
:103818006908013EF60000306A3DF7007608860028
:1038280077088700083081004030F6000030F70044
:10383800690886006A08870042317608C03F770821
:10384800C13F690886006A0887000C308100690852
:1038580086006A0887008117322CC80108000030EA
:103868009B314D239C31943135249C3130302100DB
:103878008C00F0308D00FF308E009513303024001E
:103888008C0070308D0023008C018D018E01073073
:103898002100950495111512951215178B170530EF
:1038A8002000950095317E259C31203020006E0245
:1038B80003185F2C602C612C562C3D008E1C652C47
:1038C800662C672C562C9C316D249C31562C8C31DF
:1038D8000C2C203020006E020318732C742C752CCD
:1038E800A72C3D008E1C792C7A2C7B2CA72C210030
:1038F8003B083C040319812C822C8A2C3B08860047
:103908003C088700811B892C8A2CA72CA0308C317D
:1039180023249C31F001F00AA030FA007A08F10063
:103928000730FB007B08F2000130913165219C31A2
:1039380071082100BC007008BB0092316C229C31D8
:103948009E3128269C310800BB2C01309B314D2329
:103958009C31E32C02309B314D239C31E32C9B316D
:1039680022239C31E32C9431D9249C31E32C200070
:103978005108003A0319C42C7F3A0319DE2CE32CB2
:103988005008013A0319B32C033A0319E32C013AFE
:103998000319B72C063A0319E32C773A0319E32CD9
:1039A800013A0319E32C073A0319AE2C013A03191B
:1039B800A92CE32C5008FF3A0319E32CE32C080048
:1039C800F5002030F1007108F6007008F1000130B0
:1039D800F135890BEC2C7508F2000130F235FF3E09
:1039E800031DF22C72357107F3000130F335FF3EE9
:1039F800031DFA2C7335F4007408F6077608860060
:103A0800870181137008031D0A2D0B2D142D7535A0
:103A1800B73E860087017608C03F0030C13F1C2DA5
:103A28007535653E860087017608C03F0030C13F86
:103A380076088600870101137608043E8600870110
:103A4800011708002100CD012000EB012100C4016D
:103A5800C301C8012000EC017F30DF006508860043
:103A6800660887005F08810504306506E5000030B8
:103A78006606E6007F30DF00650886006608870076
:103A88005F08810504306506E50000306606E6003B
:103A98007F30DF00690886006A0887005F088105B3
:103AA8002100B001B101B201A901AA01AB01903115
:103AB8006C209D3103302000D0000030D100003050
:103AC800D2000030D3000030D400D5009C31A824A7
:103AD8009D319231F3229D3108002D302000E00005
:103AE80060082100C70020006F08FD39031D7D2DE7
:103AF8007E2DBA2D6F363F39E0000130E035FF3EAC
:103B0800031D822D6035203EE1006108ED006D083F
:103B1800E900FF39031D0030EA0004306906E900B6
:103B280000306A06EA006D0886008701010C890CDE
:103B38000F390D3A031DA12DA22DB62D6D08023E99
:103B480086008701403FF000413FF1000830F20055
:103B58000030F30040308F31CB279D319D31262531
:103B68009D31C62D9B31F9239D31C62DFD306F0542
:103B7800E00004306006031DC22DC32DC62D9F3101
:103B880086279D3108002100C401C30102302000AE
:103B98006C06031DD02DD12DF62D6908013EF300CA
:103BA80000306A3DF4007308860074088700083006
:103BB80081004830F3000030F400690886006A0884
:103BC800870042317308C03F7408C13F6908860006
:103BD8006A08870048308100690886006A088700FB
:103BE8008117272E2100320820004702031D002ECE
:103BF80021003108200046020318032E042E0B2E44
:103C080047082100B200200046082100B1009E317B
:103C180098269D314830F3000030F40020006508F4
:103C280086006608870042317308C03F7408C13FA8
:103C380065088600660887004830810065088600A8
:103C4800660887008117080020000D0D0D0D013949
:103C58009B3119239E31003A0319332E342E972EA7
:103C680020000C0E01399B3119239E31003A0319AB
:103C78003E2E3F2E972E0B11053020009500F101A6
:103C8800F201802E0B1D492E4A2E802E0130F1079D
:103C98000030F23D01307202F43003197102031C46
:103CA800562E572E7C2E03102100411D0314031895
:103CB8005E2E612E21004115632E21004111F10174
:103CC800F20120000D0D0D0D01399B3119239E3194
:103CD800003A0319702E712E7C2E20000C0E01392B
:103CE8009B3119239E31003A031D7B2E7C2E652EB5
:103CF8000B1105302000950020000D0D0D0D013928
:103D08009B3119239E31003A03198B2E8C2E972E46
:103D180020000C0E01399B3119239E31003A031DF6
:103D2800962E972E462E08000830F0007008F200F4
:103D38000030210032020830031931020318A52E81
:103D4800A62EBB2E3108F0007008F2004D08031DA6
:103D5800AE2EAF2EB22ECD01CD0ABB2E4D03031DC4
:103D6800B62EB72EBB2E0230F0007008CD007208B8
:103D7800F000F1017008B1027108B23B200065083B
:103D8800013EF0000030663DF100700886007108C1
:103D98008700720881004830F00070082100CC00CC
:103DA8003018D72ED82E092FEE2E2E0884002F0873
:103DB80085000008F0004C08860087017008810023
:103DC8000130AE070030AF3D0130F0007008CC077D
:103DD8000130F2027208031DF22EF32ED92E0E2F97
:103DE8002E0884002F0885000008F0004C08860083
:103DF8008701700881000130AE070030AF3D013007
:103E0800F0007008CC070130F2027208031D0D2F74
:103E18000E2FF42E080021004608031D142F152F1D
:103E2800852F0130F0007008C6004508031D1D2FBE
:103E38001E2F852F0130F0007008C50002302000C9
:103E48006C06031D282F292F3B2F6508860066085E
:103E5800870041318101650886006608870048307F
:103E6800810065088600660887008117852F6C0326
:103E7800031D3F2F402F852F2100C8010830F00077
:103E880020006D0A86008701700881004030F0002C
:103E98000030F1006D08023E860087017008C03FBF
:103EA8007108C13F0430F0006D0886008701700872
:103EB80081006D088600870181172100C801C80AA2
:103EC80020006908013EF00000306A3DF1007008EA
:103ED800860071088700083081004030F00000300B
:103EE800F100690886006A08870042317008C03FFF
:103EF8007108C13F690886006A0887008030810020
:103F0800852F0800200065088600660887000030B5
:103F1800011B0130F50004306506E5000030660637
:103F2800E60008306E06031D9A2F9B2FAF2F42081C
:103F38007F393D00960016080319A32FA42FAA2F36
:103F48001030F30073082000EE00AF2F0430F300A8
:103F580073082000EE006C03031DB32FB42FF72F56
:103F68004830F3000030F4006508860066088700D2
:103F780042317308C03F7408C13F9E3198269F3173
:103F8800023021004D06031DCA2FCB2FD82F200049
:103F98006508860066088700043081006508860089
:103FA800660887008117FF2F7508031DDC2FDD2F9A
:103FB800EA2F2000650886006608870048308100DF
:103FC80065088600660887008117FF2F20006508AE
:103FD8008600660887000830810065088600660844
:103FE80087008117FF2F2100A91FFB2FFC2FFD2F12
:083FF800A9132000EC010800F0
:020000040001F9
:04000E00A40FCF1F4D
:00000001FF
