:041808008C310C2CE7
:101810007E148C317E10090020008C310F2CFC01CD
:10182000FD0161308400003085000E309B314D2376
:101830008C31A83084000030850029309B314D2345
:101840008C31203084000130850040309B314D23A5
:101850008C31A03084000130850040309B314D2315
:101860008C31203084000230850040309B314D2384
:101870007E1020009C31E72C7908F1007808F000F8
:101880000030F200F3000730F4000030F5009B3127
:1018900097238C312000D70157089331A8238C312E
:1018A000003A0319802C003021003D190130F0006E
:1018B000200057089C313C248C312000D60056086B
:1018C0000319802C113056020318802C5608003E54
:1018D000840099300318013E85000008D0005608A6
:1018E000EF3E840098300318013E85000008D100C7
:1018F0005008780786000030793D87005108810440
:1019000001302000D7070E305702031C4C2C210059
:10191000BD1DCF2C7808860079088700010C890C42
:1019200001392000D2007808860079088700010C70
:101930000139D3007808860079088700010CFA0085
:10194000FA0C7A0C0139D4007808860079088700EF
:1019500001080139D5007808860079088700530806
:1019600001390111031D01157808860079088700E7
:10197000520801398110031D811478088600790806
:101980008700550801398111031D811578088600EB
:1019900079088700540801390110031D0114200043
:1019A0000D0E890C890C01399B3153238C31003A7F
:1019B0000319E02C78088600870143318101F52C5A
:1019C00020000D0E01399B3153238C31003A03194D
:1019D000EF2C7808860087014331FF30F42C78081B
:1019E0008600870143318030810020000D0E890C74
:1019F00001399B3153238C31003A0319052D7808A6
:101A000086008701443181011B2D20000E0C890CBA
:101A100001399B3153238C31003A0319152D780875
:101A2000860087014431FF301A2D7808860087012F
:101A300044318030810078088600870142310830C7
:101A40008100780886008701453180308100780860
:101A5000860087014631803081000F2E780886008D
:101A6000870143310108031D452D78088600870151
:101A7000443180300106031D452D7808860087011A
:101A800042310108F0390638E02D780886008701D8
:101A900043310108031D5B2D78088600870144311E
:101AA0000108031D5B2D780886008701423101087B
:101AB000F0390738E02D78088600870143318030FF
:101AC0000106031D712D7808860087014431010845
:101AD000031D712D7808860087014231F0308105A1
:101AE000E12D7808860087014331010A031D872D07
:101AF00078088600870144310108031D872D780886
:101B00008600870142310108F0390138E02D78085C
:101B1000860087014331010A031D9E2D7808860047
:101B20008701443180300106031D9E2D7808860010
:101B3000870142310108F0390238E02D780886002B
:101B400087014331010A031DB42D780886008701FF
:101B50004431010A031DB42D780886008701423103
:101B60000108F0390338E02D7808860087014331F9
:101B700080300106031DCB2D780886008701443193
:101B8000010A031DCB2D7808860087014231010828
:101B9000F0390438E02D78088600870143310108C8
:101BA000031DE12D7808860087014431010A031DD9
:101BB000E12D78088600870142310108F0390538A7
:101BC00081007808860087014331803081007808E1
:101BD0008600870144318030810008007808860043
:101BE00087014531780884008501033100088100B0
:101BF0007808860087014631780884008501043121
:101C00000008810078088600870143318030810018
:101C10007808860087014431803081000800210067
:101C20003D080339003A03191C2E013A03192E2DE1
:101C3000033A0319EE2D1C2E080020004203031D59
:101C4000312E40081F39003A031D312EE3170330AF
:101C50004106031D2F2E01302100C800312E210026
:101C6000C80120004208031D080040081F39023A3D
:101C7000031D080044080F39003A031908004408FE
:101C80000F39D700023057020318080020306D06C4
:101C9000031D0800E317C41B602E44080F39D7004A
:101CA0000130D735890B512E5708B33E8600870186
:101CB000403FDB00413FDC0044080F39B93E722E43
:101CC00044080F39D7000130D735890B642E5708E7
:101CD000663E86008701403FDB00413FDC00440850
:101CE0000F39BB3E860087010108DA005A18822EA0
:101CF000FB30D700FF30D8005B085705DB005C08DD
:101D00005805872E04305B04DB0000305C04DC00E7
:101D1000C41B9A2E44080F39D7000130D735890BE0
:101D20008E2E5708B33E860087015B08C03F5C08D3
:101D3000C13FA92E44080F39D7000130D735890B90
:101D40009E2E5708663E860087015B08C03F5C08F0
:101D5000C13F03304106031DCA2E5B0886005C08A4
:101D60008700811FBF2EC41BB92E44080F39B93E0E
:101D7000BC2E44080F39BB3E8600870181145B08E6
:101D800086005C08870001155B0886005C088700F8
:101D90008117080004305B06DB0000305C06DC00C5
:101DA0005B0886005C088700811FF12E5B088600B7
:101DB0005C0887007F3081055B0886005C0887002F
:101DC00001170530D1000030D2005C08D4005B0858
:101DD000D3000230D5000030D6009D311C258E3155
:101DE000F62E5B0886005C0887000117043020008F
:101DF0005B06DB0000305C06DC00DA18052F5B08B0
:101E000086005C088700811F272FC41B0B2F440806
:101E10000F39B93E0E2F44080F39BB3E86008701AB
:101E200081105B0886005C0887003B308105053027
:101E3000D1000030D2005C08D4005B08D30002302F
:101E4000D5000030D6009D311C258E312D2F5B082A
:101E500086005C0887003B308105200044080F396C
:101E6000983ED900590886000E308700FE30810563
:101E7000080020006C0A860087010108DA005A0871
:101E8000D500D601560821002C02031D4B2F20003F
:101E9000550821002B020318502F2B082000DA00D0
:101EA00020005A08D500D60155082100AB022000B9
:101EB00056082100AC3B2000D9015A0859020318EA
:101EC000762F21002808860029088700200059085D
:101ED000483E840085010008810001302100A807E8
:101EE0000030A93D01302000D9075D2F21002B08CB
:101EF0002C040319B32F20006A0886006B088700A2
:101F00004131083081004830D5000030D600FF3024
:101F10005505D7007F305605D8006A0886006B0843
:101F2000870042315708C03F5808C13F6C088600FF
:101F30008701011BA72F6A0886006B0887004830BD
:101F400081006A0886006B088700811708006A080C
:101F500086006B088700083081006A0886006B08DD
:101F600087008117080020006A0886006B08870038
:101F70004131083081004030D5000030D6006A0879
:101F800086006B08870042315508C03F5608C13FA4
:101F90006A0886006B088700043081006A088600A2
:101FA0006B088700811721002D082E040319E12FEB
:101FB0000530A83E86008701413F8A00403F0A0065
:101FC0008F312100AA134308031D08009131A92174
:101FD00008003D001215EF3090058E1401302100ED
:101FE000C700BE0175302000D1000030D2000030A3
:101FF000D300D4000030D500D6009D311C25080048
:10200200F8010130F202720A03192F2870088600C3
:10201200710887000108F8060130F0070030F13D31
:10202200F701F81B1B287808F300F4017335F5005B
:10203200740D25287808F300F401F335F40D073008
:102042007306F50000307406F6007508F8000130DA
:10205200F7070830770203180228122878080800C8
:102062000830F200003020006502083003196402D3
:10207200031848286408F20021004B08031D432876
:10208200013047284B03031D48280230CB00720859
:10209200F000F10170082000E4027108E53B6608D7
:1020A20086006708870041317208810048302100AC
:1020B200C9002000631C72288A2821004908860072
:1020C2008701200061088400620885000008810001
:1020D2000130E1070030E23D01302100C907013043
:1020E200F2027208031908005E28210049088600DE
:1020F20087012000610884006208850000088100D1
:102102000130E1070030E23D01302100C907013012
:10211200F20272080319080076282100C001BF01EB
:1021220002304A06031DBC2820006A0886006B089C
:1021320087004131083081004830F3000030F4005C
:10214200FF307305F5007F307405F6006A088600DB
:102152006B08870042317508C03F7608C13F6A08A4
:1021620086006B088700483081006A0886006B0889
:10217200870081170800200065084702031DC32855
:10218200640846020318C9284708E5004608E40027
:10219200903131204830F3000030F400FF307305F5
:1021A200F5007F307405F600200066088600670897
:1021B200870042317508C03F7608C13F6608860035
:1021C2006708870048308100660886006708870034
:1021D2008117080020000D0D0D0D01399B3153238D
:1021E2009031003A0319080020000C0E01399B318E
:1021F20053239031003A031908000B1105302000D7
:102202009500F101F20120000D0D0D0D01399B31F8
:1022120053239031003A0319080020000C0E0139B3
:102222009B3153239031003A031908000B1D0429F6
:102232000130F1070030F23D00307202FA3003192A
:102242007102031C4529031021003D1D0314031CC8
:102252002D2921003D152F2921003D11F101F20107
:102262003B2920000C0E01399B3153239031003A57
:102272000319452920000D0D0D0D01399B31532302
:102282009031003A031D32290B11053020009500D0
:1022920004292000400E890C0339003A031D08006E
:1022A2008529E3170830ED00080092316B220800FF
:1022B2009231D0220800D030E1000030E2006314F5
:1022C2000130E400E31708009F31262708008E3111
:1022D2001D2608004408CC3EE10000305F29E317C8
:1022E2004408CC3E86008701420881000800023083
:1022F200D1000030D2000030D300D4000030D5002D
:10230200D6009D311C2508004108003A03196529B1
:10231200013A03196829023A03196829063A03198E
:102322005229033A03195629013A031978290F3A17
:1023320003195C29013A03195929033A03196B2934
:10234200013A03197029073A0319A829A829080094
:1023520021004208031D08000130C2004108031D8C
:1023620008000130C10002304A06031DCB292000BB
:102372006608860067088700413181016608860089
:102382006708870048308100660886006708870072
:10239200811708004A03031D0800C50120006C0ACA
:1023A20086008701083081004030F0000030F100E3
:1023B2006C08023E860087017008C03F7108C13F69
:1023C2006C0886008701043081006C088600870152
:1023D200811701302100C50020006A0886006B08C1
:1023E20087004131083081004030F0000030F100B8
:1023F2006A0886006B08870042317008C03F710886
:10240200C13F6A0886006B0887008030810008009F
:1024120020000D0D0D0D01399B3153239231003AED
:102422000319080020000D0E890C01399B3153233A
:102432009231003A031908000B1105302000950073
:10244200F101F20120000D0D0D0D01399B315323D5
:102452009231003A0319080020000D0E890C01394F
:102462009B3153239231003A031908000B1D232A92
:102472000130F1070030F23D00307202FA300319E8
:102482007102031C662A03102100BD1D0314031CE4
:102492004D2A2100BD154F2A2100BD11F101F20183
:1024A2005C2A20000D0E890C01399B315323923195
:1024B200003A0319662A20000D0D0D0D01399B31DA
:1024C20053239231003A031D522A0B11053020008A
:1024D2009500232A803020004006031D0800C030EA
:1024E200E300C42ADD30E1009830E2001230E4005B
:1024F2000030E50008004208031DA22A4208F0004D
:10250200F101F035F10D1B30700784001930713D77
:1025120080388500003FE100013FE20002306107A0
:10252200840062080318013E85000008E4000330BD
:102532006107840062080318013E85000008E50077
:102542000800E3010800033042020318A22A4208ED
:10255200F000F101F035F10D1130700784001930EF
:10256200713D80388500003FE100013FE2006108D3
:102572008400620885000008F000F1017008E400A0
:102582007108E50008004308013A0319732A033A67
:1025920003197C2A013A0319A42AA22A080020005E
:1025A200E3179930D700D801570886000E3087000C
:1025B20081010130D7070130D80758080319D52AFD
:1025C2002030F0000030F1000030F200F300203043
:1025D200F4000030F5009B31972392313D000E1735
:1025E2002000D9015908BB3E8600870181015908A4
:1025F200B93E8600870181010130D90702305902B4
:10260200031CF32ACC30F0000030F1000030F2005D
:10261200F3000230F4000030F5009B319723923131
:102622003D000E1328302000E6000030E700203085
:10263200EC006C08EA00EB0142082100D0005008CF
:10264200031D272B10302000ED0008000130200070
:10265200D1000030D200D030D3000030D40001309D
:10266200D5000030D6009D311C2520302000ED0021
:10267200080020000D0D0D0D01399B3153239331BC
:10268200003A0319080020000E0C01399B31532334
:102692009331003A031908000B1105302000950010
:1026A200F101F20120000D0D0D0D01399B31532373
:1026B2009331003A0319080020000E0C01399B31B6
:1026C20053239331003A031908000B1D532B013099
:1026D200F1070030F23D00307202FA300319710244
:1026E2000318802BA32B3D08FC3901387B2B3D08B6
:1026F200FC390238BD008D2BFC30BD058D2B21002D
:102702003D080339003A0319742B013A0319782B57
:10271200033A03197D2B8D2BF101F201992B200035
:102722000E0C01399B3153239331003A0319A32B29
:1027320020000D0D0D0D01399B3153239331003AC9
:10274200031D902B0B11053020009500532BF20036
:10275200EB2B20000E0D0E0D01399B315323080087
:1027620020000E0E890C890C01399B31532308007D
:1027720020000E0CF100F10C710C01399B31532336
:10278200080020000C0E890C01399B3153230800EC
:1027920020000E0E890C01399B31532308002000C2
:1027A2000E0E01399B315323080020000E0C013913
:1027B2009B315323080020000C0E01399B31532317
:1027C200080020000D0D0D0D01399B315323080027
:1027D200003008007208003A0319AA2B013A0319C3
:1027E200B12B033A0319B92B013A0319C22B073A49
:1027F2000319C92B013A0319D02B033A0319D62B1B
:10280200013A0319DC2B0F3A0319E22B013A03199F
:10281200E92B033A0319E92B013A0319E92B073A89
:102822000319E92B013A0319E92BE92B0800F800F7
:1028320070080319242C7835663E86008701403FD4
:10284200F900413F2B2C7835B33E86008701403F8B
:10285200F900413FFA0079087A04031D332CF00194
:10286200F1010800FF307105F4007F307205F500B8
:10287200790886007A08870042317408C03F7508DB
:10288200C13F790886007A088700413173088100C8
:10289200790886007A088700403081057908860029
:1028A2007A0887008115790886007A0887008117DF
:1028B20070080319732C7835663E86008701403F05
:1028C200F400413FF50004307406F600003075064E
:1028D200F7007835663E860087017608C03F7708A4
:1028E200C13F892C7835B33E86008701403FF40012
:1028F200413FF50004307406F60000307506F7001B
:102902007835B33E860087017608C03F7708C13F1D
:102912007A08F1007908F00008003D000E1220004C
:10292200E31BCD2C2100AA1FA12C0230CA003F08B4
:10293200031D9D2C90318E202100C101C20108008F
:1029420020006A0886006B08870041310830810048
:102952004030F7000030F8006A0886006B088700F4
:1029620042317708C03F7808C13F6A0886006B0889
:1029720087000C3081006A0886006B088700811787
:1029820066088600670887000430810066088600B2
:102992006708870081170800C01FE12C0130210061
:1029A200CA004008031DD82C90318E20943121009A
:1029B200C101C2014308031D08009131A921080089
:1029C20002302100CA0020006A0886006B088700D6
:1029D2004131083081004030F7000030F8006A08C9
:1029E20086006B08870042317708C03F7808C13FF4
:1029F2006A0886006B088700043081006A08860036
:102A02006B0887008117D82C2000660886006708AB
:102A12008700010E890C890C0139D9000430660641
:102A2200E60000306706E70008306D06031D252D1D
:102A320042087F393D00960016080319222D1030F6
:102A4200232D04302000ED0021004A03031D6E2DCA
:102A520048302000D5000030D600FF305505D700A1
:102A62007F305605D8006608860067088700423125
:102A72005708C03F5808C13F90313120953102308C
:102A820021004B06031D522D2000660886006708B0
:102A92008700043081006608860067088700811776
:102AA200080020005908031D622D66088600670889
:102AB2008700483081006608860067088700811712
:102AC20008006608860067088700083081006608EB
:102AD20086006708870081170800AA1F7F2D2D082E
:102AE2002E0403197D2D0530A83E86008701413F43
:102AF2008A00403F0A0095312100AA13CA0108004A
:102B0200200040081F39013A031D08000230440228
:102B120003180800063041060319BC2DC72D2100F9
:102B22005003031DC72D20004408031DA32D683048
:102B3200E1009830E2000930E4000030E500C030E6
:102B4200E300C72D4403031DC72D8330E1009830F5
:102B52009B2D4408031DB32D0030E1009830E200A4
:102B620056309D2D4403031DC72DC830E100983017
:102B7200E20015309D2D4308213A0319902D033AA6
:102B82000319AA2D013A0319C72DC72D2000400EA3
:102B9200890C0339013A031D0800F42D9D31C82523
:102BA2000800CF30E1000030E2000130E4000030E4
:102BB200E500C130E30008008030E3004308210053
:102BC200CF000800CE30E1000030E2000130E40026
:102BD2000030E5008130E30008008030E300420865
:102BE2002100CE0008004108013A0319CF2D033A13
:102BF2000319D22D013A0319E32D0A3A0319CF2DF5
:102C0200033A0319DD2D013A0319EE2D082E0800AF
:102C1200210012113D009301900198019930F100B9
:102C2200F201710886000E30870081010130F10740
:102C32000130F20772080319122E16303D0091007E
:102C42009F3097007B309200F3017308F00002304E
:102C5200F035890B292E7008203E8600870100304E
:102C6200C03F0030C13FC23FC33F0130F3070830CD
:102C72007302031C262E3D000E1796010E120E1330
:102C8200F73090052000E3012100AA01AB01AC015D
:102C92003D009019412E01302100C2000130C100D7
:102CA200C001BF01C701F3017335663E860087018B
:102CB2000030C03FC13F7335B33E8600870100300C
:102CC200C03FC13F7308BB3E860087018101730884
:102CD200B93E8600870181010130F3070230730299
:102CE200031C552E28302000E6000030E700163085
:102CF2003D00980000302000A3004030A2000830C0
:102D0200A1000430A000A0172100D0010030B200C1
:102D12000030B1000030B0000030AF00BE01200032
:102D2200ED010800F9017908203E86008701013093
:102D3200873D7908803EF0001F3003182030F100F3
:102D42009B31AF23963181000130F907403079027F
:102D5200031C942E22002103031DBC2E2030F00000
:102D62000130F1003F30F200903101209631220013
:102D72002206031908000330A8000230A900083017
:102D8200AA000430AB000130AC000730AD000530C2
:102D9200AE000630AF000A30B0000330B800023097
:102DA200B9000930BA000430BB000E30BC000D304F
:102DB200BD000B30BE000C30BF000A30C000A001C5
:102DC2002330F0000130F1000030F200F300053052
:102DD200F4000030F5009B31972396313630F00035
:102DE2000130F1000030F200F3000230F400003054
:102DF200F5009B31972396314630F0000130F10007
:102E02000030F200F3000230F4000030F5009B3194
:102E1200972396314830F0000130F1000030F20083
:102E2200F3001830F4000030F5009B3197239631FF
:102E320001302200A1002030F0000130F1003F30CB
:102E4200F200903101202200A200080020006D084B
:102E5200031D3B2F3D008E019201163091009F30E1
:102E620097007B3092008E19382F8E15342F013047
:102E72002000ED006D03031D482F3D008E1A482FE0
:102E8200900192011214121602302000ED003D0052
:102E92001019121D512FFB3090059B31E023973101
:102EA2003D008E1C572F2000121108001018121C12
:102EB200632F96310926973104302000ED00FE3051
:102EC2003D009005101A121E692F8F31E9279731A4
:102ED2003D00101F8F2F121F7D2F73302000D10055
:102EE2000030D2000030D300D4000130D5000030D1
:102EF200D6009D311C259731BF303D0090059B3196
:102F020071239731210044080319892F0130C4022B
:102F12004408031D8F2F9131A92197313D00901A4A
:102F2200921E962F9C311B2497313D009018921CC3
:102F3200AB2FFF302000D1007F30D2000030D30011
:102F4200D4000130D5000030D6009D311C259731C8
:102F52003D009301043020006D020318B22F1211BC
:102F620008003D00921DFD2F2000E001FA2F0F08FE
:102F72002000EE006E0CDF00DF0C5F0C0F39210029
:102F8200C600F7303D00900520006E19CC2F2100BD
:102F92004608B93ECF2F21004608BB3E8600870176
:102FA200010801392000DF000130DF0601085F0659
:102FB200FE395F06810021004608031DE42F9E3181
:102FC20083269731F32F72302000D1000030D200D7
:102FD2006E30D3000030D4000030D500D6009D31D1
:102FE2001C25973101302000E007043060020318ED
:102FF200FD2F3D009019B82F200012110800053452
:10300200013409340534A134013415340034253433
:103012000134353400344534013475340134953487
:10302200103405340934193401342934103481340C
:103032000234053401342534073446343B34013438
:103042007534043495340134653414340934393414
:10305200813442346534003495340134813401348E
:103062002634FF3400344634FF340034093430341B
:10307200093431340934323409343534753408347E
:10308200953404348134023406340034FF34093474
:10309200203495340134813402340A342134263404
:1030A2009534083491340234C0340934023434344F
:1030B2000034023401340034C0343234093404346C
:1030C2000034003401340334003400340034093451
:1030D20021341134013400340134223456340034A2
:1030E2000734053481340334403400340134093464
:1030F20004340134003400340334FF34FF34003428
:1031020009342134113401340034013422341534A9
:1031120000342434033453340034573400344934F3
:1031220000345434003443340034483400342034FE
:103132000034433400344F3400344E3400345434B9
:103142000034523400344F3400344C3400344C34A4
:10315200003445340034523400341A3403345334C6
:103162000034573400344934003454340034433486
:1031720000344834003420340034543400344534AC
:1031820000345334003454340034203400340634D0
:103192000034FF3409340134A134013415340034CD
:1031A2002634FF34003475340834953440340934FD
:1031B2000134B1340234C0341234013400340234E4
:1031C20000340034003408340D340F3492340034A7
:1031D2000034013401340234033401340034013444
:1031E200023404340834103420344034803401343E
:1031F200023404340834103420344034803400342F
:10320200003400340034003400340034003400341C
:103212000134013401340134013401340134013404
:1032220017349934AE3498348A34983404340334DD
:083232000934043456349834C9
:103682002300951108009B3141230800FC302100E2
:10369200BD053D11BD110800640080010131890B97
:1036A2004E2B0034F0007008031D592B0130080026
:1036B20000300800A0302000D2004030D30000309B
:1036C200D4009E31032608002100B701B8011A3048
:1036D200F60001309B31C7239B319B314723080001
:1036E20001302100AF070030B03DB13DB23D470887
:1036F200031D08000130BE073E08031D0800FF300D
:10370200BE0008007B08F0000130F1002030F2001A
:103712000130F3004030F4000030F5009C315E24AB
:103722007B08860001308700810108007108F700DC
:103732007008F6000130F4020030F53B740A0319F8
:10374200750A031908007608860077088700720850
:1037520081000130F6070030F73D9B2B0B0D0B0D5E
:103762000139F2008B137108230092007008910056
:10377200151315140000000023001308F300720C47
:10378200031C8B1303188B1773080800F800761DAF
:10379200CF2BF00178089D318E259B31F61CD62B5C
:1037A200F001F00A78089D318E257808983EF700DE
:1037B200770886000E308700760881000800210015
:1037C200C70174302000D1000030D2000030D30095
:1037D200D4000030D500D6009D311C259B313D0020
:1037E2008E101211101DF82BFB309005F32B2100C7
:1037F200BE010800F2009B3144239B31072CFC30B0
:1038020021009900903027009B0008007208F00008
:10381200F1017108003A03190F2C1A2C7008003AB2
:103822000319002C013A03191A2C033A03191A2C12
:103832001A2C08003D00181C392C20006C08860048
:10384200870180300106031D372C66088600670851
:10385200870084300106031D372C6C08860087011F
:103862000C3081006C088600870181173D0018101A
:10387200DF3090050800F3000E307302031C432C66
:10388200003008007008031D522C2830F10001306E
:10389200F2007308710786000030723D870001084C
:1038A20008003830F1000130F20073087107860019
:1038B2000030723D8700010808007308FA007208A0
:1038C200F9007108F8007008F7000130F4020030C6
:1038D200F53B740A0319750A031908007908860072
:1038E2007A0887000108F6000130F9070030FA3D36
:1038F2007708860078088700760881000130F7078C
:103902000030F83D662C023021004A06031D8C2C43
:103912008F3139270800CA014508031DB12C200048
:103922006A0886006B088700413108308100403008
:10393200DB000030DC006A0886006B088700423139
:103942005B08C03F5C08C13F6A0886006B088700BD
:103952000C3081006A0886006B0887008117080016
:10396200C5010800203020006D02031C08003D0044
:103972008E1808002100370838040319C62C3708AE
:10398200860038088700811B0800A030F80000304C
:10399200F9008C313C249C31F001F00AA030F10096
:1039A2000030F2000830F3000130943118249C31C9
:1039B20071082100B8007008B70093313A239C3196
:1039C2009031EB209C3192310922080000309B316A
:1039D200FB239C31963109269C31963193269C31EA
:1039E200303021008C00F0308D00FF308E009513B6
:1039F200303024008C0070308D0023008C018D014A
:103A02008E01073021009504951115129512151794
:103A12008B17053020009500973127279C312030E5
:103A220020006D02031C0D2D3D008E180D2D9C31C2
:103A3200B3249C310D2D2B2D01309B31FB2308002B
:103A420002309B31FB2308009B316523080095312E
:103A52008125080020005208003A0319342D7F3ACC
:103A620003194E2D532D5108013A0319252D033AFE
:103A72000319532D013A0319282D063A0319532D20
:103A8200773A0319532D013A0319532D073A0319B3
:103A9200212D013A03191D2D532D5108FF3A031907
:103AA200532D532D08002830F0000130F100200082
:103AB2005008F200F3010E30F4000030F5009C31A2
:103AC2005E249D313830F0000130F10020005108B1
:103AD200F200F3010E30F4000030F5009C315E2458
:103AE2009D312200A0010130A1002030F000013000
:103AF200F1003F30F200903101209D312200A200FE
:103B02008030F0001F30F1002030F2000130F3006D
:103B12004030F4009E31D0260800F4002030F50039
:103B22007008F1000130F135890B942D7408F20010
:103B32000230F235890B9A2D72087107F3000230B8
:103B4200F335890BA12D7308F507750886008701E7
:103B520081137008031DB62D7435B33E86008701AC
:103B62007508C03F0030C13FBE2D7435663E8600E9
:103B720087017508C03F0030C13F75088600870184
:103B820001137508043E8600870101170800200012
:103B920042084408D0005003031D080009304106C2
:103BA200031DE22DA0302100A8000130A900403001
:103BB200AB000030AC005B30AD001B30AE00AA178A
:103BC20008004103031D0800A030F0000130F1009D
:103BD2000030F200F3004030F4000030F5009B3179
:103BE20097239D31A030FB009B318323A03020001E
:103BF200E1000130E2004030E4000030E500C13075
:103C0200E300080000302000540240300319530240
:103C1200031C08002100ED016D08D13E86008701DA
:103C22006D0820005207FB007B08083E840001302B
:103C320085000008810001302100ED070E306D0281
:103C4200031C0D2EEE016E08DF3E860087016E0812
:103C520020005207FB007B08183E840001308500DB
:103C62000008810001302100EE070E306E02031CB5
:103C7200242ED1302000D000DF30D1009D315425D8
:103C820008002100CB01C301C001BF01C501CA0167
:103C9200200066088600670887007F3081050430AF
:103CA2006606E60000306706E700660886006708D9
:103CB20087007F30810504306606E6000030670623
:103CC200E7006A0886006B0887007F308105E30100
:103CD200E401E5012100AA01AB01AC0191314A21C5
:103CE2009E3103302000D1000030D2000030D300DA
:103CF200D4000030D500D6009D311C259E31943170
:103D02008E2408002D302100C40020006E08FD39E9
:103D1200031DC62E6E08DD000130DD36890B8E2EA6
:103D22005D083F39DE000230DE35890B952E5E08D4
:103D3200203EEC006C08EA00EB0104306A06EA005F
:103D420000306B06EB006C0886008701010C890CC1
:103D52000F390D3A031DC32E4030F0000030F10040
:103D62006C08023E86008701403FF200413FF300AB
:103D72000830F4000030F5009C315E249E319E3103
:103D8200422608009C3184240800FD306E05DD00C7
:103D920004305D06031D08009531052508000B0D52
:103DA2000B0D0139F7008B13710823009200700884
:103DB200910015131516151555309600AA30960068
:103DC20095149518E22EF8017408780203181F2F33
:103DD20078087007F50071080318710AF600760872
:103DE20092007808700791003F30940078087207BB
:103DF20086000030733D8700010893001512740895
:103E0200FF3EF500FF3003180030F6007608803AD6
:103E1200803C031D0E2F750878020318132F230010
:103E22009516152F2300951255309600AA3096004C
:103E3200951495181A2F0130F807E52E1511770CF5
:103E4200031C8B1303188B1708002000C801C9013B
:103E5200692FE31721004803031D752F2000C814A2
:103E6200752FE317752FE31744080F39003A03192A
:103E7200752FC41B4B2F44080F39F0000130F03569
:103E8200890B402F7008B33E86008701403FF10046
:103E9200413F592F44080F39F0000130F035890BAA
:103EA2004F2F7008663E86008701403FF100413F78
:103EB200F2007108860072088700811F752F710851
:103EC200860072088700011D752F0130C800752F0A
:103ED20040081F39003A03192A2F013A0319322FD9
:103EE200033A0319342F752F2000E31F08004830CE
:0E3EF200E1000030E20063140230E40008003A
:020000040001F9
:08000000FF3FFF3FFF3FFF3F00
:04000E00A40FCF1F4D
:00000001FF
